:04000000BBEF14F04E
:08000800046ED8CF05F0E0CF33
:1000100006F00001E9CF0CF0EACF07F0E1CF08F0DD
:10002000E2CF09F0D9CF0AF0DACF0BF0F3CF12F01C
:10003000F4CF13F0FACF14F0F5CF15F0F6CF16F099
:10004000F7CF17F000C00EF001C00FF002C010F0A3
:1000500003C011F09DAA30EF00F09EBA00EF01F04E
:100060009DA036EF00F09EB06DEF00F0A0A23CEF37
:1000700000F0A1B2C7EF00F00EC000F00FC001F019
:1000800010C002F011C003F00CC0E9FF07C0EAFF86
:10009000078E08C0E1FF09C0E2FF0AC0D9FF0BC00C
:1000A000DAFF12C0F3FF13C0F4FF14C0FAFF15C04B
:1000B000F5FF16C0F6FF17C0F7FF045006C0E0FFBB
:1000C00005C0D8FF1000F76AD60FF66E000EF722B3
:1000D0000900F5501200280C01063E2AD8B43F2A28
:1000E000A72BD8B4A82BA85303E1A751630806E2B5
:1000F000A86BA76BA92BD8B4AA2BAC2B9388556AF5
:1001000081B8552A555203E15D2AD8B45E2A9588F4
:10011000566A83B8562A565203E15F2AD8B4602B38
:100120009384576A81B4572A575203E1612BD8B49C
:10013000622B9386586A81B6582A585203E1632B82
:10014000D8B4642B9380596A81B0592A595203E17B
:10015000652BD8B4662B93825A6A81B25A2A5A52B6
:1001600003E1672BD8B4682BA12BD8B4A22BA32B07
:10017000D8B4A42BA52BD8B4A62B4E2AD8B44F2A7A
:10018000E70ECF6E960ECE6E9E903CEF00F0AF2B3A
:10019000D8B4B02BFE0EB36E0C0EB26EA1923CEF33
:1001A00000F0030E0101A15F0AE3010EEA6EA10E49
:1001B000E96EEF5004E001D000D0EF2EFDD7000132
:1001C000EBEF00F0200E01019F6F020EA06F9B0E5F
:1001D000A16F0001E6D70101A02FF9D79F2F03D00F
:1001E0001F6A016A0AD09EAAF0D7AB501F6EAE50AC
:1001F000016E1FA202D0AB98AB88000114EF01F092
:10020000F29CF29EF2BEFDD7416A4150190829E3E3
:10021000036A4150510FE96E010E0320EA6EEACFE6
:100220009EF1E9CF9DF1CED79EC1EAFF9DC1E9FFC6
:1002300001C0EFFF412A036A4150510FE96E010EE0
:100240000320EA6EEF500D080AE0036A4150510F97
:10025000E96E010E0320EA6EEF502D08D8B401D0EC
:10026000D4D7010E436EAD6F9E9A3CEF00F0424F23
:10027000525241525F414C4C0D000C424F52524180
:10028000525F414C4C00424F525241525F414C4CE4
:100290000D0052455345545F4F4B0D0A0000424F2D
:1002A000525241525F414C4C0D0043324F4B0000C3
:1002B00043314F4B000053455249414C5F544F4B23
:1002C0000D0043324F4B0000537562320000202076
:1002D00020200000202020200000202020200000DE
:1002E000424C0000424C0000424C00002020000024
:1002F000534F4C4943495441444F0D0050415341E1
:100300004A45524F533A0D004143432B30313A2571
:1003100030344C752C2530344C752C2530344C75CC
:100320002C2530334C752C2530334C752C25303230
:10033000752C0D0A00004143432B30313A253034EF
:100340004C752C2530344C752C444553432C2530AA
:10035000334C752C3030302C253032752C0D0A0082
:100360004445534300000C002000200020002000E2
:10037000200020002000200020002000200020007D
:100380006D656D6F72793A25730D000053313A2512
:100390004C64200042313A254C64200053323A2507
:1003A0004C64200042323A254C64200053313A20FC
:1003B0002020200042313A202020200053323A25CC
:1003C0004C64200042323A254C6420005345524987
:1003D000414C544553540D0A0000433D3500010E75
:1003E000EA6E930EE96EEF500DE0060E016E006AA4
:1003F000002EFED7012EFBD77B0E006E002EFED7FF
:10040000EF2EF3D7120001019AB102D0899801D0E2
:10041000898892989AB302D0899401D08984929461
:100420009AB502D0899201D0898292929AB702D06D
:10043000899001D089809290000092968986020E60
:10044000006E002EFED700D0000092968996000123
:10045000120096948D94630E006E002EFED700D08D
:100460000101975303E096948D8402D096948D9465
:100470000000929689969839996F0F0E991799C135
:100480009AF10001C0DF010198510F0B996F9A6F2B
:100490000001B9DF1200010E216E96948D949296A0
:1004A0008996230E0101936F000199DF0101896B89
:1004B000895102080CE3030E9A6F0001A4DF050EB8
:1004C0000101936F00018BDF0101892BF1D7020E2F
:1004D0009A6F000198DF0101896B8951030812E3CB
:1004E000036A89510001EFDD01018A6F976B986FF4
:1004F0000001AFDF050E0101936F000170DF010104
:10050000892BEBD700019BEF15F0958E958C9DEF15
:1005100015F0080E016E050E006E002EFED78C9EA3
:10052000959E060E006E002EFED7010193378C9C1F
:10053000D8B0958CD8A0959C958E83AEFED7012E11
:1005400001D002D00001E7D7050E006E002EFED7C5
:100550008C9E959E0000958C060E006E002EFED798
:10056000060E006E002EFED7958E83AEFED7016A72
:10057000060E006E002EFED783BC01808C9E959ED9
:100580008C9C959C00011200958C050E006E002E2F
:10059000FED7958E060E006E002EFED78C9C959C85
:1005A000050E006E002EFED78C9E959EA00E0101BA
:1005B000936F0001AEDF8EC191F10101926B8EC18C
:1005C00093F10001A6DF8DC193F1A3DF8FC193F1F9
:1005D000A0DF959C0000958E83AEFED7050E006EC1
:1005E000002EFED700D00000958C050E006E002E68
:1005F000FED7958C050E006E002EFED7958E060E4A
:10060000006E002EFED78C9C959C050E006E002E71
:10061000FED78C9E959EA00E0101936F000179DF9D
:1006200001500101909101B0908190A11ED0958C54
:10063000050E006E002EFED7958E060E006E002E63
:10064000FED783AEFED78C9C959C050E006E002EC7
:10065000FED78C9E959EA00E936F00015ADF01502D
:100660000101909101B09081E0D7959C0000958E9A
:1006700083AEFED7050E006E002EFED700D0000020
:10068000958C050E006E002EFED700011200F29C24
:10069000F29EF2BEFDD70101896B8A6B8C6B8B6B6E
:1006A0008C6B8B6B8A6B896B3DC08CF13CC08BF182
:1006B0008BC18AF18CC189F18E6B140E8D6F89C14B
:1006C0008FF1000161DF01018E6B150E8D6F8AC104
:1006D0008FF1000159DFC00EF2121200080E010165
:1006E000916F00C092F1958C060E006E002EFED721
:1006F000958E83AEFED783BCD88083ACD89001366C
:10070000050E006E002EFED7959E8C9E912FEBD786
:10071000958C060E006E002EFED78C9C9251D8A4AC
:10072000959C0000958E83AEFED7050E006E002EC0
:10073000FED78C9E959E060E006E002EFED78C9CDA
:10074000959C0001E1EF03F0958C050E006E002EE4
:10075000FED7958E060E006E002EFED78C9C959CC3
:10076000050E006E002EFED78C9E959EA00E0101F8
:10077000936F0001CEDE8EC190F10101916B8EC1AD
:1007800093F10001C6DE8DC193F1C3DE958C050E99
:10079000006E002EFED7958E060E006E002EFED740
:1007A00083AEFED78C9C959C050E006E002EFED766
:1007B0008C9E959EA10E0101936F0001AADE006A36
:1007C0008DD701C08FF1959C0000958E83AEFED72A
:1007D000050E006E002EFED700D00000958C050E91
:1007E000006E002EFED701018FC101F00001120042
:1007F000F29CF29EF2BEFDD70101896B8A6B8C6B75
:100800008B6B8E6B140E8D6F00019EDF01C089F122
:1008100001018E6B150E8D6F000196DF01C08AF10C
:1008200001018C6B89C18BF18BC18CF18B6B8A516F
:100830008B138CC13DF08BC13CF0C00EF212000155
:10084000120001019451010A000107E0030A08E0C7
:10085000010A0AE0070A0CE010D00101956B0FD0E5
:10086000400E0101956F0BD0140E0101956F07D05A
:10087000540E0101956F03D000010101956B010E2B
:10088000935D952795518009966F976B986F00013E
:10089000E0DD1200010192510C0A000105E0060A98
:1008A00011E0020A18E01ED00101976B010E986F4B
:1008B0000001CFDD010E216E020E0101936F0001D8
:1008C0008EDD17D0212A010E0101936F21C094F112
:1008D0000001B7DF0ED00101976B100E986F000179
:1008E000B8DD07D0010E0101976F92C198F10001A8
:1008F000B0DD12000900F6CF8AF1F7CF8BF1F5CF0A
:1009000092F1C8DF8AC1F6FF8BC1F7FF0101892F81
:1009100001D002D00001EED700011200EACF91F120
:10092000E9CF90F101018AAF08D0908F90A9902B68
:10093000891F8A1F892BD8B48A2B8A39F0098C6FBA
:100940008C27E20F8D6F320F8F6F8A510F0B8D271F
:100950008D278F27E90F8E6F8E278E2789390F0BF2
:100960008E278F278E378F378F1F8F3789510F0B29
:100970008F278C37070E8B6F0A0E8E078F27FDE3AC
:100980008D078E27FDE38C078D27FDE38B078C27D2
:10099000FDE3010EEA6E8B0EE96E070E9015909D39
:1009A000ED52901507E190B9EE5290B903D0200EA8
:1009B000006E20D0E926000EEA22E9508F0803E1FC
:1009C000EA2C01D0908DEF50006E08E190BD06D06A
:1009D00090B91DD090B702D0200E0BD090AF06D0AA
:1009E0002D0E006EED50909D909F04D090879099B1
:1009F000300E0026EACF8AF1E9CF89F100C092F1EA
:100A0000000148DF8AC1EAFF89C1E9FF0101EE5018
:100A100090ADD3D7000112000900F5520CE0F6CFDB
:100A20008DF1F7CF8EF1F5CF92F134DF8DC1F6FF66
:100A30008EC1F7FFF1D71200010E0101936F946F81
:100A40000001FFDE4552D8B48FD0310E0101926F04
:100A5000000120DF200E0101926F00011BDF4BC15E
:100A600092F118DF4CC192F115DF4DC192F112DF06
:100A70004EC192F10FDF4FC192F10CDF200E010148
:100A8000926F000107DF0E0E0101936F010E946F4C
:100A90000001D7DE8C0EF66E030EF76E030E010119
:100AA000896F000127DF100EE96E8BC08AF18AC0C2
:100AB00089F134DF200E0101926F0001EBDE0E0E92
:100AC0000101936F020E946F0001BBDE940EF66E6F
:100AD000030EF76E030E0101896F00010BDF100E8C
:100AE000E96E8DC08AF18CC089F118DF200E0101FA
:100AF000926F0001CFDE0E0E0101936F030E946F13
:100B000000019FDE9C0EF66E030EF76E030E0101D0
:100B1000896F0001EFDE100EE96E35C08AF134C036
:100B200089F1FCDE200E0101926F0001B3DE0E0E92
:100B30000101936F040E946F000183DEA40EF66E24
:100B4000030EF76E030E0101896F0001D3DE100E54
:100B5000E96E37C08AF136C089F1E0DE200E01016E
:100B6000926F000197DE6ED0320E0101926F00018C
:100B700091DE200E0101926F00018CDE4BC192F1DB
:100B800089DE4CC192F186DE4DC192F183DE4EC109
:100B900092F180DE4FC192F17DDE200E0101926F55
:100BA000000178DE0E0E0101936F010E946F0001BB
:100BB00048DEAC0EF66E030EF76E2EDF0E0E010150
:100BC000936F020E946F00013CDEB40EF66E030EBE
:100BD000F76E22DF0E0E0101936F030E946F00017A
:100BE00030DEBC0EF66E030EF76E030E0101896F48
:100BF000000180DE100EE96E8BC08AF18AC089F197
:100C00008DDE200E0101926F000144DE0E0E010107
:100C1000936F040E946F000114DEC40EF66E030E83
:100C2000F76E030E0101896F000164DE100EE96E9C
:100C30008DC08AF18CC089F171DE200E0101926FA6
:100C4000000128DE12008C518A250101896F000104
:100C50008D518B2101018A6FD8908A3100018F6FED
:100C60000101893100018E6FE7DE5B6A5C6A2A6AE6
:100C70002AC029F029C028F02D6A2DC02CF02CC0E4
:100C80002BF01200F29CF29EF2BEFDD701018E6B9A
:100C9000020E8D6F8AC08FF1000176DC8BC089F166
:100CA00001018A6B8E6B010E8D6F8BC08FF100017D
:100CB0006BDCC00EF212C7DF1200F29CF29EF2BE95
:100CC000FDD701018E6B040E8D6F8CC08FF100017A
:100CD0005BDC8DC089F101018A6B8E6B030E8D6F19
:100CE0008DC08FF1000150DCC00EF212ACDF12009B
:100CF000936B926B956B946B3D6A3C6AC8DC78DDB4
:100D00008F6B8E6B916B906B8D6B8C6B8B6B8A6B1F
:100D1000B9DFD3DF4D6A4C6A526A536A546A0101E3
:100D20008E6B090E8D6F52C08FF100012DDC010119
:100D30008E6B0A0E8D6F53C08FF1000125DC01010F
:100D40008E6B0B0E8D6F54C08FF100011DDC660E93
:100D5000F66E030EF76E60DE6FDE1200F29CF29EFE
:100D6000F2BEFDD70101896B8A6B8C6B8B6B8E6B2E
:100D7000010E8D6F0001E8DC01C089F101018E6B6D
:100D8000020E8D6F0001E0DC01C08AF101018C6B65
:100D900089C18BF18BC18EF18D6B8D518A118B6F57
:100DA0008EC18CF18CC18BF08BC18AF0C00EF21217
:100DB0000001E4EF15F0F29CF29EF2BEFDD70101B6
:100DC000896B8A6B8C6B8B6B8E6B030E8D6F000146
:100DD000BBDC01C089F101018E6B040E8D6F000137
:100DE000B3DC01C08AF101018C6B89C18BF18BC12D
:100DF0008EF18D6B8D518A118B6F8EC18CF18CC1F0
:100E00008DF08BC18CF0C00EF2120001E6EF15F0F0
:100E10000900F5520DE0F6CF8BF1F7CF8CF1F550CC
:100E20009EA8FED7AD6E8BC1F6FF8CC1F7FFF0D741
:100E30001200D0500F0BD0A8000ED080D082D088E6
:100E4000D886D888070A07E0080A06E0010A0AE0FF
:100E5000020A09E008D007D0CC0EF66E030EF76E3A
:100E6000D7DF01D000D055EF16F0100E01018A6FC8
:100E7000010E896F208C9482100E006E002EFED71A
:100E80000000892F05D08A2F03D0206A016A24D060
:100E900082B2F2D7080E006E8B6BF2CF8CF1F29E0D
:100EA000008E0ED0009E0CD0D89082B2D8808B33AA
:100EB000008C06D0009C002EF7D78B51016E0CD011
:100EC000A70E00BE2D0E016E012EFED7000000BE43
:100ED000E9D700BCEFD7E8D78CBFF28E0001B2EFA4
:100EE00016F0496A486A48C044F04B6A0A0E4A6ED6
:100EF00049524AE14850090847E3445245E1416AF2
:100F0000482AD8B4492A4150090838E3036A4150B5
:100F1000790FE96E010E0320EA6E41504A24010167
:100F20008B6F000E4B208C6FF2CF8DF1F29E8BC138
:100F3000A9FFA69CA69EA680A8508DBFF28EEF6E3C
:100F4000036A4150790FE96E010E0320EA6EEFCF7C
:100F500089F1036A4150510FE96E010E0320EA6ED8
:100F6000EF50895D03E0000109D00101412A4150A1
:100F70000A0802E1010E446E0001C5D70A0E4A2696
:100F8000000E4B220400B4D7F3EF16F001018FC11D
:100F9000E9FF90C1EAFFEFCF93F192C103F091C155
:100FA000E9FF92C1EAFFEF50935D15E190C103F0B4
:100FB0008FC1E9FF03C0EAFFEF5203E1000E016EAB
:100FC0001FD090C103F08F518F2BD8B4902B912B51
:100FD000D8B4922BDCD790C103F08FC1E9FF90C148
:100FE000EAFFEFCF93F192C103F091C1E9FF92C103
:100FF000EAFFEF50935D02E2FF0E01D0010E016E99
:10100000000123EF08F001018B6B8B510A0823E3E9
:10101000036A8BC102F0D890023603360250B10F3A
:10102000E96E000E0320EA6EECCF8EF1ED52EFCFA9
:101030008DF18EC190F18DC18FF18AC192F189C17C
:1010400091F10001A3D701C08CF101018C5301E1A2
:1010500002D08B2BDAD75251410824E15351530867
:1010600021E1545141081EE155514A081BE15651F6
:10107000450818E15751520815E158514F0812E13F
:10108000595153080FE1050E8B6F090E936F020E35
:10109000946F000121EC04F0DA0EF66E030EF76E89
:1010A000BBDC01018BC101F00001FBEF16F0010177
:1010B0009051016A8F5D03E28FC100F00CD0006A8D
:1010C000080E916F8F3700369051005CD8B0006EDB
:1010D0000136912FF7D700011200200E01018AA9D5
:1010E000300E8B6F89C100F089AF08D0001E002A36
:1010F00000C089F12D0E8B6F8A8F8A81015089C1C2
:101100008FF1640E906F0001D2DF00C089F1300EC4
:10111000012401018C6F89C18FF10A0E906F0001CB
:10112000C6DF300E002401018E6F300E01248D6F5A
:101130008BC100F0300E8C5D04E08A838ABF8A8503
:1011400012D08BC18CF1200E8B6F300E8D5D04E0C0
:101150008A818ABF8A8307D0D8A48A8104E18CC19E
:101160008DF1200E8C6F8AB505D08AB308D08AB174
:101170000BD00FD08BC192F100014AEC04F08CC16E
:1011800092F100014AEC04F08DC192F100014AECA9
:1011900004F08EC192F100014AEC04F01200F00E4E
:1011A000F66E020EF76E34DEAA6BA96B010E466E68
:1011B0004F6A4E6A1200F2CF03F0F29E94908B9029
:1011C000080E016E00D00000018E10D0019E0101BA
:1011D00092330001D8B08B80D8A08B90018C06D0C0
:1011E000019C012EF4D700D000008B80A70EE96E81
:1011F000E92EFED700D001BEE9D701BCF1D703BE6E
:10120000F28E12000900F5520CE0F6CF89F1F7CF0B
:101210008AF1F5CF92F1CFDF89C1F6FF8AC1F7FFDE
:10122000F1D737EF17F08C518A2501018B6F000140
:101230008D518B2101018C6FD8908C318A6F8B314D
:10124000896F5350522454244C6E4D6A010E000194
:10125000AB6FAC6B090E0101936F030E946F00012D
:1012600021EC04F0AB0E0101926F00014AEC04F096
:10127000FC0EF66E020EF76ECBDD1200016603D097
:10128000026602D007D0022A00C0EEFF012EFCD772
:10129000022EFAD712009D9A396A386A3B6A3A6A76
:1012A0002F6A2E6A316A306A976B966B336A326A9C
:1012B000916B906B010EEA6E6E0EE96E006A026A27
:1012C000040E016EDBDF010EEA6E720EE96E006A3B
:1012D000026A040E016ED2DF010EEA6E760EE96E2E
:1012E000006A026A030E016EC9DF010EEA6E760E15
:1012F000E96E006A026A040E016EC0DF0A0E416EDA
:10130000426A426A425003081EE3036A42506E0F6B
:10131000016E010E032201C089F1010103C08AF1AF
:101320000A0E4224036A510FE96E010E0320EA6E91
:10133000EFCF8BF18AC1EAFF01C0E9FF8BC1EFFF5C
:10134000422A0001DFD7426A425003081EE3036AC3
:101350004250720F016E010E032201C089F101019A
:1013600003C08AF10F0E4224036A510FE96E010E89
:101370000320EA6EEFCF8BF18AC1EAFF01C0E9FFDB
:101380008BC1EFFF422A0001DFD7426A42500208B8
:101390001EE3036A4250760F016E010E032201C064
:1013A00089F1010103C08AF1140E4224036A510F2E
:1013B000E96E010E0320EA6EEFCF8BF18AC1EAFFDE
:1013C00001C0E9FF8BC1EFFF422A0001DFD7426A6B
:1013D000425003081EE3036A4250830F016E010E60
:1013E000032201C089F1010103C08AF1180E4224D1
:1013F000036A510FE96E010E0320EA6EEFCF8BF105
:101400008AC1EAFF01C0E9FF8BC1EFFF422A000158
:10141000DFD758EF17F00900F6CF8AF1F7CF8BF13D
:10142000F5CF92F1C8DE8AC1F6FF8BC1F7FF01014B
:10143000892F01D002D00001EED700011200EACFBF
:1014400091F1E9CF90F101018A39F0098C6F8C2775
:10145000E20F8D6F320F8F6F8A510F0B8D278D2703
:101460008F27E90F8E6F8E278E2789390F0B8E27D6
:101470008F278E378F378F1F8F3789510F0B8F270D
:101480008C37070E8B6F0A0E8E078F27FDE38D07B3
:101490008E27FDE38C078D27FDE38B078C27FDE36B
:1014A000010EEA6E8B0EE96E070E9015909DE926EF
:1014B000000EEA22E9508F0803E1EA2C01D0908D5A
:1014C000EF50006E08E190BD06D090B915D090B7EE
:1014D00002D0200E03D090879099300E0026EACFDC
:1014E0008AF1E9CF89F100C092F1000164DE8AC17E
:1014F000EAFF89C1E9FF0101EE5090ADDBD70001A1
:101500001200015089C18FF1640E0101906F00013A
:10151000CEDD00C089F10150300E08E101018AA33F
:101520000FD08AB70DD08AB9200E04D001018A9756
:101530008A998A81012601C092F100013CDE0101F5
:1015400089C18FF10A0E906F0001B1DD00C089F1F1
:101550000150300E08E101018AB70AD08AA108D0F3
:101560008AB9200E0001012601C092F124DE01019A
:10157000300E892789C192F100011DDE12009D9A6B
:101580005350522454244C6E4D6A010EEA6E6E0E76
:10159000E96E006A026A040E016E70DE010EEA6EE8
:1015A000720EE96E006A026A040E016E67DE010EB9
:1015B000EA6E760EE96E006A026A030E016E5EDE66
:1015C0000A0E416E426A8C518A250101896F000121
:1015D0008D518B2101018A6FD8908A31396E893102
:1015E000386E0001F8EC03F03C503824906F3D5009
:1015F0003920916F010E236E360EF66E030EF76ED4
:10160000070E0101896F000106DF090EE96E91C026
:101610008AF190C089F113DF2C0E0101926F000155
:10162000CADD090EE96E39C08AF138C089F107DFD9
:10163000480EF66E030EF76E060E0101896F00016B
:10164000EADE0A0EE96E4DC08AF14CC089F1F7DE80
:10165000530EF66E030EF76E050E0101896F000141
:10166000DADE23C089F1010E01018A6F000149DF32
:101670005C0EF66E030EF76E030E0101896F00011A
:10168000CADE090E0101936F030E946F000121EC75
:1016900004F0AB0E0101926F00014AEC04F0090E58
:1016A0000101936F040E946F000121EC04F0600EB1
:1016B000F66E030EF76E0CEC05F0010EAB6FAC6B23
:1016C000AA6BA96B466A9D8A07EF18F001018B6B24
:1016D0008951300804E18A5302E18B6B47D089516C
:1016E000310805E18A5303E1010E8B6F3FD0895128
:1016F000320805E18A5303E1020E8B6F37D089511E
:10170000330805E18A5303E1030E8B6F2FD0895113
:10171000340805E18A5303E1040E8B6F27D0895109
:10172000350805E18A5303E1050E8B6F1FD08951FF
:10173000360805E18A5303E1060E8B6F17D08951F5
:10174000370805E18A5303E1070E8B6F0FD08951EB
:10175000380805E18A5303E1080E8B6F07D08951E1
:10176000390804E18A5302E1090E8B6F8BC101F045
:101770000001120001018A6B83C189F10001A6DF1B
:10178000015210E0416A01018A6B83C189F10001B5
:101790009DDF0150415C06E2E80E3226030E332243
:1017A000412AF1D701018A6B84C189F100018EDFE2
:1017B000015210E0416A01018A6B84C189F1000184
:1017C00085DF0150415C06E2640E3226000E3322B2
:1017D000412AF1D701018A6B85C189F1000176DFC9
:1017E000015210E0416A01018A6B85C189F1000153
:1017F0006DDF0150415C06E20A0E3226000E3322F4
:10180000412AF1D701018A6B86C189F100015EDFAF
:1018100001503226000E332201018A6B6EC189F11C
:10182000000154DF015210E0416A01018A6B6EC170
:1018300089F100014BDF0150415C06E2E80E2E26E3
:10184000030E2F22412AF1D701018A6B6FC189F162
:1018500000013CDF015210E0416A01018A6B6FC157
:1018600089F1000133DF0150415C06E2640E2E264F
:10187000000E2F22412AF1D701018A6B70C189F134
:10188000000124DF015210E0416A01018A6B70C13E
:1018900089F100011BDF0150415C06E20A0E2E2691
:1018A000000E2F22412AF1D701018A6B71C189F103
:1018B00000010CDF01502E26000E2F222FC035F024
:1018C0002EC034F001018A6B72C189F10001FEDE85
:1018D000015210E0416A01018A6B72C189F1000175
:1018E000F5DE0150415C06E2E80E3026030E31229F
:1018F000412AF1D701018A6B73C189F10001E6DE4B
:10190000015210E0416A01018A6B73C189F1000143
:10191000DDDE0150415C06E2640E3026000E31220D
:10192000412AF1D701018A6B74C189F10001CEDE31
:10193000015210E0416A01018A6B74C189F1000112
:10194000C5DE0150415C06E20A0E3026000E31224F
:10195000412AF1D701018A6B75C189F10001B6DE18
:1019600001503026000E312231C037F030C036F041
:1019700001018A6B76C189F10001A8DE015210E0F5
:10198000416A01018A6B76C189F100019FDE015035
:10199000415C06E2640E9627000E9723412AF1D798
:1019A00001018A6B77C189F1000190DE015210E0DC
:1019B000416A01018A6B77C189F1000187DE01501C
:1019C000415C06E20A0E9627000E9723412AF1D7C2
:1019D00001018A6B78C189F1000178DE01509627F8
:1019E000000E97238C518A250101896F00018D51CA
:1019F0008B2101018A6FD8908A31396E8931386E16
:101A000030502E24896F31502F208A6FD8908A3120
:101A1000516E8931506E0001F8EC03F03250505C89
:101A20000FE13350515C0CE151C03BF050C03AF033
:101A30003BC03DF03AC03CF047EC03F0236A02D0D3
:101A4000020E236E3A503824906F3B503920916F2C
:101A50005350522454244C6E4D6A080EF66E030EF9
:101A6000F76E070E0101896F0001D5DC090EE96EE2
:101A700091C08AF190C089F1E2DC2C0E0101926FD5
:101A80000001DBEC08F0090EE96E39C08AF138C0BC
:101A900089F1D5DC2C0E0101926F0001DBEC08F01E
:101AA000090EE96E3BC08AF13AC089F1C8DC2C0E00
:101AB0000101926F0001DBEC08F00A0EE96E4DC0E7
:101AC0008AF14CC089F1BBDC2C0E0101926F000140
:101AD000DBEC08F00A0EE96E97C08AF196C089F136
:101AE000AEDC2C0E0101926F0001DBEC08F023C08C
:101AF00089F1010E01018A6F000103DD310EF66EDE
:101B0000030EF76E030E0101896F000184DC1CECEB
:101B100005F0090E0101936F030E946F000121EC93
:101B200004F0AB0E0101926F00014AEC04F0010ECB
:101B3000AB6FAC6BAA6BA96B246A9D8A0CEF18F093
:101B40005B5222E15C5220E1692D03D06B2D01D064
:101B500009D0692D03D06D2D01D004D06B2D04D098
:101B60006D2D02D0010E5B6E6A2D03D06C2D01D05D
:101B700009D06A2D03D06E2D01D004D06C2D04D075
:101B80006E2D02D0010E5C6E1200755322E1692D9C
:101B900020D06A531EE177531CE178531AE15B525F
:101BA00003E15C52D8B4CCDF080E0101936F020E42
:101BB000946F000121EC04F07F0E0101926F00018F
:101BC0004AEC04F0010E986F766F776F796F756F3E
:101BD0001ED175530EE1692D0CD06A2D0AD0772DD8
:101BE00008D0785306E1030E766F796B010E756F9E
:101BF0000ED175530DE169530BE16A2D09D0772D94
:101C000007D0785305E1040E766F010E756FFFD093
:101C100075532AE1695328E16A5326E1795324E197
:101C2000772D22D0785320E1080E0101936F020E28
:101C3000946F000121EC04F0680EF66E030EF76E4F
:101C40000CEC05F0986B7B51040806E1050E766FED
:101C5000776B010E756F07D0986B060E766F776BFA
:101C6000796B010E756FD3D0755320E169531EE176
:101C70006A531CE1792D1AD0772D18D0785316E1CC
:101C8000080E0101936F020E946F000121EC04F025
:101C90006A0EF66E030EF76E0CEC05F0986B060EEE
:101CA000766F776B796B010E756FB1D075530EE15E
:101CB000692D0CD06A530AE1772D08D0785306E1DC
:101CC000020E766F010E796F756FA1D0755323E107
:101CD000695321E16A2D1FD077531DE178531BE131
:101CE0005B5203E15C52D8B42BDF080E0101936F05
:101CF000020E946F000121EC04F07E0E0101926F40
:101D000000014AEC04F0010E986F070E766F010E89
:101D1000786F756F7CD075530EE169530CE16A2DB5
:101D20000AD0775308E1782D06D0080E766F010EA1
:101D3000796F756F6CD075530EE1692D0CD06A2DDB
:101D40000AD0775308E1782D06D0090E766F796BAB
:101D5000010E756F5CD075530DE1692D0BD06A5380
:101D600009E1775307E1782D05D00A0E766F010E51
:101D7000756F4DD075532AE1695328E16A5326E106
:101D8000795324E1775322E1782D20D0080E010108
:101D9000936F020E946F000121EC04F06C0EF66E4E
:101DA000030EF76E0CEC05F07B510A0807E1986B07
:101DB0000B0E766F786B010E756F07D0986B0C0E5B
:101DC000766F786B796B010E756F21D075531FE1BB
:101DD00069531DE16A531BE1792D19D0775317E13F
:101DE000782D15D0080E0101936F020E946F00013B
:101DF00021EC04F06E0EF66E030EF76E0CEC05F09F
:101E0000986B0C0E766F786B796B010E756F120004
:101E1000695335E16A5333E16B5331E16C532FE180
:101E20006D532DE16E532BE1295028242A24256E71
:101E30002C502B242D24266E2550010803E3265018
:101E400001080EE22550265C06E28A2BD8B48B2BC3
:101E500042EC06F005D08C2BD8B48D2B5DEC06F04F
:101E60002A6A2AC029F029C028F028C025F02D6A46
:101E70002DC02CF02CC02BF02BC026F07FD09E5311
:101E800005E19F5303E1A053D8B478D09F519E251C
:101E9000A025276E272C48D09E5316E06B5313E1E4
:101EA0006C5311E16D530FE16E530DE15B2C06D0C5
:101EB0008A2BD8B48B2B42EC06F005D08C2BD8B4EF
:101EC0008D2B5DEC06F02FD09F5316E0695313E184
:101ED0006A5311E16D530FE16E530DE15B5206E061
:101EE0008A2BD8B48B2B42EC06F005D08C2BD8B4BF
:101EF0008D2B5DEC06F017D0A05315E06B5313E16A
:101F00006C5311E169530FE16A530DE15B5206E036
:101F10008A2BD8B48B2B42EC06F005D08C2BD8B48E
:101F20008D2B5DEC06F01CD0295028242A24256E28
:101F30002C502B242D24266E2550000803E3265018
:101F400000080EE22550265C06E28A2BD8B48B2BC3
:101F500042EC06F005D08C2BD8B48D2B5DEC06F04E
:101F60002A6A2AC029F029C028F028C025F02D6A45
:101F70002DC02CF02CC02BF02BC026F01200765177
:101F80007B5D04E076C07BF0010E7A6F7A2D1ED067
:101F9000010E765DF40F18E20C0FE7EF0FF014D08E
:101FA0002B5203E1010E286E01D02B6A31DF0CD0D9
:101FB0002FDF0AD009D0285203E1010E2B6E01D089
:101FC000286A26DF01D024DF7A6B756B1200E824C3
:101FD000F76AF736E90FF66E1F0EF7220A00F55082
:101FE000FA6E0800F550F96E9E1FC81FC81FC81F63
:101FF000A01FB01FB41FC81FC81FC81FB61FC61F11
:102000007C5322E16B2D20D06C531EE17E531CE1EA
:102010007F531AE15B5203E15C52D8B491DD080EA4
:102020000101936F030E946F000121EC04F07F0E09
:102030000101926F00014AEC04F0010E996F7D6F6F
:102040007E6F806F7C6F1ED17C530EE16B2D0CD0A8
:102050006C2D0AD07E2D08D07F5306E1030E7D6FD4
:10206000806B010E7C6F0ED17C530DE16B530BE145
:102070006C2D09D07E2D07D07F5305E1040E7D6FB6
:10208000010E7C6FFFD07C532AE16B5328E16C5327
:1020900026E1805324E17E2D22D07F5320E1080EDB
:1020A0000101936F030E946F000121EC04F0700E98
:1020B000F66E030EF76E0CEC05F08251040807E192
:1020C000996B050E7D6F7E6B010E7C6F07D0996B4F
:1020D000060E7D6F7E6B806B010E7C6FD3D07C53C0
:1020E00020E16B531EE16C531CE1802D1AD07E2D34
:1020F00018D07F5316E1080E0101936F030E946F01
:10210000000121EC04F0720EF66E030EF76E0CEC7B
:1021100005F0996B060E7D6F7E6B806B010E7C6FF8
:10212000B1D07C530EE16B2D0CD06C530AE17E2DA7
:1021300008D07F5306E1020E7D6F010E806F7C6F29
:10214000A1D07C5323E16B5321E16C2D1FD07E5332
:102150001DE17F531BE15B5203E15C52D8B4F0DC1C
:10216000080E0101936F030E946F000121EC04F03F
:102170007E0E0101926F00014AEC04F0010E996F8E
:10218000070E7D6F010E7F6F7C6F7CD07C530EE15C
:102190006B530CE16C2D0AD07E5308E17F2D06D0E5
:1021A000080E7D6F010E806F7C6F6CD07C530EE14A
:1021B0006B2D0CD06C2D0AD07E5308E17F2D06D0FC
:1021C000090E7D6F806B010E7C6F5CD07C530DE13E
:1021D0006B2D0BD06C5309E17E5307E17F2D05D0A9
:1021E0000A0E7D6F010E7C6F4DD07C532AE16B533C
:1021F00028E16C5326E1805324E17E5322E17F2DB8
:1022000020D0080E0101936F030E946F000121ECA2
:1022100004F0740EF66E030EF76E0CEC05F08251AE
:102220000A0807E1996B0B0E7D6F7F6B010E7C6FC7
:1022300007D0996B0C0E7D6F7F6B806B010E7C6FEE
:1022400021D07C531FE16B531DE16C531BE1802DAA
:1022500019D07E5317E17F2D15D0080E0101936F21
:10226000030E946F000121EC04F0760EF66E030E5F
:10227000F76E0CEC05F0996B0C0E7D6F7F6B806B2D
:10228000010E7C6F12007D51825D04E07DC082F002
:10229000010E816F812D1ED0010E7D5DF40F18E2BD
:1022A0000C0F6BEF11F014D02C5203E1010E296ECC
:1022B00001D02C6AADDD0CD0ABDD0AD009D029529B
:1022C00003E1010E2C6E01D0296AA2DD01D0A0DD50
:1022D000816B7C6B1200E824F76AF736F10FF66E1B
:1022E000220EF7220A00F550FA6E0800F550F96E3A
:1022F000A622D022D022D022A822B822BC22D022CC
:10230000D022D022BE22CE22835322E16D2D20D0B6
:102310006E531EE185531CE186531AE15B5203E1C3
:102320005C52D8B40DDC080E0101936F040E946F5B
:10233000000121EC04F07F0E0101926F00014AECD4
:1023400004F0010E9A6F846F856F876F836F1FD1C2
:1023500083530EE16D2D0CD06E2D0AD0852D08D043
:10236000865306E1030E846F876B010E836F0FD1D6
:1023700083530DE16D530BE16E2D09D0852D07D0F0
:10238000865305E1040E846F010E836F00D18353E1
:102390002AE16D5328E16E5326E1875324E1852D10
:1023A00022D0865320E1080E0101936F040E946F32
:1023B000000121EC04F0780EF66E030EF76E0CECC3
:1023C00005F08951040807E19A6B050E846F856B4F
:1023D000010E836F07D09A6B060E846F856B876B37
:1023E000010E836FD4D0835320E16D531EE16E53F1
:1023F0001CE1872D1AD0852D18D0865316E1080EC2
:102400000101936F040E946F000121EC04F07A0E29
:10241000F66E030EF76E0CEC05F09A6B060E846FE9
:10242000856B876B010E836FB2D083530EE16D2DE8
:102430000CD06E530AE1852D08D0865306E1020EBA
:10244000846F010E876F836FA2D0835324E16D5395
:1024500022E16E2D20D085531EE186531CE15B5294
:1024600004E15C52D8B4A0EC0DF0080E0101936FAA
:10247000040E946F000121EC04F07E0E0101926FB6
:1024800000014AEC04F0010E9A6F070E846F010EF2
:10249000866F836F7CD083530EE16D530CE16E2DFC
:1024A0000AD0855308E1862D06D0080E846F010EF0
:1024B000876F836F6CD083530EE16D2D0CD06E2D22
:1024C0000AD0855308E1862D06D0090E846F876BEC
:1024D000010E836F5CD083530DE16D2D0BD06E53D5
:1024E00009E1855307E1862D05D00A0E846F010EA0
:1024F000836F4DD083532AE16D5328E16E5326E15B
:10250000875324E1855322E1862D20D0080E010156
:10251000936F040E946F000121EC04F07C0EF66EB4
:10252000030EF76E0CEC05F089510A0807E19A6B6F
:102530000B0E846F866B010E836F07D09A6B0C0EA7
:10254000846F866B876B010E836F21D083531FE1ED
:102550006D531DE16E531BE1872D19D0855317E193
:10256000862D15D0080E0101936F040E946F0001A3
:1025700021EC04F07E0EF66E030EF76E0CEC05F007
:102580009A6B0C0E846F866B876B010E836F120043
:102590008451895D04E084C089F0010E886F882D24
:1025A0001ED0010E845DF40F18E20C0FF0EF12F054
:1025B00014D02D5203E1010E2A6E01D02D6A28DCC1
:1025C0000CD026DC0AD009D02A5203E1010E2D6E70
:1025D00001D02A6A1DDC01D01BDC886B836B1200E2
:1025E000E824F76AF736FB0FF66E250EF7220A008D
:1025F000F550FA6E0800F550F96EB025DA25DA25A7
:10260000DA25B225C225C625DA25DA25DA25C82538
:10261000D8259388556A81B8552A552C0CD05E6A06
:102620005D6A696B9B6BA26BA16B9E5303E09496F2
:102630008B969E6B2DD05E5203E15D50040802E242
:10264000010E696F69516F5D23E069C06FF0010E83
:102650007A6F050E0101936F020E946F000121EC59
:1026600004F0310E0101926F00014AEC04F03A0EC1
:102670000101926F00014AEC04F06FC089F1180E5D
:1026800001018A6F00016DEC08F0C5EC0DF077DCFC
:102690009588566A83B8562A562C0ED094988B8803
:1026A000606B5F6A6A6B9B6BA26BA16B9E5303E0CE
:1026B00094968B969E6B34D094988B98605303E1DC
:1026C0005F50040802E2010E6A6F6A51705D28E0F3
:1026D0006AC070F0010E7A6F0101936F020E946F61
:1026E000000121EC04F0320E0101926F00014AEC6E
:1026F00004F03A0E0101926F00014AEC04F070C040
:1027000089F1180E01018A6F00016DEC08F0200EAE
:102710000101926F00014AEC04F0C5EC0DF02FDCD2
:102720009384576A81B4572A572C0CD0626B616B23
:102730006B6B9C6BA46BA36B9F5303E094968B967F
:102740009F6B2CD0625303E16151040802E2010E39
:102750006B6F6B51715D22E06BC071F0010E816F88
:10276000050E0101936F030E946F000121EC04F03C
:10277000330E0101926F00014AEC04F03A0E0101A0
:10278000926F00014AEC04F071C089F1180E01014A
:102790008A6F00016DEC08F033DC75DD9386586AB2
:1027A00081B6582A582C0ED094988B88646B636B32
:1027B0006C6B9C6BA46BA36B9F5303E094968B96FE
:1027C0009F6B34D094988B98645303E16351040851
:1027D00002E2010E6C6F6C51725D28E06CC072F009
:1027E000010E816F0101936F030E946F000121ECC4
:1027F00004F0340E0101926F00014AEC04F03A0E2D
:102800000101926F00014AEC04F072C089F1180EC8
:1028100001018A6F00016DEC08F0200E0101926F3A
:1028200000014AEC04F000EC10F02DDD9380596AB1
:1028300081B0592A592C0CD0666B656B6D6B9D6B02
:10284000A66BA56BA05303E094968B96A06B2CD03F
:10285000665303E16551040802E2010E6D6F6D518C
:10286000735D22E06DC073F0010E886F050E0101EB
:10287000936F040E946F000121EC04F0350E0101FA
:10288000926F00014AEC04F03A0E0101926F0001D0
:102890004AEC04F073C089F1180E01018A6F00013F
:1028A0006DEC08F031DD74DE93825A6A81B25A2AE7
:1028B0005A2C0ED094988B88686B676B6E6B9D6BEF
:1028C000A66BA56BA05303E094968B96A06B33D0B8
:1028D00094988B98685303E16751040802E2010E53
:1028E0006E6F6E51745D27E06EC074F0010E886FDC
:1028F0000101936F040E946F000121EC04F0360E79
:102900000101926F00014AEC04F03A0E0101926F4E
:1029100000014AEC04F074C089F1180E01018A6FBD
:1029200000016DEC08F0200E0101926F00014AECED
:1029300004F0EADC2DDE692D08D06A2D06D09B5309
:1029400004E1010E9B6FA26BA16B6B2D08D06C2D67
:1029500006D09C5304E1010E9C6FA46BA36B6D2DFC
:1029600008D06E2D06D09D5304E1010E9D6FA66B1D
:10297000A56BD7EF18F0F86AD09E078EFE0E006E9A
:10298000060E016E020EE96E000EEA6EEE6A002E71
:10299000FDD7012EFBD71F6AB886080EAF6E020E58
:1029A000B06EA60EAC6E900EAB6E206A94908B80CB
:1029B000436A456A526A536A546A556A566A576A44
:1029C000586A596A5A6A5B6A5C6A5E6A5D6A606BD9
:1029D0005F6A626B616B646B636B666B656B686B84
:1029E000676B756B766B776B786B796B7A6B7B6BE0
:1029F0007C6B7D6B7E6B7F6B806B816B826B836B83
:102A0000846B856B866B876B886B896B8B6B8A6B32
:102A10008D6B8C6B8F6B8E6B916B906B936B926BE2
:102A2000956B946B986B996B9A6BAD6BAE6BB06B4F
:102A3000AF6BC150C00B0F09C16E070EB46E55D0FD
:102A400002001900000500C756352E303105C020A0
:102A50006E800D00424F525241525F414C4C0D006E
:102A60004752414241525F4441540D004C4545524A
:102A70004355454E54410D00534F4C494349544131
:102A8000444F0D00504153414A45524F533A0D00B7
:102A900053455249414C544553540D0053455249F6
:102AA000414C5F544F4B0D0053554249454E444FE6
:102AB00043320D0053494E46554E43494F4E0D008B
:102AC0000AC02002800D001600B1C700D300DF004D
:102AD000EB00F70003010F011B01270133013F0148
:102AE00006014B56352E30320000000EF86E2A0ECD
:102AF000F76E400EF66E0900F550006E000A13E006
:102B00000900F550016EE8BE05D00F0BEA6E090012
:102B1000F5CFE9FF01BC090001AC0900F5CFEEFFDC
:102B2000004EE9D7F9D7F86AC150C00B0F09C16E42
:102B3000C2904BEF02F085EF02F0B50ECD6E9D8096
:102B4000E70ECF6E960ECE6EF298C00EF2129494EF
:102B50008B9494948B940C0EBD6E000E0409CA6E77
:102B6000830ECB6E450EBE6EBD50CF0B3009BD6ED1
:102B7000F2CF89F1F29E640EA96EA69CA69EA68055
:102B8000A850010189BFF28E406E402C01D019D0AF
:102B9000F250006EF29E640EA96E010EA86EA69C05
:102BA000A69EA6840F01550EA76EAA0EA76EA6823A
:102BB000A6B2FED7A6940050F212000178EC06F0FF
:102BC00001010001AEEF06F0DBEF06F05A6A5AC0D1
:102BD00059F059C058F058C057F057C056F056C079
:102BE00055F0A66BA56BA6C0A4F0A5C0A3F0A4C029
:102BF000A2F0A3C0A1F0A06BA0C09FF09FC09EF068
:102C0000AA6BA96B958483A405D0010E456E1D0E99
:102C1000226E03D0456A0F0E226E1CEC05F00101F6
:102C20008E6B090E8D6F0001A4EC03F001C052F011
:102C300001018E6B0A0E8D6F0001A4EC03F001C040
:102C400053F001018E6B0B0E8D6F0001A4EC03F0AD
:102C500001C054F095860101876B83B6872B436AC8
:102C6000466A3D6A3C6A9D8AD1800001686B676B49
:102C700068C066F067C065F066C064F065C063F068
:102C800064C062F063C061F062C060F061C05FF078
:102C900060C05EF05FC05DF0956B946B95C093F083
:102CA00094C092F0236A19EF07F0246A94988B98E5
:102CB000376A366A37C035F036C034F0AB6B969061
:102CC0008D90010EAE6FAD2D03D0C00EF212AD6B24
:102CD0009586000E83B6010E0101875D24E0320E59
:102CE000936F0001EFEC01F09586000E83B6010EA4
:102CF0000101875D18E09586876B83B6872B452C8D
:102D000012D0875310E16E0EF66E020EF76E0001C0
:102D100008EC07F07A0EF66E020EF76E0CEC05F07A
:102D200078EC06F00101968284A258D00001AE2D05
:102D300001D002D0010152D096908D80B06BAF6B64
:102D4000AE6B949A8B8A000E82A2010E010805E1F7
:102D5000B05303E1AF51C70803E2010EAE6FF3D7E2
:102D600035EF07F001C051F1010151513F0836E143
:102D7000949A8B9A010E436E0001686B676B68C072
:102D800066F067C065F066C064F065C063F064C05B
:102D900062F063C061F062C060F061C05FF060C06B
:102DA0005EF05FC05DF0420E0101516F4F0E526F39
:102DB000520E536F546F410E556F520E566F5F0E89
:102DC000576F410E586F4C0E596F5A6F0A0E5B6F5A
:102DD00096908D90010E0001AE6F0101432CCFD073
:102DE000000171EF07F0010E01018A6F510E896F2A
:102DF000000103EF08F001C088F1090E0101936F93
:102E0000010E946F000121EC04F088C189F1180EC5
:102E100001018A6F00016DEC08F0200E0101926F34
:102E200000014AEC04F0010E0101885DF80FD8B0F2
:102E300095D0080F0001DAEF18F078EC06F0452C79
:102E400006D0860EF66E020EF76E08EC07F0010152
:102E500085D00001CFEC08F0010180D00001452CA5
:102E600006D0920EF66E020EF76E02EF09F0040E17
:102E70000101896FFA0E936F0001EFEC01F001017F
:102E8000892FF8D7000178EC06F0452C06D09E0E6D
:102E9000F66E020EF76E08EC07F001015FD000013C
:102EA00013EC09F001015AD00001466A4BEF09F01A
:102EB000010E246E090E0101936F040E946F000140
:102EC00021EC04F0AA0EF66E020EF76E0CEC05F083
:102ED000010144D00001010EAB6FAC6B090E010182
:102EE000936F030E946F000121EC04F0B00EF66EA8
:102EF000020EF76E0CEC05F0B60EF66E020EF76ED3
:102F000008EC07F001012AD00001010EAB6FAC6B99
:102F1000090E0101936F040E946F000121EC04F07F
:102F2000C20EF66E020EF76E0CEC05F0010116D023
:102F30000001010EAB6FAC6B090E0101936F040E23
:102F4000946F000121EC04F0C80EF66E020EF76ECD
:102F50000CEC05F0010102D000010101010EEA6E46
:102F6000510EE96E006A026A1D0E016E00013EEC10
:102F700009F03F6A3E6A010E476E436A0101000193
:102F8000AA5303E1A951090804E2455202E0CFEC3B
:102F900008F0AB532EE0AC5109082BE2AB6B090EE5
:102FA0000101936F010E946F000121EC04F0CE0E2D
:102FB000F66E020EF76E0CEC05F0090E0101936F30
:102FC000030E946F000121EC04F0D40EF66E020E95
:102FD000F76E0CEC05F0090E0101936F040E946F6F
:102FE000000121EC04F0DA0EF66E020EF76E0CEC26
:102FF00005F046520CE04F50060809E2FF0A03E1D3
:103000004E50CF0804E24552D8A4BFEF0AF0245234
:10301000D8B402D0BAEF0BF09B5336E0A2510008AF
:1030200033E2FF0A03E1A151F3082EE29E532CE1A3
:103030009B6B9E5327E19F5325E1A05323E10A0E8A
:103040000101936F010E946F000121EC04F0E00E7A
:10305000F66E020EF76E0CEC05F0522A01018E6B33
:10306000090E8D6F52C08FF10001C4EC02F0452CA7
:1030700005D0435203E1CFEC08F004D04352D8B45A
:1030800013EC09F0010E9E6F9C5336E0A45100082A
:1030900033E2FF0A03E1A351F3082EE29F532CE130
:1030A0009C6B9E5327E19F5325E1A05323E10A0E19
:1030B0000101936F010E946F000121EC04F0E40E06
:1030C000F66E020EF76E0CEC05F0532A01018E6BC2
:1030D0000A0E8D6F53C08FF10001C4EC02F0452C35
:1030E00005D0435203E1CFEC08F004D04352D8B4EA
:1030F00013EC09F0010E9F6F9D5336E0A6510008B6
:1031000033E2FF0A03E1A551F3082EE2A0532CE1BC
:103110009D6B9E5327E19F5325E1A05323E10A0EA7
:103120000101936F010E946F000121EC04F0E80E91
:10313000F66E020EF76E0CEC05F0542A01018E6B50
:103140000B0E8D6F54C08FF10001C4EC02F0452CC2
:1031500005D0435203E1CFEC08F004D04352D8B479
:1031600013EC09F0010EA06F9D5312E19C5310E186
:103170009B530EE10A0E0101936F010E946F000143
:1031800021EC04F0EC0EF66E020EF76E0CEC05F07E
:103190003F5002080AE2FF0A03E13E50830805E2BD
:1031A000475203E01CEC05F0476A09EF13F00400F6
:1031B0008AD50300E824F76AF736CF0FF66E310E92
:1031C000F7220A00F550FA6E0800F550F96E3A2E13
:0E31D000542E5E2EA02EAA2ED62E0A2F322F9F
:020000040030CA
:0E00000000C21E180086910000800FE00F4025
:00000001FF
;PIC18F4580
;CRC=5DA3  CREATED="05-may.-22 10:04"
