:0400000026EF17F0E0
:08000800046ED8CF05F0E0CF33
:1000100006F00001E9CF0CF0EACF07F0E1CF08F0DD
:10002000E2CF09F0D9CF0AF0DACF0BF0F3CF12F01C
:10003000F4CF13F0FACF14F0F5CF15F0F6CF16F099
:10004000F7CF17F000C00EF001C00FF002C010F0A3
:1000500003C011F09DAA30EF00F09EBA0AEF01F044
:100060009DA036EF00F09EB077EF00F0A0A23CEF2D
:1000700000F0A1B2D1EF00F00EC000F00FC001F00F
:1000800010C002F011C003F00CC0E9FF07C0EAFF86
:10009000078E08C0E1FF09C0E2FF0AC0D9FF0BC00C
:1000A000DAFF12C0F3FF13C0F4FF14C0FAFF15C04B
:1000B000F5FF16C0F6FF17C0F7FF045006C0E0FFBB
:1000C00005C0D8FF1000F76AD60FF66E000EF722B3
:1000D0000900F5501200280C0106F76AEA0FF66EC7
:1000E000000EF7220900F55012003A2F00003E2AB8
:1000F000D8B43F2AA72BD8B4A82BA85303E1A75103
:10010000630806E2A86BA76BA92BD8B4AA2BAC2B6B
:100110009388556A81B8552A555203E15D2AD8B4AF
:100120005E2A9588566A83B8562A565203E15F2A9A
:10013000D8B4602B9384576A81B4572A575203E18D
:10014000612BD8B4622B9386586A81B6582A5852CC
:1001500003E1632BD8B4642B9380596A81B0592A88
:10016000595203E1652BD8B4662B93825A6A81B247
:100170005A2A5A5203E1672BD8B4682BA12BD8B462
:10018000A22BA32BD8B4A42BA52BD8B4A62B4E2AD4
:10019000D8B44F2AE70ECF6E960ECE6E9E903CEFEF
:1001A00000F0AF2BD8B4B02BFE0EB36E0C0EB26EB7
:1001B000A1923CEF00F0030E0101E55F0AE3010E9E
:1001C000EA6EE50EE96EEF5004E001D000D0EF2EAC
:1001D000FDD70001F5EF00F0200E0101E36F020EE4
:1001E000E46F9B0EE56F0001E6D70101E42FF9D71C
:1001F000E32F03D01F6A016A0AD09EAAF0D7AB5042
:100200001F6EAE50016E1FA202D0AB98AB880001EA
:100210001EEF01F0F29CF29EF2BEFDD7416A415002
:100220001E081FE3036A41508D0FE96E010E032083
:10023000EA6EEACFE2F1E9CFE1F1CED7E2C1EAFF1F
:10024000E1C1E9FF01C0EFFF412A036A41508D0F70
:10025000E96E010E0320EA6EEF500D08D8B401D00C
:10026000DED7010E436EAD6F9E9A3CEF00F0424F19
:10027000525241525F414C4C0D000C424F52524180
:10028000525F414C4C00424F525241525F414C4CE4
:100290000D0052455345545F4F4B0D0A0000424F2D
:1002A000525241525F414C4C0D0043324F4B0000C3
:1002B00043314F4B000053455249414C5F544F4B23
:1002C0000D0043324F4B0000537562320000633D16
:1002D00030002020202000002020202000002020AE
:1002E00020200000424C0000424C0000424C000024
:1002F00020200000534F4C4943495441444F0D00C6
:10030000504153414A45524F533A0D0053323A251A
:100310004C64200042323A254C6420004143432B78
:1003200030313A2530344C752C2530344C752C2521
:1003300030344C752C2530334C752C2530334C75AE
:100340002C253032752C0D0A00004143432B3031EF
:100350003A2530344C752C2530344C752C4445539B
:10036000432C2530334C752C3030302C25303275F1
:100370002C0D0A004445534300000C0020002000CF
:10038000200020002000200020002000200020006D
:10039000200020006D656D6F72793A25730D0000A5
:1003A00053313A254C64200042313A254C642000F8
:1003B00053323A254C64200042323A254C642000E6
:1003C00053313A202020200042313A2020202000C2
:1003D00053323A254C64200042323A254C642000C6
:1003E00053455249414C544553540D0A0000010EE7
:1003F000EA6ED70EE96EEF500DE0060E016E006A50
:10040000002EFED7012EFBD77B0E006E002EFED7EE
:10041000EF2EF3D712000101DEB102D0899801D08E
:1004200089889298DEB302D0899401D0898492940D
:10043000DEB502D0899201D089829292DEB702D0D5
:10044000899001D089809290000092968986020E50
:10045000006E002EFED700D0000092968996000113
:10046000120096948D94630E006E002EFED700D07D
:100470000101DB5303E096948D8402D096948D9411
:10048000000092968996DC39DD6F0F0EDD17DDC115
:10049000DEF10001C0DF0101DC510F0BDD6FDE6F0B
:1004A0000001B9DF1200010E216E96948D94929690
:1004B0008996230E0101D76F000199DF0101CC6BF2
:1004C000CC5102080CE3030EDE6F0001A4DF050E21
:1004D0000101D76F00018BDF0101CC2BF1D7020E98
:1004E000DE6F000198DF0101CC6BCC51030812E3F1
:1004F000036ACC510001E7DD0101CD6FDB6BDC6FDE
:100500000001AFDF050E0101D76F000170DF0101AF
:10051000CC2BEBD7000107EF18F0958E958C09EFE7
:1005200018F0080E016E050E006E002EFED78C9E90
:10053000959E060E006E002EFED70101D6378C9CCC
:10054000D8B0958CD8A0959C958E83AEFED7012E01
:1005500001D002D00001E7D7050E006E002EFED7B5
:100560008C9E959E0000958C060E006E002EFED788
:10057000060E006E002EFED7958E83AEFED7016A62
:10058000060E006E002EFED783BC01808C9E959EC9
:100590008C9C959C00011200958C050E006E002E1F
:1005A000FED7958E060E006E002EFED78C9C959C75
:1005B000050E006E002EFED78C9E959EA00E0101AA
:1005C000D66F0001AEDFD1C1D4F10101D56BD1C12D
:1005D000D6F10001A6DFD0C1D6F1A3DFD2C1D6F19A
:1005E000A0DF959C0000958E83AEFED7050E006EB1
:1005F000002EFED700D00000958C050E006E002E58
:10060000FED7958C050E006E002EFED7958E060E39
:10061000006E002EFED78C9C959C050E006E002E61
:10062000FED78C9E959EA00E0101D66F000179DF4A
:1006300001500101D39101B0D381D3A11ED0958C7B
:10064000050E006E002EFED7958E060E006E002E53
:10065000FED783AEFED78C9C959C050E006E002EB7
:10066000FED78C9E959EA00ED66F00015ADF0150DA
:100670000101D39101B0D381E0D7959C0000958E04
:1006800083AEFED7050E006E002EFED700D0000010
:10069000958C050E006E002EFED700011200F29C14
:1006A000F29EF2BEFDD70101CC6BCD6BCF6BCE6B52
:1006B000CF6BCE6BCD6BCC6B3DC0CFF13CC0CEF1E0
:1006C000CEC1CDF1CFC1CCF1D16B140ED06FCCC166
:1006D000D2F1000161DF0101D16B150ED06FCDC1E8
:1006E000D2F1000159DFC00EF2121200080E010112
:1006F000D46F00C0D5F1958C060E006E002EFED78B
:10070000958E83AEFED783BCD88083ACD89001365B
:10071000050E006E002EFED7959E8C9ED42FEBD733
:10072000958C060E006E002EFED78C9CD551D8A459
:10073000959C0000958E83AEFED7050E006E002EB0
:10074000FED78C9E959E060E006E002EFED78C9CCA
:10075000959C0001E9EF03F0958C050E006E002ECC
:10076000FED7958E060E006E002EFED78C9C959CB3
:10077000050E006E002EFED78C9E959EA00E0101E8
:10078000D66F0001CEDED1C1D3F10101D46BD1C14E
:10079000D6F10001C6DED0C1D6F1C3DE958C050EC0
:1007A000006E002EFED7958E060E006E002EFED730
:1007B00083AEFED78C9C959C050E006E002EFED756
:1007C0008C9E959EA10E0101D66F0001AADE006AE3
:1007D0008DD701C0D2F1959C0000958E83AEFED7D7
:1007E000050E006E002EFED700D00000958C050E81
:1007F000006E002EFED70101D2C101F000011200EF
:10080000F29CF29EF2BEFDD70101CC6BCD6BCF6B9B
:10081000CE6BD16B140ED06F00019EDF01C0CCF106
:100820000101D16B150ED06F000196DF01C0CDF133
:100830000101CF6BCCC1CEF1CEC1CFF1CE6BCD518A
:10084000CE13CFC13DF0CEC13CF0C00EF21200017C
:1008500012000101D851010A000107E0030A08E073
:10086000010A0AE0070A0CE010D00101D96B0FD091
:10087000400E0101D96F0BD0140E0101D96F07D0C2
:10088000540E0101D96F03D000010101D96B010E93
:10089000D75DD927D9518009DA6FDB6BDC6F000196
:1008A000E0DD12000101D6510C0A000105E0060A44
:1008B00011E0020A18E01ED00101DB6B010EDC6FB3
:1008C0000001CFDD010E216E020E0101D76F000184
:1008D0008EDD17D0212A010E0101D76F21C0D8F17A
:1008E0000001B7DF0ED00101DB6B100EDC6F0001E1
:1008F000B8DD07D0010E0101DB6FD6C1DCF10001CC
:10090000B0DD12000900F6CFCEF1F7CFCFF1F5CF71
:10091000D6F1C8DFCEC1F6FFCFC1F7FF0101CD2F61
:1009200001D002D00001EED700011200EACFD5F1CC
:10093000E9CFD4F10101CEAF08D0D48FD4A9D42B04
:10094000CD1FCE1FCD2BD8B4CE2BCE39F009D06F12
:10095000D027E20FD16F320FD36FCE510F0BD127BB
:10096000D127D327E90FD26FD227D227CD390F0B4A
:10097000D227D327D237D337D31FD337CD510F0B3D
:10098000D327D037070ECF6F0A0ED207D327FDE348
:10099000D107D227FDE3D007D127FDE3CF07D0272A
:1009A000FDE3010EEA6ECF0EE96E070ED415D49D5D
:1009B000ED52D41507E1D4B9EE52D4B903D0200ECC
:1009C000006E20D0E926000EEA22E950D30803E1A8
:1009D000EA2C01D0D48DEF50006E08E1D4BD06D0D2
:1009E000D4B91DD0D4B702D0200E0BD0D4AF06D0CE
:1009F0002D0E006EED50D49DD49F04D0D487D49991
:100A0000300E0026EACFCEF1E9CFCDF100C0D6F10D
:100A1000000148DFCEC1EAFFCDC1E9FF0101EE5080
:100A2000D4ADD3D7000112000900F5520CE0F6CF87
:100A3000CCF1F7CFCDF1F5CFD6F134DFCCC1F6FF55
:100A4000CDC1F7FFF1D71200010E0101D76FD86FAA
:100A50000001FFDE4552D8B48FD0310E0101D66FB0
:100A6000000120DF200E0101D66F00011BDF87C1CE
:100A7000D6F118DF88C1D6F115DF89C1D6F112DFB2
:100A80008AC1D6F10FDF8BC1D6F10CDF200E010138
:100A9000D66F000107DF0E0E0101D76F010ED86F70
:100AA0000001D7DEA00EF66E030EF76E030E0101F5
:100AB000CD6F000127DF100EE96E8BC0CEF18AC02A
:100AC000CDF134DF200E0101D66F0001EBDE0E0EFA
:100AD0000101D76F020ED86F0001BBDEA80EF66EC3
:100AE000030EF76E030E0101CD6F00010BDF100E38
:100AF000E96E8DC0CEF18CC0CDF118DF200E010162
:100B0000D66F0001CFDE0E0E0101D76F030ED86F36
:100B100000019FDEB00EF66E030EF76E030E0101AC
:100B2000CD6F0001EFDE100EE96E35C0CEF134C09E
:100B3000CDF1FCDE200E0101D66F0001B3DE0E0EFA
:100B40000101D76F040ED86F000183DEB80EF66E78
:100B5000030EF76E030E0101CD6F0001D3DE100E00
:100B6000E96E37C0CEF136C0CDF1E0DE200E0101D6
:100B7000D66F000197DE6ED0320E0101D66F0001F4
:100B800091DE200E0101D66F00018CDE87C1D6F107
:100B900089DE88C1D6F186DE89C1D6F183DE8AC1BD
:100BA000D6F180DE8BC1D6F17DDE200E0101D66F3D
:100BB000000178DE0E0E0101D76F010ED86F000123
:100BC00048DEC00EF66E030EF76E2EDF0E0E01012C
:100BD000D76F020ED86F00013CDEC80EF66E030E12
:100BE000F76E22DF0E0E0101D76F030ED86F0001E2
:100BF00030DED00EF66E030EF76E030E0101CD6FE0
:100C0000000180DE100EE96E8BC0CEF18AC0CDF1FE
:100C10008DDE200E0101D66F000144DE0E0E0101B3
:100C2000D76F040ED86F000114DED80EF66E030ED7
:100C3000F76E030E0101CD6F000164DE100EE96E48
:100C40008DC0CEF18CC0CDF171DE200E0101D66FCA
:100C5000000128DE12008C518A250101CC6F0001B1
:100C60008D518B210101CD6FD890CD3100018F6F57
:100C70000101CC3100018E6FE7DE5B6A5C6A2A6A93
:100C80002AC029F029C028F02D6A2DC02CF02CC0D4
:100C90002BF01200F29CF29EF2BEFDD70101D16B47
:100CA000020ED06F8AC0D2F1000176DC8BC0CCF18D
:100CB0000101CD6BD16B010ED06F8BC0D2F1000161
:100CC0006BDCC00EF212C7DF1200F29CF29EF2BE85
:100CD000FDD70101D16B040ED06F8CC0D2F10001A1
:100CE0005BDC8DC0CCF10101CD6BD16B030ED06FFD
:100CF0008DC0D2F1000150DCC00EF212ACDF120048
:100D0000936B926B956B946B3D6A3C6AC8DC78DDA3
:100D10008F6B8E6B916B906B8D6B8C6B8B6B8A6B0F
:100D2000B9DFD3DF4D6A4C6A526A536A546A0101D3
:100D3000D16B090ED06F52C0D2F100012DDC010140
:100D4000D16B0A0ED06F53C0D2F1000125DC010136
:100D5000D16B0B0ED06F54C0D2F100011DDC7A0EA6
:100D6000F66E030EF76E60DE6FDE1200F29CF29EEE
:100D7000F2BEFDD70101CC6BCD6BCF6BCE6BD16BCF
:100D8000010ED06F0001E8DC01C0CCF10101D16B94
:100D9000020ED06F0001E0DC01C0CDF10101CF6B8C
:100DA000CCC1CEF1CEC1D1F1D06BD051CD11CE6F2F
:100DB000D1C1CFF1CFC18BF0CEC18AF0C00EF212FB
:100DC000000150EF18F0F29CF29EF2BEFDD7010137
:100DD000CC6BCD6BCF6BCE6BD16B030ED06F0001A4
:100DE000BBDC01C0CCF10101D16B040ED06F00015E
:100DF000B3DC01C0CDF10101CF6BCCC1CEF1CEC1CE
:100E0000D1F1D06BD051CD11CE6FD1C1CFF1CFC1C7
:100E10008DF0CEC18CF0C00EF212000152EF18F02E
:100E20000900F5520DE0F6CFCEF1F7CFCFF1F55036
:100E30009EA8FED7AD6ECEC1F6FFCFC1F7FFF0D7AB
:100E40001200D0500F0BD0A8000ED080D082D088D6
:100E5000D886D888070A07E0080A06E0010A0AE0EF
:100E6000020A09E008D007D0E00EF66E030EF76E16
:100E7000D7DF01D000D0C1EF18F0100E0101CD6F07
:100E8000010ECC6F208C9482100E006E002EFED7C7
:100E90000000CC2F05D0CD2F03D0206A016A24D0CA
:100EA00082B2F2D7080E006ECE6BF2CFCFF1F29E77
:100EB000008E0ED0009E0CD0D89082B2D880CE3357
:100EC000008C06D0009C002EF7D7CE51016E0CD0BE
:100ED000A70E00BE2D0E016E012EFED7000000BE33
:100EE000E9D700BCEFD7E8D7CFBFF28E00011FEFE4
:100EF00019F0496A486A48C044F04B6A0A0E4A6EC3
:100F000049524AE14850090847E3445245E1416AE1
:100F1000482AD8B4492A4150090838E3036A4150A5
:100F2000BC0FE96E010E0320EA6E41504A24010114
:100F3000CE6F000E4B20CF6FF2CFD0F1F29ECEC11C
:100F4000A9FFA69CA69EA680A850D0BFF28EEF6EE9
:100F5000036A4150BC0FE96E010E0320EA6EEFCF29
:100F6000CCF1036A41508D0FE96E010E0320EA6E49
:100F7000EF50CC5D03E0000109D00101412A41504E
:100F80000A0802E1010E446E0001C5D70A0E4A2686
:100F9000000E4B220400B4D760EF19F00101D2C15A
:100FA000E9FFD3C1EAFFEFCFD6F1D5C103F0D4C139
:100FB000E9FFD5C1EAFFEF50D65D15E1D3C103F0DB
:100FC000D2C1E9FF03C0EAFFEF5203E1000E016E58
:100FD0001FD0D3C103F0D251D22BD8B4D32BD42BF2
:100FE000D8B4D52BDCD7D3C103F0D2C1E9FFD3C12C
:100FF000EAFFEFCFD6F1D5C103F0D4C1E9FFD5C1E7
:10100000EAFFEF50D65D02E2FF0E01D0010E016E45
:1010100000012BEF08F00101CE6BCE510A0823E34B
:10102000036ACEC102F0D890023603360250ED0FAB
:10103000E96E000E0320EA6EECCFD1F1ED52EFCF56
:10104000D0F1D1C1D3F1D0C1D2F1CDC1D5F1CCC154
:10105000D4F10001A3D701C0CFF10101CF5301E1C9
:1010600002D0CE2BDAD78E51410817E18F515308A9
:1010700014E19051410811E191514A080EE1925159
:1010800045080BE19351520808E194514F0805E1DE
:101090009551530802E1050ECE6FCEC101F000015B
:1010A00068EF19F00101D351016AD25D03E2D2C1A8
:1010B00000F00CD0006A080ED46FD2370036D3513E
:1010C000005CD8B0006E0136D42FF7D700011200B3
:1010D000200E0101CDA9300ECE6FCCC100F0CCAFF7
:1010E00008D0001E002A00C0CCF12D0ECE6FCD8F8F
:1010F000CD810150CCC1D2F1640ED36F0001D2DF9B
:1011000000C0CCF1300E01240101CF6FCCC1D2F16F
:101110000A0ED36F0001C6DF300E00240101D16F2B
:10112000300E0124D06FCEC100F0300ECF5D04E050
:10113000CD83CDBFCD8512D0CEC1CFF1200ECE6FE5
:10114000300ED05D04E0CD81CDBFCD8307D0D8A4D3
:10115000CD8104E1CFC1D0F1200ECF6FCDB505D048
:10116000CDB308D0CDB10BD00FD0CEC1D6F1000198
:1011700052EC04F0CFC1D6F1000152EC04F0D0C122
:10118000D6F1000152EC04F0D1C1D6F1000152ECCD
:1011900004F01200F40EF66E020EF76E41DEAA6B3A
:1011A000A96B010E466E4F6A4E6A1200F2CF03F031
:1011B000F29E94908B90080E016E00D00000018E7C
:1011C00010D0019E0101D5330001D8B08B80D8A08A
:1011D0008B90018C06D0019C012EF4D700D000002A
:1011E0008B80A70EE96EE92EFED700D001BEE9D7AD
:1011F00001BCF1D703BEF28E12000900F5520CE0DB
:10120000F6CFCCF1F7CFCDF1F5CFD5F1CFDFCCC113
:10121000F6FFCDC1F7FFF1D7A8EF19F08C518A2561
:101220000101CE6F00018D518B210101CF6FD8904C
:10123000CF31CD6FCE31CC6F5350522454244C6EED
:101240004D6A010E0001AB6FAC6B090E0101D76F47
:10125000030ED86F000129EC04F0AB0E0101D66F2C
:10126000000152EC04F0000EF66E030EF76ED8DDAE
:101270001200016603D0026602D007D0022A00C025
:10128000EEFF012EFCD7022EFAD71200D6C1DAF1FA
:10129000D5C1D9F1DAC103F00101D9C1E9FFDAC141
:1012A000EAFFEF5230E0D8C1DCF1D7C1DBF1DCC19D
:1012B00003F0DBC1E9FFDCC1EAFFEF520AE1D551DF
:1012C000D95D006ED651DA59036E00C001F023D00B
:1012D00010D0D9C1E9FFDAC1EAFFEFCFDDF1DCC1FF
:1012E00003F0DBC1E9FFDCC1EAFFEF50DD5D01E1A6
:1012F00004D0DB2BD8B4DC2BDAD7D92BD8B4DA2B3B
:101300000001C8D70101D551D95D006ED651DA5917
:10131000036E00C001F00001E3EF09F0D6C1DAF17D
:10132000D5C1D9F1DAC103F00101D9C1E9FFDAC1B0
:10133000EAFFEF522AE0D8C1DCF1D7C1DBF1DCC112
:1013400003F0DBC1E9FFDCC1EAFFEF5218E0D9C1CD
:10135000E9FFDAC1EAFFEFCFDDF1DCC103F0DBC169
:10136000E9FFDCC1EAFFEF50DD5D05E1D9C101F025
:10137000DAC102F00DD0DB2BD8B4DC2BE0D7D92BAF
:10138000D8B4DA2B0001CED70101000E016E026E37
:10139000000104EF0AF00101CD51CE1104E0CEC1ED
:1013A00003F0CD5103D01AC003F01950D16F03C020
:1013B000D2F1D2C1D6F1D1C1D5F1D0C1D8F1CFC1CE
:1013C000D7F1000163D701500101D127000ED223CC
:1013D000D2C103F0D1C1E9FFD2C1EAFFEF520AE165
:1013E00019C0E9FF1AC0EAFF200EEF6E000E016E71
:1013F000026E27D0D2C1D6F1D1C1D5F1D0C1D8F17A
:10140000CFC1D7F100018AD702C0D4F101C0D3F116
:10141000D4C103F00101D3C1E9FFD4C1EAFFEF5207
:1014200008E0D3C1E9FFD4C1EAFFEF6AD32BD8B4F7
:10143000D42BD4C11AF0D3C119F0D1C101F0D2C15B
:1014400002F0000112000101D56BD36B0A0ED46FBC
:10145000D26BD16BD06BCF6BCD51CE1105E1006A51
:10146000016A026A036A37D1D551D52BCD25E96EC1
:10147000000ECE21EA6EEFCFD6F1D6512D080CE149
:10148000010ED36FD551D52BCD25E96E000ECE219F
:10149000EA6EEFCFD6F10CD0D6512B0809E1D55129
:1014A000D52BCD25E96E000ECE21EA6EEFCFD6F119
:1014B000D6512F08D8B0F7D0D6513908D8A0F3D0DC
:1014C000D65130081EE1D551CD25E96E000ECE2152
:1014D000EA6EEF50780809E0D551CD25E96E000E8F
:1014E000CE21EA6EEF5058080CE1100ED46FD52BC8
:1014F000D551D52BCD25E96E000ECE21EA6EEFCF6A
:10150000D6F1D4510A0843E1D6512F083FE2D65113
:1015100039083CE3D890CF35D86FD035D96FD13565
:10152000DA6FD235DB6FCF35006ED035016ED13535
:10153000026ED235036E00360136023603360036AF
:10154000013602360336F80E0016D8510026D9515E
:101550000122DA510222DB51032203C0D2F102C080
:10156000D1F101C0D0F100C0CFF1300ED65DCF2750
:10157000000ED023D123D223D551D52BCD25E96E12
:10158000000ECE21EA6EEFCFD6F1BED78CD0D4516B
:101590001008D8A488D0D651600806E2D6517A083F
:1015A00003E3D651DF0B01D0D651D66FD6512F08A9
:1015B00003E2D651390807E2D6514008D8B073D0BB
:1015C000D651460870E3D6512F082EE2D65139087D
:1015D0002BE3CF35D86FD035D96FD135DA6FD2350F
:1015E000DB6FD837D937DA37DB37D837D937DA373F
:1015F000DB37D837D937DA37DB37F00ED817300E6C
:10160000D65DD825006E000ED921016E000EDA21BC
:10161000026E000EDB21036ED26F02C0D1F101C059
:10162000D0F100C0CFF12AD0CF35D86FD035D96FE7
:10163000D135DA6FD235DB6FD837D937DA37DB37C8
:10164000D837D937DA37DB37D837D937DA37DB3716
:10165000F00ED817410ED65D0A0FD825006E000E89
:10166000D921016E000EDA21026E000EDB21D26F4D
:1016700002C0D1F101C0D0F100C0CFF1D551D52BBE
:10168000CD25E96E000ECE21EA6EEFCFD6F1D65110
:10169000600806E2D6517A0803E3D651DF0B01D089
:1016A000D651D66F83D7D4510A080DE1D32D0BD074
:1016B000CF1FD01FD11FD21FCF2BD8B4D02BD8B45F
:1016C000D12BD8B4D22BCFC100F0D0C101F0D1C101
:1016D00002F0D2C103F0000112009D9A396A386A03
:1016E0003B6A3A6A2F6A2E6A316A306A976B966B48
:1016F000336A326A916B906B010EEA6EAD0EE96E41
:10170000006A026A050E016EB4DD010EEA6EB20EC9
:10171000E96E006A026A050E016EABDD010EEA6E2B
:10172000B70EE96E006A026A050E016EA2DD010EB7
:10173000EA6EB70EE96E006A026A050E016E99DD67
:101740000A0E416E426AEA6AB10EE96E000E6DEC55
:1017500000F00A000900F550EE6E0009FBE1010EF1
:101760000101CE6F8D0ECD6FD06BB10ECF6F00012A
:1017700012DE02C0B5F001C0B4F00101CC6BEA6A20
:10178000B60EE96EB5C0E2FFB4C0E1FFE752E6CFA6
:10179000EEFFFCE1CE6BCD6BD06BB10ECF6F0001D5
:1017A000FADD02C0CEF101C0CDF1EA6AC40EE96EE5
:1017B00002C0E2FF01C0E1FFE752E6CFEEFFFCE12D
:1017C0000101CE6BCD6BD06BB10ECF6F0001E3DDAD
:1017D00002C0CEF101C0CDF1EA6ACE0EE96E02C0C0
:1017E000E2FF01C0E1FFE752E6CFEEFFFCE10101BD
:1017F000CE6BCD6BD06BB10ECF6F0001CCDD02C0D4
:10180000CEF101C0CDF1EA6AD80EE96E02C0E2FF66
:1018100001C0E1FFE752E6CFEEFFFCE10101CE6B34
:10182000CD6BD06BB10ECF6F0001B5DD02C0CEF134
:1018300001C0CDF1EA6AE20EE96E02C0E2FF01C02A
:10184000E1FFE752E6CFEEFFFCE10101CE6BCD6B8D
:10185000D06BB10ECF6F00019EDD02C0B5F001C0AC
:10186000B4F00101CC2BCE6BC40ECD6F0001EBDDCB
:1018700001C035F000C034F00101CE6BCE0ECD6F4B
:101880000001E1DD01C037F000C036F00E0E0101AD
:10189000D76F030ED86F000129EC04F00C0EF66E22
:1018A000030EF76E030E0101CD6F000182EC04F010
:1018B000100EE96E35C0CEF134C0CDF196EC04F0D7
:1018C000200E0101D66F000152EC04F00E0E010152
:1018D000D76F040ED86F000129EC04F0140EF66ED9
:1018E000030EF76E030E0101CD6F000182EC04F0D0
:1018F000100EE96E37C0CEF136C0CDF196EC04F093
:10190000200E0101D66F000152EC04F0C5EF19F072
:101910000900F6CFCDF1F7CFCEF1F5CFD5F146DC0A
:10192000CDC1F6FFCEC1F7FF0101CC2F01D002D00F
:101930000001EED700011200EACFD4F1E9CFD3F1D4
:101940000101CD39F009CF6FCF27E20FD06F320FF1
:10195000D26FCD510F0BD027D027D227E90FD16FEF
:10196000D127D127CC390F0BD127D227D137D23766
:10197000D21FD237CC510F0BD227CF37070ECE6FE5
:101980000A0ED107D227FDE3D007D127FDE3CF0709
:10199000D027FDE3CE07CF27FDE3010EEA6ECE0E82
:1019A000E96E070ED315D39DE926000EEA22E95011
:1019B000D20803E1EA2C01D0D38DEF50006E08E18C
:1019C000D3BD06D0D3B916D0D3B702D0200E03D0E2
:1019D000D387D399300E0026EACFCDF1E9CFCCF1F1
:1019E00000C0D5F10001D6EC08F0CDC1EAFFCCC1B2
:1019F000E9FF0101EE50D3ADDAD70001120001502A
:101A0000CCC1D2F1640E0101D36F000152EC08F099
:101A100000C0CCF10150300E08E10101CDA310D07F
:101A2000CDB70ED0CDB9200E04D00101CD97CD9900
:101A3000CD81012601C0D5F10001D6EC08F00101ED
:101A4000CCC1D2F10A0ED36F000152EC08F000C0F5
:101A5000CCF10150300E08E10101CDB70BD0CDA182
:101A600009D0CDB9200E0001012601C0D5F1D6EC78
:101A700008F00101300ECC27CCC1D5F10001D6EC25
:101A800008F012009D9A5350522454244C6E4D6A13
:101A9000010EEA6EAD0EE96E006A026A050E016E75
:101AA00039EC09F0010EEA6EB20EE96E006A026AC4
:101AB000050E016E39EC09F0010EEA6EB70EE96E03
:101AC000006A026A050E016E39EC09F00A0E416ED9
:101AD000426A8C518A250101CC6F00018D518B2106
:101AE0000101CD6FD890CD31396ECC31386E000107
:101AF00000EC04F03C503824906F3D503920916F39
:101B0000010E236E4A0EF66E030EF76E070E0101EC
:101B1000CC6F0001FDDE090EE96E91C0CDF190C0E1
:101B2000CCF10ADF2C0E0101D56F0001D6EC08F0D4
:101B3000090EE96E39C0CDF138C0CCF1FDDE5C0E86
:101B4000F66E030EF76E060E0101CC6F0001E0DEAB
:101B50000A0EE96E4DC0CDF14CC0CCF1EDDE670E42
:101B6000F66E030EF76E050E0101CC6F0001D0DE9C
:101B700023C0CCF1010E0101CD6F000140DF700EDA
:101B8000F66E030EF76E030E0101CC6F0001C0DE8E
:101B9000090E0101D76F030ED86F000129EC04F084
:101BA000AB0E0101D66F000152EC04F0090E0101E9
:101BB000D76F040ED86F000129EC04F0740EF66E96
:101BC000030EF76E14EC05F0010EAB6FAC6BAA6B55
:101BD000A96B466A9D8A79EF1AF00101CE6BCC5150
:101BE000300804E1CD5302E1CE6B47D0CC5131082F
:101BF00005E1CD5303E1010ECE6F3FD0CC51320849
:101C000005E1CD5303E1020ECE6F37D0CC5133083E
:101C100005E1CD5303E1030ECE6F2FD0CC51340834
:101C200005E1CD5303E1040ECE6F27D0CC5135082A
:101C300005E1CD5303E1050ECE6F1FD0CC51360820
:101C400005E1CD5303E1060ECE6F17D0CC51370816
:101C500005E1CD5303E1070ECE6F0FD0CC5138080C
:101C600005E1CD5303E1080ECE6F07D0CC51390802
:101C700004E1CD5302E1090ECE6FCEC101F00001A7
:101C800012000101CD6BC6C1CCF10001A6DF0152EB
:101C900010E0416A0101CD6BC6C1CCF100019DDFAE
:101CA0000150415C06E2E80E3226030E3322412A3F
:101CB000F1D70101CD6BC7C1CCF100018EDF01521C
:101CC00010E0416A0101CD6BC7C1CCF1000185DF95
:101CD0000150415C06E2640E3226000E3322412A96
:101CE000F1D70101CD6BC8C1CCF1000176DF015203
:101CF00010E0416A0101CD6BC8C1CCF100016DDF7C
:101D00000150415C06E20A0E3226000E3322412ABF
:101D1000F1D70101CD6BC9C1CCF100015EDF0150EB
:101D20003226000E33220101CD6BADC1CCF1000192
:101D300054DF015210E0416A0101CD6BADC1CCF11D
:101D400000014BDF0150415C06E2E80E2E26030E37
:101D50002F22412AF1D70101CD6BAEC1CCF1000198
:101D60003CDF015210E0416A0101CD6BAEC1CCF104
:101D7000000133DF0150415C06E2640E2E26000EA6
:101D80002F22412AF1D70101CD6BAFC1CCF1000167
:101D900024DF015210E0416A0101CD6BAFC1CCF1EB
:101DA00000011BDF0150415C06E20A0E2E26000EE8
:101DB0002F22412AF1D70101CD6BB2C1CCF1000134
:101DC0000CDF015210E0416A0101CD6BB2C1CCF1D0
:101DD000000103DF0150415C06E2E80E3026030EED
:101DE0003122412AF1D70101CD6BB3C1CCF1000101
:101DF000F4DE015210E0416A0101CD6BB3C1CCF1B8
:101E00000001EBDE0150415C06E2640E3026000E5C
:101E10003122412AF1D70101CD6BB4C1CCF10001CF
:101E2000DCDE015210E0416A0101CD6BB4C1CCF19E
:101E30000001D3DE0150415C06E20A0E3026000E9E
:101E40003122412AF1D70101CD6BB7C1CCF100019C
:101E5000C4DE015210E0416A0101CD6BB7C1CCF183
:101E60000001BBDE0150415C06E2640E9627000EC5
:101E70009723412AF1D70101CD6BB8C1CCF1000104
:101E8000ACDE015210E0416A0101CD6BB8C1CCF16A
:101E90000001A3DE0150415C06E20A0E9627000E07
:101EA0009723412AF1D70101CD6BB9C1CCF10001D3
:101EB00094DE01509627000E97238C518A2501014C
:101EC000CC6F00018D518B210101CD6FD890CD31A8
:101ED000396ECC31386E30502E24CC6F31502F20DB
:101EE000CD6FD890CD31516ECC31506E000100ECE9
:101EF00004F03250505C0FE13350515C0CE151C0A2
:101F00003BF050C03AF03BC03DF03AC03CF04FECE3
:101F100003F0236A02D0020E236E3A503824906FE9
:101F20003B503920916F5350522454244C6E4D6ACB
:101F30001C0EF66E030EF76E070E0101CC6F00014A
:101F4000E7DC090EE96E91C0CDF190C0CCF1F4DC74
:101F50002C0E0101D56F0001D6EC08F0090EE96ED8
:101F600039C0CDF138C0CCF1E7DC2C0E0101D56FC2
:101F70000001D6EC08F0090EE96E3BC0CDF13AC085
:101F8000CCF1DADC2C0E0101D56F0001D6EC08F0A3
:101F90000A0EE96E4DC0CDF14CC0CCF1CDDC2C0E5B
:101FA0000101D56F0001D6EC08F00A0EE96E97C06A
:101FB000CDF196C0CCF1C0DC2C0E0101D56F000133
:101FC000D6EC08F023C0CCF1010E0101CD6F000169
:101FD00016DD450EF66E030EF76E030E0101CC6F93
:101FE000000196DC24EC05F0090E0101D76F030E09
:101FF000D86F000129EC04F0AB0E0101D66F00018F
:1020000052EC04F0010EAB6FAC6BAA6BA96B246AA7
:102010009D8A7EEF1AF05B5222E15C5220E1692D2D
:1020200003D06B2D01D009D0692D03D06D2D01D0C7
:1020300004D06B2D04D06D2D02D0010E5B6E6A2D85
:1020400003D06C2D01D009D06A2D03D06E2D01D0A4
:1020500004D06C2D04D06E2D02D0010E5C6E1200E7
:10206000755322E1692D20D06A531EE177531CE19C
:1020700078531AE15B5203E15C52D8B4CCDF080E0E
:102080000101D76F020ED86F000129EC04F07F0E1A
:102090000101D66F000152EC04F0010E986F766FCB
:1020A000776F796F756F1ED175530EE1692D0CD066
:1020B0006A2D0AD0772D08D0785306E1030E766F8B
:1020C000796B010E756F0ED175530DE169530BE1FC
:1020D0006A2D09D0772D07D0785305E1040E766F6D
:1020E000010E756FFFD075532AE1695328E16A53D9
:1020F00026E1795324E1772D22D0785320E1080E90
:102100000101D76F020ED86F000129EC04F07C0E9C
:10211000F66E030EF76E14EC05F0986B7B51040815
:1021200006E1050E766F776B010E756F07D0986B21
:10213000060E766F776B796B010E756FD3D0755382
:1021400020E169531EE16A531CE1792D1AD0772DE5
:1021500018D0785316E1080E0101D76F020ED86F20
:10216000000129EC04F07E0EF66E030EF76E14ECFF
:1021700005F0986B060E766F776B796B010E756FB5
:10218000B1D075530EE1692D0CD06A530AE1772D59
:1021900008D0785306E1020E766F010E796F756FE5
:1021A000A1D0755323E1695321E16A2D1FD07753E4
:1021B0001DE178531BE15B5203E15C52D8B42BDF85
:1021C000080E0101D76F020ED86F000129EC04F050
:1021D0007E0E0101D66F000152EC04F0010E986FE3
:1021E000070E766F010E786F756F7CD075530EE118
:1021F00069530CE16A2D0AD0775308E1782D06D097
:10220000080E766F010E796F756F6CD075530EE105
:10221000692D0CD06A2D0AD0775308E1782D06D0AD
:10222000090E766F796B010E756F5CD075530DE1F9
:10223000692D0BD06A5309E1775307E1782D05D05A
:102240000A0E766F010E756F4DD075532AE16953F2
:1022500028E16A5326E1795324E1775322E1782D6E
:1022600020D0080E0101D76F020ED86F000129ECB3
:1022700004F0800EF66E030EF76E14EC05F07B5141
:102280000A0807E1986B0B0E766F786B010E756F7D
:1022900007D0986B0C0E766F786B796B010E756FAB
:1022A00021D075531FE169531DE16A531BE1792D5C
:1022B00019D0775317E1782D15D0080E0101D76F8B
:1022C000020ED86F000129EC04F0820EF66E030EA8
:1022D000F76E14EC05F0986B0C0E766F786B796BDB
:1022E000010E756F1200695335E16A5333E16B5388
:1022F00031E16C532FE16D532DE16E532BE12950E9
:1023000028242A24256E2C502B242D24266E25507B
:10231000010803E3265001080EE22550265C06E280
:102320008A2BD8B48B2B4AEC06F005D08C2BD8B472
:102330008D2B65EC06F02A6A2AC029F029C028F006
:1023400028C025F02D6A2DC02CF02CC02BF02BC0FE
:1023500026F07FD09E5305E19F5303E1A053D8B4EC
:1023600078D09F519E25A025276E272C48D09E53BC
:1023700016E06B5313E16C5311E16D530FE16E5393
:102380000DE15B2C06D08A2BD8B48B2B4AEC06F0DF
:1023900005D08C2BD8B48D2B65EC06F02FD09F5335
:1023A00016E0695313E16A5311E16D530FE16E5367
:1023B0000DE15B5206E08A2BD8B48B2B4AEC06F079
:1023C00005D08C2BD8B48D2B65EC06F017D0A0531C
:1023D00015E06B5313E16C5311E169530FE16A533C
:1023E0000DE15B5206E08A2BD8B48B2B4AEC06F049
:1023F00005D08C2BD8B48D2B65EC06F01CD0295061
:1024000028242A24256E2C502B242D24266E25507A
:10241000000803E3265000080EE22550265C06E281
:102420008A2BD8B48B2B4AEC06F005D08C2BD8B471
:102430008D2B65EC06F02A6A2AC029F029C028F005
:1024400028C025F02D6A2DC02CF02CC02BF02BC0FD
:1024500026F0120076517B5D04E076C07BF0010E21
:102460007A6F7A2D1ED0010E765DF40F18E20C0FF4
:1024700052EF12F014D02B5203E1010E286E01D05E
:102480002B6A31DF0CD02FDF0AD009D0285203E1AC
:10249000010E2B6E01D0286A26DF01D024DF7A6B73
:1024A000756B1200E824F76AF736BF0FF66E240E3C
:1024B000F7220A00F550FA6E0800F550F96E742400
:1024C0009E249E249E24762486248A249E249E2450
:1024D0009E248C249C247C5322E16B2D20D06C53B1
:1024E0001EE17E531CE17F531AE15B5203E15C5213
:1024F000D8B491DD080E0101D76F030ED86F00012B
:1025000029EC04F07F0E0101D66F000152EC04F0BB
:10251000010E996F7D6F7E6F806F7C6F1ED17C5333
:102520000EE16B2D0CD06C2D0AD07E2D08D07F5380
:1025300006E1030E7D6F806B010E7C6F0ED17C5324
:102540000DE16B530BE16C2D09D07E2D07D07F532D
:1025500005E1040E7D6F010E7C6FFFD07C532AE1F4
:102560006B5328E16C5326E1805324E17E2D22D069
:102570007F5320E1080E0101D76F030ED86F0001D1
:1025800029EC04F0840EF66E030EF76E14EC05F0E1
:102590008251040807E1996B050E7D6F7E6B010E79
:1025A0007C6F07D0996B060E7D6F7E6B806B010E82
:1025B0007C6FD3D07C5320E16B531EE16C531CE144
:1025C000802D1AD07E2D18D07F5316E1080E010100
:1025D000D76F030ED86F000129EC04F0860EF66E5B
:1025E000030EF76E14EC05F0996B060E7D6F7E6B93
:1025F000806B010E7C6FB1D07C530EE16B2D0CD043
:102600006C530AE17E2D08D07F5306E1020E7D6FE8
:10261000010E806F7C6FA1D07C5323E16B5321E1CD
:102620006C2D1FD07E531DE17F531BE15B5203E1F4
:102630005C52D8B4F0DC080E0101D76F030ED86FDE
:10264000000129EC04F07E0E0101D66F000152EC6E
:1026500004F0010E996F070E7D6F010E7F6F7C6F86
:102660007CD07C530EE16B530CE16C2D0AD07E5371
:1026700008E17F2D06D0080E7D6F010E806F7C6F04
:102680006CD07C530EE16B2D0CD06C2D0AD07E5398
:1026900008E17F2D06D0090E7D6F806B010E7C6FE7
:1026A0005CD07C530DE16B2D0BD06C5309E17E5354
:1026B00007E17F2D05D00A0E7D6F010E7C6F4DD096
:1026C0007C532AE16B5328E16C5326E1805324E1CB
:1026D0007E5322E17F2D20D0080E0101D76F030E1B
:1026E000D86F000129EC04F0880EF66E030EF76E29
:1026F00014EC05F082510A0807E1996B0B0E7D6F0F
:102700007F6B010E7C6F07D0996B0C0E7D6F7F6B1A
:10271000806B010E7C6F21D07C531FE16B531DE158
:102720006C531BE1802D19D07E5317E17F2D15D0FE
:10273000080E0101D76F030ED86F000129EC04F0D9
:102740008A0EF66E030EF76E14EC05F0996B0C0E04
:102750007D6F7F6B806B010E7C6F12007D51825DFF
:1027600004E07DC082F0010E816F812D1ED0010E2C
:102770007D5DF40F18E20C0FD6EF13F014D02C523D
:1027800003E1010E296E01D02C6AADDD0CD0ABDD6A
:102790000AD009D0295203E1010E2C6E01D0296A1A
:1027A000A2DD01D0A0DD816B7C6B1200E824F76A0A
:1027B000F736C70FF66E270EF7220A00F550FA6EAD
:1027C0000800F550F96E7C27A627A627A6277E27A6
:1027D0008E279227A627A627A6279427A4278353C8
:1027E00022E16D2D20D06E531EE185531CE18653EE
:1027F0001AE15B5203E15C52D8B40DDC080E010112
:10280000D76F040ED86F000129EC04F07F0E010190
:10281000D66F000152EC04F0010E9A6F846F856F41
:10282000876F836F1FD183530EE16D2D0CD06E2DFA
:102830000AD0852D08D0865306E1030E846F876B7E
:10284000010E836F0FD183530DE16D530BE16E2D9C
:1028500009D0852D07D0865305E1040E846F010E43
:10286000836F00D183532AE16D5328E16E5326E133
:10287000875324E1852D22D0865320E1080E0101E3
:10288000D76F040ED86F000129EC04F08C0EF66EA1
:10289000030EF76E14EC05F08951040807E19A6BFA
:1028A000050E846F856B010E836F07D09A6B060E41
:1028B000846F856B876B010E836FD4D0835320E1C7
:1028C0006D531EE16E531CE1872D1AD0852D18D053
:1028D000865316E1080E0101D76F040ED86F000170
:1028E00029EC04F08E0EF66E030EF76E14EC05F074
:1028F0009A6B060E846F856B876B010E836FB2D067
:1029000083530EE16D2D0CD06E530AE1852D08D056
:10291000865306E1020E846F010E876F836FA2D08B
:10292000835324E16D5322E16E2D20D085531EE1A7
:1029300086531CE15B5204E15C52D8B40BEC10F0FE
:10294000080E0101D76F040ED86F000129EC04F0C6
:102950007E0E0101D66F000152EC04F0010E9A6F59
:10296000070E846F010E866F836F7CD083530EE158
:102970006D530CE16E2D0AD0855308E1862D06D0EB
:10298000080E846F010E876F836F6CD083530EE146
:102990006D2D0CD06E2D0AD0855308E1862D06D002
:1029A000090E846F876B010E836F5CD083530DE13A
:1029B0006D2D0BD06E5309E1855307E1862D05D0AF
:1029C0000A0E846F010E836F4DD083532AE16D533D
:1029D00028E16E5326E1875324E1855322E1862DB9
:1029E00020D0080E0101D76F040ED86F000129EC2A
:1029F00004F0900EF66E030EF76E14EC05F089519C
:102A00000A0807E19A6B0B0E846F866B010E836FC9
:102A100007D09A6B0C0E846F866B876B010E836FE9
:102A200021D083531FE16D531DE16E531BE1872DB0
:102A300019D0855317E1862D15D0080E0101D76FE7
:102A4000040ED86F000129EC04F0920EF66E030E0E
:102A5000F76E14EC05F09A6B0C0E846F866B876B27
:102A6000010E836F12008451895D04E084C089F0F7
:102A7000010E886F882D1ED0010E845DF40F18E2C0
:102A80000C0F5BEF15F014D02D5203E1010E2A6EEE
:102A900001D02D6A28DC0CD026DC0AD009D02A52BD
:102AA00003E1010E2D6E01D02A6A1DDC01D01BDC72
:102AB000886B836B1200E824F76AF736D10FF66E45
:102AC0002A0EF7220A00F550FA6E0800F550F96E4A
:102AD000862AB02AB02AB02A882A982A9C2AB02AA4
:102AE000B02AB02A9E2AAE2A9388556A81B8552A00
:102AF000552C0CD05E6A5D6A696B9B6BA26BA16BF7
:102B00009E5303E094968B969E6B2DD05E5203E10C
:102B10005D50040802E2010E696F69516F5D23E0A8
:102B200069C06FF0010E7A6F050E0101D76F020EBA
:102B3000D86F000129EC04F0310E0101D66F0001BD
:102B400052EC04F03A0E0101D66F000152EC04F091
:102B50006FC0CCF1180E0101CD6F000168EC08F0D8
:102B600030EC10F077DC9588566A83B8562A562CDC
:102B70000ED094988B88606B5F6A6A6B9B6BA26BBC
:102B8000A16B9E5303E094968B969E6B34D09498E1
:102B90008B98605303E15F50040802E2010E6A6FF4
:102BA0006A51705D28E06AC070F0010E7A6F010111
:102BB000D76F020ED86F000129EC04F0320E01012C
:102BC000D66F000152EC04F03A0E0101D66F0001FD
:102BD00052EC04F070C0CCF1180E0101CD6F000171
:102BE00068EC08F0200E0101D66F000152EC04F0F1
:102BF00030EC10F02FDC9384576A81B4572A572C9D
:102C00000CD0626B616B6B6B9C6BA46BA36B9F5363
:102C100003E094968B969F6B2CD0625303E1615135
:102C2000040802E2010E6B6F6B51715D22E06BC014
:102C300071F0010E816F050E0101D76F030ED86F81
:102C4000000129EC04F0330E0101D66F000152ECB3
:102C500004F03A0E0101D66F000152EC04F071C08D
:102C6000CCF1180E0101CD6F000168EC08F033DCE7
:102C700075DD9386586A81B6582A582C0ED09498E0
:102C80008B88646B636B6C6B9C6BA46BA36B9F53A7
:102C900003E094968B969F6B34D094988B986453F2
:102CA00003E16351040802E2010E6C6F6C51725D26
:102CB00028E06CC072F0010E816F0101D76F030E26
:102CC000D86F000129EC04F0340E0101D66F000129
:102CD00052EC04F03A0E0101D66F000152EC04F000
:102CE00072C0CCF1180E0101CD6F000168EC08F044
:102CF000200E0101D66F000152EC04F06BEC12F0D3
:102D00002DDD9380596A81B0592A592C0CD0666BFD
:102D1000656B6D6B9D6BA66BA56BA05303E09496E2
:102D20008B96A06B2CD0665303E16551040802E238
:102D3000010E6D6F6D51735D22E06DC073F0010E79
:102D4000886F050E0101D76F040ED86F000129ECC2
:102D500004F0350E0101D66F000152EC04F03A0E7A
:102D60000101D66F000152EC04F073C0CCF1180ED3
:102D70000101CD6F000168EC08F031DD74DE938253
:102D80005A6A81B25A2A5A2C0ED094988B88686B52
:102D9000676B6E6B9D6BA66BA56BA05303E094965F
:102DA0008B96A06B33D094988B98685303E167514E
:102DB000040802E2010E6E6F6E51745D27E06EC072
:102DC00074F0010E886F0101D76F040ED86F0001F7
:102DD00029EC04F0360E0101D66F000152EC04F02C
:102DE0003A0E0101D66F000152EC04F074C0CCF130
:102DF000180E0101CD6F000168EC08F0200E0101F2
:102E0000D66F000152EC04F0EADC2DDE692D08D00B
:102E10006A2D06D09B5304E1010E9B6FA26BA16B40
:102E20006B2D08D06C2D06D09C5304E1010E9C6FD5
:102E3000A46BA36B6D2D08D06E2D06D09D5304E1BD
:102E4000010E9D6FA66BA56B49EF1BF0F86AD09E33
:102E5000078EFE0E006E060E016E020EE96E000E6B
:102E6000EA6EEE6A002EFDD7012EFBD71F6AB886E8
:102E7000080EAF6E020EB06EA60EAC6E900EAB6E6C
:102E8000206A94908B80436A456A526A536A546AF6
:102E9000556A566A576A586A596A5A6A5B6A5C6A1E
:102EA0005E6A5D6A606B5F6A626B616B646B636BC9
:102EB000666B656B686B676B756B766B776B786B46
:102EC000796B7A6B7B6B7C6B7D6B7E6B7F6B806BC6
:102ED000816B826B836B846B856B866B876B886B76
:102EE000896B8B6B8A6B8D6B8C6B8F6B8E6B916B25
:102EF000906B936B926B956B946B986B996B9A6BD1
:102F0000AD6BAE6BB06BAF6BEC6BC150C00B0F0910
:102F1000C16E070EB46E55D0020019000005010302
:102F200056352E303105C0206E800D00424F525272
:102F300041525F414C4C0D004752414241525F4467
:102F400041540D004C4545524355454E54410D00EA
:102F5000534F4C4943495441444F0D005041534154
:102F60004A45524F533A0D0053455249414C54453E
:102F700053540D0053455249414C5F544F4B0D0083
:102F800053554249454E444F43320D0053494E4636
:102F9000554E43494F4E0D000AC02002800D0016C9
:102FA00000ED03010F011B01270133013F014B011C
:102FB000570163016F017B0106018756352E3032C0
:102FC0000000000EF86E2F0EF76E180EF66E090058
:102FD000F550006E000A13E00900F550016EE8BEDE
:102FE00005D00F0BEA6E0900F5CFE9FF01BC09001F
:102FF00001AC0900F5CFEEFF004EE9D7F9D7F86A2A
:10300000C150C00B0F09C16EC29053EF02F08DEF9B
:1030100002F0B50ECD6E9D80E70ECF6E960ECE6E91
:10302000F298C00EF21294948B9494948B940C0E9C
:10303000BD6E000E0409CA6E830ECB6E450EBE6EC9
:10304000BD50CF0B3009BD6EF2CFCCF1F29E640EB5
:10305000A96EA69CA69EA680A8500101CCBFF28EA8
:10306000406E402C01D019D0F250006EF29E640EDA
:10307000A96E010EA86EA69CA69EA6840F01550EF1
:10308000A76EAA0EA76EA682A6B2FED7A69400507F
:10309000F212000180EC06F001010001B6EF06F02B
:1030A000E3EF06F05A6A5AC059F059C058F058C0B8
:1030B00057F057C056F056C055F0A66BA56BA6C08A
:1030C000A4F0A5C0A3F0A4C0A2F0A3C0A1F0A06B7F
:1030D000A0C09FF09FC09EF0AA6BA96B958483A4AB
:1030E00005D0010E456E1D0E226E03D0456A0F0EEF
:1030F000226E24EC05F00101D16B090ED06F0001A6
:10310000ACEC03F001C052F00101D16B0A0ED06F9C
:103110000001ACEC03F001C053F00101D16B0B0EC8
:10312000D06F0001ACEC03F001C054F095860101B2
:10313000CB6B83B6CB2B436A466A3D6A3C6A9D8A59
:10314000D1800001686B676B68C066F067C065F08E
:1031500066C064F065C063F064C062F063C061F093
:1031600062C060F061C05FF060C05EF05FC05DF0A3
:10317000956B946B95C093F094C092F0236A21EF05
:1031800007F0246A94988B98376A366A37C035F00E
:1031900036C034F0AB6B96908D90010EAE6FEC6B39
:1031A000AD2D03D0C00EF212AD6B9586000E83B626
:1031B000010E0101CB5D24E0320ED76F0001F7EC68
:1031C00001F09586000E83B6010E0101CB5D18E07B
:1031D0009586CB6B83B6CB2B452C12D0CB5310E10D
:1031E0006E0EF66E020EF76E000110EC07F07A0E0E
:1031F000F66E020EF76E14EC05F080EC06F001019D
:10320000968284A258D00001AE2D01D002D00101D7
:1032100052D096908D80B06BAF6BAE6B949A8B8AC8
:10322000000E82A2010E010805E1B05303E1AF5187
:10323000C70803E2010EAE6FF3D73DEF07F001C000
:103240008DF101018D513F0836E1949A8B9A010E60
:10325000436E0001686B676B68C066F067C065F01D
:1032600066C064F065C063F064C062F063C061F082
:1032700062C060F061C05FF060C05EF05FC05DF092
:10328000420E01018D6F4F0E8E6F520E8F6F906F39
:10329000410E916F520E926F5F0E936F410E946FBD
:1032A0004C0E956F966F0A0E976F96908D90010E4B
:1032B0000001AE6F0101432CD4D0000179EF07F07B
:1032C000010E0101CD6F8D0ECC6F00010BEF08F0E8
:1032D00001C0ECF0090E0101D76F010ED86F00019B
:1032E00029EC04F0ECC0CCF1180E0101CD6F000107
:1032F00068EC08F0200E0101D66F000152EC04F0DA
:10330000EC51010A0FE0030A18E0010A19E0070A6C
:1033100036E0010A37E0030A49E0010A5FE00F0ADC
:103320006FE080D080EC06F0452C06D0860EF66E5D
:10333000020EF76E10EC07F083D0CAEC08F080D0D4
:10334000452C06D0920EF66E020EF76EFDEF08F0D9
:10335000040E0101CC6FFA0ED76F0001F7EC01F0FB
:103360000101CC2FF8D7000180EC06F0452C06D0E7
:103370009E0EF66E020EF76E10EC07F061D00EECAA
:1033800009F05ED0466A6DEF0BF0010E246E090E57
:103390000101D76F040ED86F000129EC04F0AA0ECA
:1033A000F66E020EF76E14EC05F04AD0010EAB6F0C
:1033B000AC6B090E0101D76F030ED86F000129EC29
:1033C00004F0B00EF66E020EF76E14EC05F0B60EB9
:1033D000F66E020EF76E10EC07F032D0010EAB6FF6
:1033E000AC6B090E0101D76F040ED86F000129ECF8
:1033F00004F0C20EF66E020EF76E14EC05F020D04B
:10340000010EAB6FAC6B090E0101D76F040ED86FC4
:10341000000129EC04F0C80EF66E020EF76E14ECF3
:1034200005F00ED0090E0101D76F020ED86F000112
:1034300029EC04F0CE0EF66E020EF76E14EC05F0D9
:10344000EC6B010EEA6E8D0EE96E006A026A200EC8
:10345000016E39EC09F03F6A3E6A010E476E436A1D
:1034600001010001AA5303E1A951090804E24552F0
:1034700002E0CAEC08F0AB532EE0AC5109082BE295
:10348000AB6B090E0101D76F010ED86F000129EC5B
:1034900004F0D20EF66E020EF76E14EC05F0090E73
:1034A0000101D76F030ED86F000129EC04F0D80E8C
:1034B000F66E020EF76E14EC05F0090E0101D76FDF
:1034C000040ED86F000129EC04F0DE0EF66E020E39
:1034D000F76E14EC05F046520CE04F50060809E276
:1034E000FF0A03E14E50CF0804E24552D8A442EF50
:1034F0000DF02452D8B402D041EF0EF09B5336E0C9
:10350000A251000833E2FF0A03E1A151F3082EE2C1
:103510009E532CE19B6B9E5327E19F5325E1A053C3
:1035200023E10A0E0101D76F010ED86F000129ECCB
:1035300004F0E40EF66E020EF76E14EC05F0522A5B
:103540000101D16B090ED06F52C0D2F10001CCEC59
:1035500002F0452C05D0435203E1CAEC08F004D038
:103560004352D8B40EEC09F0010E9E6F9C5336E026
:10357000A451000833E2FF0A03E1A351F3082EE24D
:103580009F532CE19C6B9E5327E19F5325E1A05351
:1035900023E10A0E0101D76F010ED86F000129EC5B
:1035A00004F0E80EF66E020EF76E14EC05F0532AE6
:1035B0000101D16B0A0ED06F53C0D2F10001CCECE7
:1035C00002F0452C05D0435203E1CAEC08F004D0C8
:1035D0004352D8B40EEC09F0010E9F6F9D5336E0B4
:1035E000A651000833E2FF0A03E1A551F3082EE2D9
:1035F000A0532CE19D6B9E5327E19F5325E1A053DF
:1036000023E10A0E0101D76F010ED86F000129ECEA
:1036100004F0EC0EF66E020EF76E14EC05F0542A70
:103620000101D16B0B0ED06F54C0D2F10001CCEC74
:1036300002F0452C05D0435203E1CAEC08F004D057
:103640004352D8B40EEC09F0010EA06F9D5312E165
:103650009C5310E19B530EE10A0E0101D76F010E3E
:10366000D86F000129EC04F0F00EF66E020EF76E32
:1036700014EC05F03F5002080AE2FF0A03E13E5055
:10368000830805E2475203E024EC05F0476A74EF33
:0836900015F0040085D50300CC
:020000040030CA
:0E00000000C21E180086910000800FE00F4025
:00000001FF
;PIC18F4580
;CRC=9655  CREATED="06-may.-22 11:16"
