:04000000DFEF15F029
:08000800046ED8CF05F0E0CF33
:1000100006F00001E9CF0CF0EACF07F0E1CF08F0DD
:10002000E2CF09F0D9CF0AF0DACF0BF0F3CF12F01C
:10003000F4CF13F0FACF14F0F5CF15F0F6CF16F099
:10004000F7CF17F000C00EF001C00FF002C010F0A3
:1000500003C011F09DAA30EF00F09EBA18EF01F036
:100060009DA036EF00F09EB085EF00F0A0A23CEF1F
:1000700000F0A1B2DFEF00F00EC000F00FC001F001
:1000800010C002F011C003F00CC0E9FF07C0EAFF86
:10009000078E08C0E1FF09C0E2FF0AC0D9FF0BC00C
:1000A000DAFF12C0F3FF13C0F4FF14C0FAFF15C04B
:1000B000F5FF16C0F6FF17C0F7FF045006C0E0FFBB
:1000C00005C0D8FF1000F76AD60FF66E000EF722B3
:1000D0000900F5501200280C0106F76AEA0FF66EC7
:1000E000000EF7220900F5501200424F52524152C1
:1000F0005F414C4C0D00F76A060FF66E010EF722B9
:100100000900F55012003A2F00003E2AD8B43F2AC9
:10011000A72BD8B4A82BA85303E1A751630806E284
:10012000A86BA76BA92BD8B4AA2BAC2B9388556AC4
:1001300081B8552A555203E15D2AD8B45E2A9588C4
:10014000566A83B8562A565203E15F2AD8B4602B08
:100150009384576A81B4572A575203E1612BD8B46C
:10016000622B9386586A81B6582A585203E1632B52
:10017000D8B4642B9380596A81B0592A595203E14B
:10018000652BD8B4662B93825A6A81B25A2A5A5286
:1001900003E1672BD8B4682BA12BD8B4A22BA32BD7
:1001A000D8B4A42BA52BD8B4A62B4E2AD8B44F2A4A
:1001B000E70ECF6E960ECE6E9E903CEF00F0AF2B0A
:1001C000D8B4B02BFE0EB36E0C0EB26EA1923CEF03
:1001D00000F0030E0101E65F0AE3010EEA6EE60E8F
:1001E000E96EEF5004E001D000D0EF2EFDD7000102
:1001F00003EF01F0200E0101E46F020EE56F9B0E8C
:10020000E66F0001E6D70101E52FF9D7E42F03D00F
:100210001F6A016A0AD09EAAF0D7AB501F6EAE507B
:10022000016E1FA202D0AB98AB8800012CEF01F049
:10023000F29CF29EF2BEFDD7416A41501E081FE3B8
:10024000036A41508E0FE96E010E0320EA6EEACF79
:10025000E3F1E9CFE2F1CED7E3C1EAFFE2C1E9FF82
:1002600001C0EFFF412A036A41508E0FE96E010E73
:100270000320EA6EEF500D08D8B401D0DED7010E8E
:10028000436EAD6F9E9A3CEF00F00C424F525241CC
:10029000525F414C4C00424F525241525F414C4CD4
:1002A0000D0052455345545F4F4B0D0A0000524517
:1002B0005345545F4F4B0D0A0000424F525241527A
:1002C0005F414C4C0D0043324F4B000043314F4BCC
:1002D000000053455249414C5F544F4B0D0043328F
:1002E0004F4B0000537562320000633D3000202008
:1002F00020200000202020200000202020200000BE
:10030000424C0000424C0000424C00002020000003
:10031000534F4C4943495441444F0D0050415341C0
:100320004A45524F533A0D0053323A254C6420004F
:1003300042323A254C6420004143432B30313A2568
:1003400030344C752C2530344C752C2530344C759C
:100350002C2530334C752C2530334C752C25303200
:10036000752C0D0A00004143432B30313A253034BF
:100370004C752C2530344C752C444553432C25307A
:10038000334C752C3030302C253032752C0D0A0052
:100390004445534300000C002000200020002000B2
:1003A000200020002000200020002000200020004D
:1003B0006D656D6F72793A25730D000053313A25E2
:1003C0004C64200042313A254C64200053323A25D7
:1003D0004C64200042323A254C64200053313A20CC
:1003E0002020200042313A202020200053323A259C
:1003F0004C64200042323A254C6420005345524957
:10040000414C544553540D0A0000010EEA6ED80EBB
:10041000E96EEF500DE0060E016E006A002EFED769
:10042000012EFBD77B0E006E002EFED7EF2EF3D7EA
:1004300012000101DFB102D0899801D08988929819
:10044000DFB302D0899401D089849294DFB502D0C1
:10045000899201D089829292DFB702D0899001D02F
:1004600089809290000092968986020E006E002E7E
:10047000FED700D000009296899600011200969453
:100480008D94630E006E002EFED700D00101DC5368
:1004900003E096948D8402D096948D9400009296F9
:1004A0008996DD39DE6F0F0EDE17DEC1DFF1000148
:1004B000C0DF0101DD510F0BDE6FDF6F0001B9DF1F
:1004C0001200010E216E96948D9492968996230EB9
:1004D0000101D86F000199DF0101CD6BCD510208F8
:1004E0000CE3030EDF6F0001A4DF050E0101D86FDE
:1004F00000018BDF0101CD2BF1D7020EDF6F000170
:1005000098DF0101CD6BCD51030812E3036ACD5191
:100510000001D9DD0101CE6FDC6BDD6F0001AFDFC3
:10052000050E0101D86F000170DF0101CD2BEBD763
:100530000001C1EF16F0958E958CC3EF16F0080EF2
:10054000016E050E006E002EFED78C9E959E060E47
:10055000006E002EFED70101D7378C9CD8B0958C49
:10056000D8A0959C958E83AEFED7012E01D002D0E7
:100570000001E7D7050E006E002EFED78C9E959EDB
:100580000000958C060E006E002EFED7060E006E43
:10059000002EFED7958E83AEFED7016A060E006E42
:1005A000002EFED783BC01808C9E959E8C9C959CD2
:1005B00000011200958C050E006E002EFED7958E60
:1005C000060E006E002EFED78C9C959C050E006ECC
:1005D000002EFED78C9E959EA00E0101D76F0001C4
:1005E000AEDFD2C1D5F10101D66BD2C1D7F1000186
:1005F000A6DFD1C1D7F1A3DFD3C1D7F1A0DF959C8E
:100600000000958E83AEFED7050E006E002EFED73D
:1006100000D00000958C050E006E002EFED7958C44
:10062000050E006E002EFED7958E060E006E002E73
:10063000FED78C9C959C050E006E002EFED78C9EDE
:10064000959EA00E0101D76F000179DF01500101D5
:10065000D49101B0D481D4A11ED0958C050E006E2A
:10066000002EFED7958E060E006E002EFED783AEAE
:10067000FED78C9C959C050E006E002EFED78C9E9E
:10068000959EA00ED76F00015ADF01500101D49151
:1006900001B0D481E0D7959C0000958E83AEFED743
:1006A000050E006E002EFED700D00000958C050EC2
:1006B000006E002EFED700011200F29CF29EF2BEE8
:1006C000FDD70101CD6BCE6BD06BCF6BD06BCF6BF9
:1006D000CE6BCD6B3DC0D0F13CC0CFF1CFC1CEF1E0
:1006E000D0C1CDF1D26B140ED16FCDC1D3F10001C9
:1006F00061DF0101D26B150ED16FCEC1D3F10001C4
:1007000059DFC00EF2121200080E0101D56F00C0B1
:10071000D6F1958C060E006E002EFED7958E83AE18
:10072000FED783BCD88083ACD8900136050E006E0E
:10073000002EFED7959E8C9ED52FEBD7958C060E5E
:10074000006E002EFED78C9CD651D8A4959C00003C
:10075000958E83AEFED7050E006E002EFED78C9EC2
:10076000959E060E006E002EFED78C9C959C000177
:10077000F7EF03F0958C050E006E002EFED7958ED8
:10078000060E006E002EFED78C9C959C050E006E0A
:10079000002EFED78C9E959EA00E0101D76F000102
:1007A000CEDED2C1D4F10101D56BD2C1D7F10001A7
:1007B000C6DED1C1D7F1C3DE958C050E006E002ECA
:1007C000FED7958E060E006E002EFED783AEFED7A6
:1007D0008C9C959C050E006E002EFED78C9E959EDF
:1007E000A10E0101D76F0001AADE006A8DD701C0FA
:1007F000D3F1959C0000958E83AEFED7050E006E5A
:10080000002EFED700D00000958C050E006E002E45
:10081000FED70101D3C101F000011200F29CF29E4B
:10082000F2BEFDD70101CD6BCE6BD06BCF6BD26B1F
:10083000140ED16F00019EDF01C0CDF10101D26B1A
:10084000150ED16F000196DF01C0CEF10101D06B12
:10085000CDC1CFF1CFC1D0F1CF6BCE51CF13D0C12D
:100860003DF0CFC13CF0C00EF212000112000101B8
:10087000D951010A000107E0030A08E0010A0AE071
:10088000070A0CE010D00101DA6B0FD0400E010115
:10089000DA6F0BD0140E0101DA6F07D0540E01018C
:1008A000DA6F03D000010101DA6B010ED85DDA279F
:1008B000DA518009DB6FDC6BDD6F0001E0DD1200D7
:1008C0000101D7510C0A000105E0060A11E0020AF5
:1008D00018E01ED00101DC6B010EDD6F0001CFDDE1
:1008E000010E216E020E0101D86F00018EDD17D0BE
:1008F000212A010E0101D86F21C0D9F10001B7DF13
:100900000ED00101DC6B100EDD6F0001B8DD07D0E9
:10091000010E0101DC6FD7C1DDF10001B0DD120075
:100920000900F6CFCFF1F7CFD0F1F5CFD7F1C8DF7F
:10093000CFC1F6FFD0C1F7FF0101CE2F01D002D009
:100940000001EED700011200EACFD6F1E9CFD5F1D0
:100950000101CFAF08D0D58FD5A9D52BCE1FCF1F82
:10096000CE2BD8B4CF2BCF39F009D16FD127E20FDE
:10097000D26F320FD46FCF510F0BD227D227D4278B
:10098000E90FD36FD327D327CE390F0BD327D42723
:10099000D337D437D41FD437CE510F0BD427D13708
:1009A000070ED06F0A0ED307D427FDE3D207D32753
:1009B000FDE3D107D227FDE3D007D127FDE3010EE8
:1009C000EA6ED00EE96E070ED515D59DED52D51500
:1009D00007E1D5B9EE52D5B903D0200E006E20D074
:1009E000E926000EEA22E950D40803E1EA2C01D0FE
:1009F000D58DEF50006E08E1D5BD06D0D5B91DD01C
:100A0000D5B702D0200E0BD0D5AF06D02D0E006E7C
:100A1000ED50D59DD59F04D0D587D599300E0026B1
:100A2000EACFCFF1E9CFCEF100C0D7F1000148DF26
:100A3000CFC1EAFFCEC1E9FF0101EE50D5ADD3D75A
:100A4000000112000900F5520CE0F6CFCDF1F7CF0E
:100A5000CEF1F5CFD7F134DFCDC1F6FFCEC1F7FF30
:100A6000F1D71200010E0101D86FD96F0001FFDE2E
:100A70004552D8B48FD0310E0101D76F000120DF6D
:100A8000200E0101D76F00011BDF88C1D7F118DFED
:100A900089C1D7F115DF8AC1D7F112DF8BC1D7F138
:100AA0000FDF8CC1D7F10CDF200E0101D76F0001E1
:100AB00007DF0E0E0101D86F010ED96F0001D7DEDE
:100AC000BC0EF66E030EF76E030E0101CE6F000131
:100AD00027DF100EE96E8BC0CFF18AC0CEF134DF74
:100AE000200E0101D76F0001EBDE0E0E0101D86F61
:100AF000020ED96F0001BBDEC40EF66E030EF76E58
:100B0000030E0101CE6F00010BDF100EE96E8DC0E8
:100B1000CFF18CC0CEF118DF200E0101D76F00019C
:100B2000CFDE0E0E0101D86F030ED96F00019FDEDC
:100B3000CC0EF66E030EF76E030E0101CE6F0001B0
:100B4000EFDE100EE96E35C0CFF134C0CEF1FCDE21
:100B5000200E0101D76F0001B3DE0E0E0101D86F28
:100B6000040ED96F000183DED40EF66E030EF76E0D
:100B7000030E0101CE6F0001D3DE100EE96E37C007
:100B8000CFF136C0CEF1E0DE200E0101D76F0001BB
:100B900097DE6ED0320E0101D76F000191DE200E7C
:100BA0000101D76F00018CDE88C1D7F189DE89C1D0
:100BB000D7F186DE8AC1D7F183DE8BC1D7F180DE23
:100BC0008CC1D7F17DDE200E0101D76F000178DEE8
:100BD0000E0E0101D86F010ED96F000148DEDC0E48
:100BE000F66E030EF76E2EDF0E0E0101D86F020EA9
:100BF000D96F00013CDEE40EF66E030EF76E22DFC5
:100C00000E0E0101D86F030ED96F000130DEEC0E1D
:100C1000F66E030EF76E030E0101CE6F000180DE4B
:100C2000100EE96E8BC0CFF18AC0CEF18DDE200EA2
:100C30000101D76F000144DE0E0E0101D86F040ED2
:100C4000D96F000114DEF40EF66E030EF76E030E7C
:100C50000101CE6F000164DE100EE96E8DC0CFF190
:100C60008CC0CEF171DE200E0101D76F000128DEAD
:100C700012008C518A250101CD6F00018D518B210D
:100C80000101CE6FD890CE3100018F6F0101CD31BF
:100C900000018E6FE7DE5B6A5C6A2A6A2AC029F06F
:100CA00029C028F02D6A2DC02CF02CC02BF012008A
:100CB000F29CF29EF2BEFDD70101D26B020ED16F03
:100CC0008AC0D3F1000176DC8BC0CDF10101CE6B7F
:100CD000D26B010ED16F8BC0D3F100016BDCC00E63
:100CE000F212C7DF1200F29CF29EF2BEFDD70101A4
:100CF000D26B040ED16F8CC0D3F100015BDC8DC0D0
:100D0000CDF10101CE6BD26B030ED16F8DC0D3F14B
:100D1000000150DCC00EF212ACDF1200936B926B3C
:100D2000956B946B3D6A3C6AC8DC78DD8F6B8E6B8B
:100D3000916B906B8D6B8C6B8B6B8A6BB9DFD3DF98
:100D40004D6A4C6A526A536A546A0101D26B090EA9
:100D5000D16F52C0D3F100012DDC0101D26B0A0E1C
:100D6000D16F53C0D3F1000125DC0101D26B0B0E12
:100D7000D16F54C0D3F100011DDC960EF66E030E48
:100D8000F76E60DE6FDE1200F29CF29EF2BEFDD7BF
:100D90000101CD6BCE6BD06BCF6BD26B010ED16FDF
:100DA0000001E8DC01C0CDF10101D26B020ED16F70
:100DB0000001E0DC01C0CEF10101D06BCDC1CFF16B
:100DC000CFC1D2F1D16BD151CE11CF6FD2C1D0F101
:100DD000D0C18BF0CFC18AF0C00EF21200010AEF31
:100DE00017F0F29CF29EF2BEFDD70101CD6BCE6BE7
:100DF000D06BCF6BD26B030ED16F0001BBDC01C097
:100E0000CDF10101D26B040ED16F0001B3DC01C042
:100E1000CEF10101D06BCDC1CFF1CFC1D2F1D16BF9
:100E2000D151CE11CF6FD2C1D0F1D0C18DF0CFC191
:100E30008CF0C00EF21200010CEF17F00900F55211
:100E40000DE0F6CFCFF1F7CFD0F1F5509EA8FED749
:100E5000AD6ECFC1F6FFD0C1F7FFF0D71200D05072
:100E60000F0BD0A8000ED080D082D088D886D8882A
:100E7000070A07E0080A06E0010A0AE0020A09E098
:100E800008D007D0FC0EF66E030EF76ED7DF01D048
:100E900000D07BEF17F0100E0101CE6F010ECD6F69
:100EA000208C9480100E006E002EFED70000CD2FF7
:100EB00005D0CE2F03D0206A016A24D082B0F2D7A9
:100EC000080E006ECF6BF2CFD0F1F29E008E0ED0E6
:100ED000009E0CD0D89082B0D880CF33008C06D042
:100EE000009C002EF7D7CF51016E0CD0A70E00BE8C
:100EF0002D0E016E012EFED7000000BEE9D700BC0A
:100F0000EFD7E8D7D0BFF28E0001D9EF17F0496ACA
:100F1000486A48C044F04B6A0A0E4A6E49524AE198
:100F20004850090847E3445245E1416A482AD8B489
:100F3000492A4150090838E3036A4150BD0FE96E60
:100F4000010E0320EA6E41504A240101CF6F000ECA
:100F50004B20D06FF2CFD1F1F29ECFC1A9FFA69C5A
:100F6000A69EA680A850D1BFF28EEF6E036A4150B4
:100F7000BD0FE96E010E0320EA6EEFCFCDF1036ADB
:100F800041508E0FE96E010E0320EA6EEF50CD5DE9
:100F900003E0000109D00101412A41500A0802E1A1
:100FA000010E446E0001C5D70A0E4A26000E4B22E0
:100FB0000400B4D711EF18F00101D3C1E9FFD4C187
:100FC000EAFFEFCFD7F1D6C103F0D5C1E9FFD6C113
:100FD000EAFFEF50D75D15E1D4C103F0D3C1E9FFBB
:100FE00003C0EAFFEF5203E1000E016E1FD0D4C12F
:100FF00003F0D351D32BD8B4D42BD52BD8B4D62BC4
:10100000DCD7D4C103F0D3C1E9FFD4C1EAFFEFCFED
:10101000D7F1D6C103F0D5C1E9FFD6C1EAFFEF5041
:10102000D75D02E2FF0E01D0010E016E000139EF23
:1010300008F00101CF6BCF510A0823E3036ACFC147
:1010400002F0D890023603360250EE0FE96E000E21
:101050000320EA6EECCFD2F1ED52EFCFD1F1D2C145
:10106000D4F1D1C1D3F1CEC1D6F1CDC1D5F10001BA
:10107000A3D701C0D0F10101D05301E102D0CF2BA1
:10108000DAD78F51410817E19051530814E191517B
:10109000410811E192514A080EE1935145080BE1D4
:1010A0009451520808E195514F0805E196515308B3
:1010B00002E1050ECF6FCFC101F0000119EF18F06A
:1010C0000101D451016AD35D03E2D3C100F00CD019
:1010D000006A080ED56FD3370036D451005CD8B003
:1010E000006E0136D52FF7D700011200200E010146
:1010F000CEA9300ECF6FCDC100F0CDAF08D0001E0D
:10110000002A00C0CDF12D0ECF6FCE8FCE810150C1
:10111000CDC1D3F1640ED46F0001D2DF00C0CDF198
:10112000300E01240101D06FCDC1D3F10A0ED46F6E
:101130000001C6DF300E00240101D26F300E012401
:10114000D16FCFC100F0300ED05D04E0CE83CEBFB2
:10115000CE8512D0CFC1D0F1200ECF6F300ED15D31
:1011600004E0CE81CEBFCE8307D0D8A4CE8104E1E7
:10117000D0C1D1F1200ED06FCEB505D0CEB308D0FE
:10118000CEB10BD00FD0CFC1D7F1000160EC04F08D
:10119000D0C1D7F1000160EC04F0D1C1D7F100015A
:1011A00060EC04F0D2C1D7F1000160EC04F0120051
:1011B000F2CF03F0F29E94928B92080E016E00D053
:1011C0000000018E10D0019E0101D6330001D8B07D
:1011D0008B82D8A08B92018C06D0019C012EF4D773
:1011E00000D000008B82A70EE96EE92EFED700D05A
:1011F00001BEE9D701BCF1D703BEF28E120009008F
:10120000F5520CE0F6CFCDF1F7CFCEF1F5CFD6F118
:10121000CFDFCDC1F6FFCEC1F7FFF1D71200100E20
:10122000F66E030EF76E0ADEAA6BA96B010E466E10
:101230004F6A4E6A12008C518A250101CF6F00015E
:101240008D518B210101D06FD890D031CE6FCF312D
:10125000CD6F5350522454244C6E4D6A010E000140
:10126000AB6FAC6B090E0101D86F030ED96F000193
:1012700037EC04F0AB0E0101D76F000160EC04F015
:101280001C0EF66E030EF76ED9DD1200016603D058
:10129000026602D007D0022A00C0EEFF012EFCD762
:1012A000022EFAD71200D7C1DBF1D6C1DAF1DBC1C9
:1012B00003F00101DAC1E9FFDBC1EAFFEF5230E0E0
:1012C000D9C1DDF1D8C1DCF1DDC103F0DCC1E9FF3A
:1012D000DDC1EAFFEF520AE1D651DA5D006ED75167
:1012E000DB59036E00C001F023D010D0DAC1E9FF52
:1012F000DBC1EAFFEFCFDEF1DDC103F0DCC1E9FFC6
:10130000DDC1EAFFEF50DE5D01E104D0DC2BD8B493
:10131000DD2BDAD7DA2BD8B4DB2B0001C8D70101DB
:10132000D651DA5D006ED751DB59036E00C001F073
:101330000001F0EF09F0D7C1DBF1D6C1DAF1DBC172
:1013400003F00101DAC1E9FFDBC1EAFFEF522AE055
:10135000D9C1DDF1D8C1DCF1DDC103F0DCC1E9FFA9
:10136000DDC1EAFFEF5218E0DAC1E9FFDBC1EAFFB5
:10137000EFCFDEF1DDC103F0DCC1E9FFDDC1EAFF43
:10138000EF50DE5D05E1DAC101F0DBC102F00DD006
:10139000DC2BD8B4DD2BE0D7DA2BD8B4DB2B000163
:1013A000CED70101000E016E026E000111EF0AF0AE
:1013B0000101CE51CF1104E0CFC103F0CE5103D0D3
:1013C0001AC003F01950D26F03C0D3F1D3C1D7F1C3
:1013D000D2C1D6F1D1C1D9F1D0C1D8F1000163D7C2
:1013E00001500101D227000ED323D3C103F0D2C193
:1013F000E9FFD3C1EAFFEF520AE119C0E9FF1AC0C1
:10140000EAFF200EEF6E000E016E026E27D0D3C1F0
:10141000D7F1D2C1D6F1D1C1D9F1D0C1D8F10001F3
:101420008AD702C0D5F101C0D4F1D5C103F00101C2
:10143000D4C1E9FFD5C1EAFFEF5208E0D4C1E9FF0A
:10144000D5C1EAFFEF6AD42BD8B4D52BD5C11AF099
:10145000D4C119F0D2C101F0D3C102F000011200D1
:101460000101D66BD46B0A0ED56FD36BD26BD16BE7
:10147000D06BCE51CF1105E1006A016A026A036A9E
:1014800037D1D651D62BCE25E96E000ECF21EA6E8C
:10149000EFCFD7F1D7512D080CE1010ED46FD65103
:1014A000D62BCE25E96E000ECF21EA6EEFCFD7F115
:1014B0000CD0D7512B0809E1D651D62BCE25E96E99
:1014C000000ECF21EA6EEFCFD7F1D7512F08D8B059
:1014D000F7D0D7513908D8A0F3D0D75130081EE142
:1014E000D651CE25E96E000ECF21EA6EEF50780876
:1014F00009E0D651CE25E96E000ECF21EA6EEF50FD
:1015000058080CE1100ED56FD62BD651D62BCE2510
:10151000E96E000ECF21EA6EEFCFD7F1D5510A0860
:1015200043E1D7512F083FE2D75139083CE3D89027
:10153000D035D96FD135DA6FD235DB6FD335DC6F6B
:10154000D035006ED135016ED235026ED335036EC3
:1015500000360136023603360036013602360336CF
:10156000F80E0016D9510026DA510122DB51022271
:10157000DC51032203C0D3F102C0D2F101C0D1F18A
:1015800000C0D0F1300ED75DD027000ED123D2237A
:10159000D323D651D62BCE25E96E000ECF21EA6E8D
:1015A000EFCFD7F1BED78CD0D5511008D8A488D0B2
:1015B000D751600806E2D7517A0803E3D751DF0B11
:1015C00001D0D751D76FD7512F0803E2D75139082F
:1015D00007E2D7514008D8B073D0D751460870E31E
:1015E000D7512F082EE2D75139082BE3D035D96FC8
:1015F000D135DA6FD235DB6FD335DC6FD937DA37D7
:10160000DB37DC37D937DA37DB37DC37D937DA374E
:10161000DB37DC37F00ED917300ED75DD925006ED9
:10162000000EDA21016E000EDB21026E000EDC21BD
:10163000036ED36F02C0D2F101C0D1F100C0D0F16E
:101640002AD0D035D96FD135DA6FD235DB6FD335AB
:10165000DC6FD937DA37DB37DC37D937DA37DB37C6
:10166000DC37D937DA37DB37DC37F00ED917410EE4
:10167000D75D0A0FD925006E000EDA21016E000E2B
:10168000DB21026E000EDC21D36F02C0D2F101C05B
:10169000D1F100C0D0F1D651D62BCE25E96E000E87
:1016A000CF21EA6EEFCFD7F1D751600806E2D751CC
:1016B0007A0803E3D751DF0B01D0D751D76F83D717
:1016C000D5510A080DE1D42D0BD0D01FD11FD21F48
:1016D000D31FD02BD8B4D12BD8B4D22BD8B4D32B82
:1016E000D0C100F0D1C101F0D2C102F0D3C103F0EA
:1016F000000112009D9A396A386A3B6A3A6A2F6A79
:101700002E6A316A306A976B966B336A326A916BD4
:10171000906B010EEA6EAE0EE96E006A026A050E6B
:10172000016EB4DD010EEA6EB30EE96E006A026A64
:10173000050E016EABDD010EEA6EB80EE96E006AB1
:10174000026A050E016EA2DD010EEA6EB80EE96EA8
:10175000006A026A050E016E99DD0A0E416E426A48
:10176000EA6AB10EE96E000E7BEC00F00A00090097
:10177000F550EE6E0009FBE1010E0101CF6F8E0EF8
:10178000CE6FD16BB10ED06F000112DE02C0B5F08A
:1017900001C0B4F00101CD6BEA6AB60EE96EB5C0C6
:1017A000E2FFB4C0E1FFE752E6CFEEFFFCE1CF6B12
:1017B000CE6BD16BB10ED06F0001FADD02C0CFF15C
:1017C00001C0CEF1EA6AC40EE96E02C0E2FF01C0B8
:1017D000E1FFE752E6CFEEFFFCE10101CF6BCE6BFC
:1017E000D16BB10ED06F0001E3DD02C0CFF101C0BB
:1017F000CEF1EA6ACE0EE96E02C0E2FF01C0E1FF5F
:10180000E752E6CFEEFFFCE10101CF6BCE6BD16B6F
:10181000B10ED06F0001CCDD02C0CFF101C0CEF11E
:10182000EA6AD80EE96E02C0E2FF01C0E1FFE752AA
:10183000E6CFEEFFFCE10101CF6BCE6BD16BB10EB9
:10184000D06F0001B5DD02C0CFF101C0CEF1EA6A70
:10185000E20EE96E02C0E2FF01C0E1FFE752E6CF0F
:10186000EEFFFCE10101CF6BCE6BD16BB10ED06FFF
:1018700000019EDD02C0B5F001C0B4F00101CD2B26
:10188000CF6BC40ECE6F0001EBDD01C035F000C0A0
:1018900034F00101CF6BCE0ECE6F0001E1DD01C04F
:1018A00037F000C036F00101CF6BD80ECE6F0001CB
:1018B000D7DD01C097F000C096F00101CF6BE20EBA
:1018C000CE6F0001CDDD01C033F000C032F00E0E4E
:1018D0000101D86F030ED96F000137EC04F0280E18
:1018E000F66E030EF76E030E0101CE6F000190EC51
:1018F00004F0100EE96E35C0CFF134C0CEF1A4EC87
:1019000004F0200E0101D76F000160EC04F00E0E10
:101910000101D86F040ED96F000137EC04F0300ECE
:10192000F66E030EF76E030E0101CE6F000190EC10
:1019300004F0100EE96E37C0CFF136C0CEF1A4EC42
:1019400004F0200E0101D76F000160EC04F082EF7B
:1019500018F00900F6CFCEF1F7CFCFF1F5CFD6F1E1
:1019600027DCCEC1F6FFCFC1F7FF0101CD2F01D09B
:1019700002D00001EED700011200EACFD5F1E9CF85
:10198000D4F10101CE39F009D06FD027E20FD16F29
:10199000320FD36FCE510F0BD127D127D327E90FA9
:1019A000D26FD227D227CD390F0BD227D327D237E8
:1019B000D337D31FD337CD510F0BD327D037070ED3
:1019C000CF6F0A0ED207D327FDE3D107D227FDE35D
:1019D000D007D127FDE3CF07D027FDE3010EEA6E44
:1019E000CF0EE96E070ED415D49DE926000EEA222B
:1019F000E950D30803E1EA2C01D0D48DEF50006EFA
:101A000008E1D4BD06D0D4B916D0D4B702D0200E88
:101A100003D0D487D499300E0026EACFCEF1E9CF97
:101A2000CDF100C0D6F10001D8EC08F0CEC1EAFF3C
:101A3000CDC1E9FF0101EE50D4ADDAD700011200AB
:101A40000150CDC1D3F1640E0101D46F000160ECEF
:101A500008F000C0CDF10150300E08E10101CEA325
:101A600010D0CEB70ED0CEB9200E04D00101CE9743
:101A7000CE99CE81012601C0D6F10001D8EC08F044
:101A80000101CDC1D3F10A0ED46F000160EC08F062
:101A900000C0CDF10150300E08E10101CEB70BD0EE
:101AA000CEA109D0CEB9200E0001012601C0D6F189
:101AB000D8EC08F00101300ECD27CDC1D6F10001E0
:101AC000D8EC08F012009D9A5350522454244C6EC6
:101AD0004D6A010EEA6EAE0EE96E006A026A050EEC
:101AE000016E46EC09F0010EEA6EB30EE96E006A73
:101AF000026A050E016E46EC09F0010EEA6EB80EA0
:101B0000E96E006A026A050E016E46EC09F00A0EE3
:101B1000416E426A8C518A250101CD6F00018D51C1
:101B20008B210101CE6FD890CE31396ECD31386E18
:101B300000010EEC04F03C503824906F3D503920E9
:101B4000916F010E236E660EF66E030EF76E070E92
:101B50000101CD6F0001FDDE090EE96E91C0CEF1ED
:101B600090C0CDF10ADF2C0E0101D66F0001D8EC38
:101B700008F0090EE96E39C0CEF138C0CDF1FDDEB6
:101B8000780EF66E030EF76E060E0101CD6F0001A2
:101B9000E0DE0A0EE96E4DC0CEF14CC0CDF1EDDEB7
:101BA000830EF66E030EF76E050E0101CD6F000178
:101BB000D0DE23C0CDF1010E0101CE6F000140DF68
:101BC0008C0EF66E030EF76E030E0101CD6F000151
:101BD000C0DE090E0101D86F030ED96F000137EC8A
:101BE00004F0AB0E0101D76F000160EC04F0090EA8
:101BF0000101D86F040ED96F000137EC04F0900E8C
:101C0000F66E030EF76E22EC05F0010EAB6FAC6BB7
:101C1000AA6BA96B466A9D8A36EF19F035C02FF082
:101C200034C02EF037C031F036C030F08C518A25E8
:101C30000101CD6F00018D518B210101CE6FD89034
:101C4000CE31396ECD31386E30502E24CD6F3150BB
:101C50002F20CE6FD890CE31516ECD31506E000115
:101C60000EEC04F03250505C0FE13350515C0CE14B
:101C700051C03BF050C03AF03BC03DF03AC03CF0A0
:101C80005DEC03F0236A02D0020E236E3A50382432
:101C9000906F3B503920916F5350522454244C6E16
:101CA0004D6A380EF66E030EF76E070E0101CD6F0A
:101CB00000014FDE090EE96E91C0CEF190C0CDF16A
:101CC0005CDE2C0E0101D66F0001D8EC08F0090E85
:101CD000E96E39C0CEF138C0CDF14FDE2C0E0101D6
:101CE000D66F0001D8EC08F0090EE96E3BC0CEF1CA
:101CF0003AC0CDF142DE2C0E0101D66F0001D8ECC6
:101D000008F00A0EE96E4DC0CEF14CC0CDF135DEC3
:101D10002C0E0101D66F0001D8EC08F00A0EE96E16
:101D200097C0CEF196C0CDF128DE2C0E0101D66F02
:101D30000001D8EC08F023C0CDF1010E0101CE6FF7
:101D400000017EDE610EF66E030EF76E030E0101DA
:101D5000CD6F0001FEDD32EC05F0090E0101D86FF8
:101D6000030ED96F000137EC04F0AB0E0101D76F01
:101D7000000160EC04F0010EAB6FAC6BAA6BA96BB9
:101D8000246A9D8A3BEF19F05B5222E15C5220E10C
:101D9000692D03D06B2D01D009D0692D03D06D2D95
:101DA00001D004D06B2D04D06D2D02D0010E5B6EDE
:101DB0006A2D03D06C2D01D009D06A2D03D06E2D71
:101DC00001D004D06C2D04D06E2D02D0010E5C6EBB
:101DD0001200755322E1692D20D06A531EE177531A
:101DE0001CE178531AE15B5203E15C52D8B4CCDFBA
:101DF000080E0101D86F020ED96F000137EC04F014
:101E00007F0E0101D76F000160EC04F0010E986FA6
:101E1000766F776F796F756F1ED175530EE1692DEF
:101E20000CD06A2D0AD0772D08D0785306E1030E26
:101E3000766F796B010E756F0ED175530DE1695395
:101E40000BE16A2D09D0772D07D0785305E1040EF8
:101E5000766F010E756FFFD075532AE1695328E143
:101E60006A5326E1795324E1772D22D0785320E17B
:101E7000080E0101D86F020ED96F000137EC04F093
:101E8000980EF66E030EF76E22EC05F0986B7B5100
:101E9000040806E1050E766F776B010E756F07D0AB
:101EA000986B060E766F776B796B010E756FD3D0DA
:101EB000755320E169531EE16A531CE1792D1AD054
:101EC000772D18D0785316E1080E0101D86F020E55
:101ED000D96F000137EC04F09A0EF66E030EF76E20
:101EE00022EC05F0986B060E766F776B796B010E1E
:101EF000756FB1D075530EE1692D0CD06A530AE1AC
:101F0000772D08D0785306E1020E766F010E796FB7
:101F1000756FA1D0755323E1695321E16A2D1FD05C
:101F200077531DE178531BE15B5203E15C52D8B457
:101F30002BDF080E0101D86F020ED96F000137ECBC
:101F400004F07E0E0101D76F000160EC04F0010E79
:101F5000986F070E766F010E786F756F7CD0755392
:101F60000EE169530CE16A2D0AD0775308E1782D10
:101F700006D0080E766F010E796F756F6CD07553B1
:101F80000EE1692D0CD06A2D0AD0775308E1782D27
:101F900006D0090E766F796B010E756F5CD07553A4
:101FA0000DE1692D0BD06A5309E1775307E1782DD4
:101FB00005D00A0E766F010E756F4DD075532AE16C
:101FC000695328E16A5326E1795324E1775322E1EA
:101FD000782D20D0080E0101D86F020ED96F0001B4
:101FE00037EC04F09C0EF66E030EF76E22EC05F053
:101FF0007B510A0807E1986B0B0E766F786B010E28
:10200000756F07D0986B0C0E766F786B796B010E3D
:10201000756F21D075531FE169531DE16A531BE1B0
:10202000792D19D0775317E1782D15D0080E0101BD
:10203000D86F020ED96F000137EC04F09E0EF66ED9
:10204000030EF76E22EC05F0986B0C0E766F786B32
:10205000796B010E756F1200695335E16A5333E1F4
:102060006B5331E16C532FE16D532DE16E532BE136
:10207000295028242A24256E2C502B242D24266E0A
:102080002550010803E3265001080EE22550265C86
:1020900006E28A2BD8B48B2B58EC06F005D08C2B9B
:1020A000D8B48D2B73EC06F02A6A2AC029F029C017
:1020B00028F028C025F02D6A2DC02CF02CC02BF064
:1020C0002BC026F07FD09E5305E19F5303E1A05320
:1020D000D8B478D09F519E25A025276E272C48D0B4
:1020E0009E5316E06B5313E16C5311E16D530FE1F6
:1020F0006E530DE15B2C06D08A2BD8B48B2B58EC99
:1021000006F005D08C2BD8B48D2B73EC06F02FD0B5
:102110009F5316E0695313E16A5311E16D530FE1C8
:102120006E530DE15B5206E08A2BD8B48B2B58EC32
:1021300006F005D08C2BD8B48D2B73EC06F017D09D
:10214000A05315E06B5313E16C5311E169530FE198
:102150006A530DE15B5206E08A2BD8B48B2B58EC06
:1021600006F005D08C2BD8B48D2B73EC06F01CD068
:10217000295028242A24256E2C502B242D24266E09
:102180002550000803E3265000080EE22550265C87
:1021900006E28A2BD8B48B2B58EC06F005D08C2B9A
:1021A000D8B48D2B73EC06F02A6A2AC029F029C016
:1021B00028F028C025F02D6A2DC02CF02CC02BF063
:1021C0002BC026F0120076517B5D04E076C07BF0D8
:1021D000010E7A6F7A2D1ED0010E765DF40F18E293
:1021E0000C0F0BEF11F014D02B5203E1010E286EEF
:1021F00001D02B6A31DF0CD02FDF0AD009D0285252
:1022000003E1010E2B6E01D0286A26DF01D024DF06
:102210007A6B756B1200E824F76AF736310FF66EA9
:10222000220EF7220A00F550FA6E0800F550F96EFA
:10223000E621102210221022E821F821FC21102290
:1022400010221022FE210E227C5322E16B2D20D081
:102250006C531EE17E531CE17F531AE15B5203E194
:102260005C52D8B491DD080E0101D86F030ED96F0E
:10227000000137EC04F07F0E0101D76F000160EC24
:1022800004F0010E996F7D6F7E6F806F7C6F1ED1A1
:102290007C530EE16B2D0CD06C2D0AD07E2D08D016
:1022A0007F5306E1030E7D6F806B010E7C6F0ED1B4
:1022B0007C530DE16B530BE16C2D09D07E2D07D0C3
:1022C0007F5305E1040E7D6F010E7C6FFFD07C53C0
:1022D0002AE16B5328E16C5326E1805324E17E2DE3
:1022E00022D07F5320E1080E0101D86F030ED96F71
:1022F000000137EC04F0A00EF66E030EF76E22EC30
:1023000005F08251040807E1996B050E7D6F7E6B25
:10231000010E7C6F07D0996B060E7D6F7E6B806B14
:10232000010E7C6FD3D07C5320E16B531EE16C53C4
:102330001CE1802D1AD07E2D18D07F5316E1080E97
:102340000101D86F030ED96F000137EC04F0A20E23
:10235000F66E030EF76E22EC05F0996B060E7D6F9C
:102360007E6B806B010E7C6FB1D07C530EE16B2DC8
:102370000CD06C530AE17E2D08D07F5306E1020E8B
:102380007D6F010E806F7C6FA1D07C5323E16B5376
:1023900021E16C2D1FD07E531DE17F531BE15B5269
:1023A00003E15C52D8B4F0DC080E0101D86F030ED3
:1023B000D96F000137EC04F07E0E0101D76F0001E8
:1023C00060EC04F0010E996F070E7D6F010E7F6FB8
:1023D0007C6F7CD07C530EE16B530CE16C2D0AD0EA
:1023E0007E5308E17F2D06D0080E7D6F010E806FB1
:1023F0007C6F6CD07C530EE16B2D0CD06C2D0AD011
:102400007E5308E17F2D06D0090E7D6F806B010E93
:102410007C6F5CD07C530DE16B2D0BD06C5309E1CC
:102420007E5307E17F2D05D00A0E7D6F010E7C6F74
:102430004DD07C532AE16B5328E16C5326E1805345
:1024400024E17E5322E17F2D20D0080E0101D86FB8
:10245000030ED96F000137EC04F0A40EF66E030EE4
:10246000F76E22EC05F082510A0807E1996B0B0E1A
:102470007D6F7F6B010E7C6F07D0996B0C0E7D6FAB
:102480007F6B806B010E7C6F21D07C531FE16B53FF
:102490001DE16C531BE1802D19D07E5317E17F2D78
:1024A00015D0080E0101D86F030ED96F000137EC6B
:1024B00004F0A60EF66E030EF76E22EC05F0996B93
:1024C0000C0E7D6F7F6B806B010E7C6F12007D5157
:1024D000825D04E07DC082F0010E816F812D1ED0EF
:1024E000010E7D5DF40F18E20C0F8FEF12F014D087
:1024F0002C5203E1010E296E01D02C6AADDD0CD007
:10250000ABDD0AD009D0295203E1010E2C6E01D0B7
:10251000296AA2DD01D0A0DD816B7C6B1200E8246A
:10252000F76AF736390FF66E250EF7220A00F550D6
:10253000FA6E0800F550F96EEE24182518251825B6
:10254000F02400250425182518251825062516250C
:10255000835322E16D2D20D06E531EE185531CE183
:1025600086531AE15B5203E15C52D8B40DDC080ECD
:102570000101D86F040ED96F000137EC04F07F0E13
:102580000101D76F000160EC04F0010E9A6F846FB7
:10259000856F876F836F1FD183530EE16D2D0CD034
:1025A0006E2D0AD0852D08D0865306E1030E846F68
:1025B000876B010E836F0FD183530DE16D530BE1D8
:1025C0006E2D09D0852D07D0865305E1040E846F4A
:1025D000010E836F00D183532AE16D5328E16E53BE
:1025E00026E1875324E1852D22D0865320E1080E71
:1025F0000101D86F040ED96F000137EC04F0A80E6A
:10260000F66E030EF76E22EC05F08951040807E11F
:102610009A6B050E846F856B010E836F07D09A6BE2
:10262000060E846F856B876B010E836FD4D0835346
:1026300020E16D531EE16E531CE1872D1AD0852DCC
:1026400018D0865316E1080E0101D86F040ED96F19
:10265000000137EC04F0AA0EF66E030EF76E22ECC2
:1026600005F09A6B060E846F856B876B010E836F86
:10267000B2D083530EE16D2D0CD06E530AE1852D3F
:1026800008D0865306E1020E846F010E876F836FB8
:10269000A2D0835324E16D5322E16E2D20D08553C7
:1026A0001EE186531CE15B5204E15C52D8B4C4ECD9
:1026B0000EF0080E0101D86F040ED96F000137EC3F
:1026C00004F07E0E0101D76F000160EC04F0010EF2
:1026D0009A6F070E846F010E866F836F7CD08353D1
:1026E0000EE16D530CE16E2D0AD0855308E1862D65
:1026F00006D0080E846F010E876F836F6CD08353F2
:102700000EE16D2D0CD06E2D0AD0855308E1862D7B
:1027100006D0090E846F876B010E836F5CD08353E4
:102720000DE16D2D0BD06E5309E1855307E1862D28
:1027300005D00A0E846F010E836F4DD083532AE1BA
:102740006D5328E16E5326E1875324E1855322E13E
:10275000862D20D0080E0101D86F040ED96F00011C
:1027600037EC04F0AC0EF66E030EF76E22EC05F0BB
:1027700089510A0807E19A6B0B0E846F866B010E74
:10278000836F07D09A6B0C0E846F866B876B010E7C
:10279000836F21D083531FE16D531DE16E531BE105
:1027A000872D19D0855317E1862D15D0080E01010C
:1027B000D86F040ED96F000137EC04F0AE0EF66E40
:1027C000030EF76E22EC05F09A6B0C0E846F866B8D
:1027D000876B010E836F12008451895D04E084C011
:1027E00089F0010E886F882D1ED0010E845DF40FD4
:1027F00018E20C0F14EF14F014D02D5203E1010E67
:102800002A6E01D02D6A28DC0CD026DC0AD009D033
:102810002A5203E1010E2D6E01D02A6A1DDC01D07F
:102820001BDC886B836B1200E824F76AF736430FD2
:10283000F66E280EF7220A00F550FA6E0800F550E1
:10284000F96EF827222822282228FA270A280E289B
:10285000222822282228102820289388556A81B807
:10286000552A552C0CD05E6A5D6A696B9B6BA26B16
:10287000A16B9E5303E094968B969E6B2DD05E5277
:1028800003E15D50040802E2010E696F69516F5D5A
:1028900023E069C06FF0010E7A6F050E0101D86F59
:1028A000020ED96F000137EC04F0310E0101D76F31
:1028B000000160EC04F03A0E0101D76F000160ECFA
:1028C00004F06FC0CDF1180E0101CE6F000176EC5F
:1028D00008F0E9EC0EF077DC9588566A83B8562A42
:1028E000562C0ED094988B88606B5F6A6A6B9B6BDA
:1028F000A26BA16B9E5303E094968B969E6B34D093
:1029000094988B98605303E15F50040802E2010E33
:102910006A6F6A51705D28E06AC070F0010E7A6FCC
:102920000101D86F020ED96F000137EC04F0320EAE
:102930000101D76F000160EC04F03A0E0101D76F7E
:10294000000160EC04F070C0CDF1180E0101CE6FF3
:10295000000176EC08F0200E0101D76F000160EC59
:1029600004F0E9EC0EF02FDC9384576A81B4572A07
:10297000572C0CD0626B616B6B6B9C6BA46BA36B65
:102980009F5303E094968B969F6B2CD0625303E188
:102990006151040802E2010E6B6F6B51715D22E020
:1029A0006BC071F0010E816F050E0101D86F030E2F
:1029B000D96F000137EC04F0330E0101D76F00012D
:1029C00060EC04F03A0E0101D76F000160EC04F0F6
:1029D00071C0CDF1180E0101CE6F000176EC08F048
:1029E00033DC75DD9386586A81B6582A582C0ED090
:1029F00094988B88646B636B6C6B9C6BA46BA36B00
:102A00009F5303E094968B969F6B34D094988B9849
:102A1000645303E16351040802E2010E6C6F6C51D0
:102A2000725D28E06CC072F0010E816F0101D86FF9
:102A3000030ED96F000137EC04F0340E0101D76F9B
:102A4000000160EC04F03A0E0101D76F000160EC68
:102A500004F072C0CDF1180E0101CE6F000176ECCA
:102A600008F0200E0101D76F000160EC04F024ECA7
:102A700011F02DDD9380596A81B0592A592C0CD060
:102A8000666B656B6D6B9D6BA66BA56BA05303E0CE
:102A900094968B96A06B2CD0665303E16551040885
:102AA00002E2010E6D6F6D51735D22E06DC073F037
:102AB000010E886F050E0101D86F040ED96F000159
:102AC00037EC04F0350E0101D76F000160EC04F023
:102AD0003A0E0101D76F000160EC04F073C0CDF134
:102AE000180E0101CE6F000176EC08F031DD74DEC6
:102AF00093825A6A81B25A2A5A2C0ED094988B88A3
:102B0000686B676B6E6B9D6BA66BA56BA05303E048
:102B100094968B96A06B33D094988B98685303E16E
:102B20006751040802E2010E6E6F6E51745D27E07A
:102B30006EC074F0010E886F0101D86F040ED96F5A
:102B4000000137EC04F0360E0101D76F000160EC94
:102B500004F03A0E0101D76F000160EC04F074C07C
:102B6000CDF1180E0101CE6F000176EC08F0200EB9
:102B70000101D76F000160EC04F0EADC2DDE692D65
:102B800008D06A2D06D09B5304E1010E9B6FA26B07
:102B9000A16B6B2D08D06C2D06D09C5304E1010E67
:102BA0009C6FA46BA36B6D2D08D06E2D06D09D532A
:102BB00004E1010E9D6FA66BA56B06EF1AF0F86A93
:102BC000D09E078EFE0E006E060E016E020EE96E9E
:102BD000000EEA6EEE6A002EFDD7012EFBD71F6AAB
:102BE000B886080EAF6E020EB06EA60EAC6E900EDA
:102BF000AB6E206A94928B82436A456A526A536A2A
:102C0000546A556A566A576A586A596A5A6A5B6AB8
:102C10005C6A5E6A5D6A606B5F6A626B616B646B63
:102C2000636B666B656B686B676B756B766B776BED
:102C3000786B796B7A6B7B6B7C6B7D6B7E6B7F6B60
:102C4000806B816B826B836B846B856B866B876B10
:102C5000886B896B8B6B8A6B8D6B8C6B8F6B8E6BC0
:102C6000916B906B936B926B956B946B986B996B6C
:102C70009A6BAD6BAE6BB06BAF6BEC6BED6BC15029
:102C8000C00B0F09C16E070EB46E55D002001900BB
:102C90000005010456352E303105C0206E800D0030
:102CA000424F525241525F414C4C0D0047524142FB
:102CB00041525F4441540D004C4545524355454EE9
:102CC00054410D00534F4C4943495441444F0D006A
:102CD000504153414A45524F533A0D0053455249D2
:102CE000414C544553540D0053455249414C5F5497
:102CF0004F4B0D0053554249454E444F43320D0052
:102D000053494E46554E43494F4E0D000AC02002CE
:102D1000800D001600EE040110011C012801340191
:102D200040014C015801640170017C010601885684
:102D3000352E30320000000EF86E2C0EF76E8C0E21
:102D4000F66E0900F550006E000A13E00900F55018
:102D5000016EE8BE05D00F0BEA6E0900F5CFE9FF62
:102D600001BC090001AC0900F5CFEEFF004EE9D728
:102D7000F9D7F86AC150C00B0F09C16EC29061EF5C
:102D800002F09BEF02F0B50ECD6E9D80E70ECF6E88
:102D9000960ECE6EF298C00EF21294948B94949488
:102DA0008B940C0EBD6E000E0409CA6E830ECB6EA2
:102DB000450EBE6EBD50CF0B3009BD6EF2CFCDF1CA
:102DC000F29E640EA96EA69CA69EA680A850010144
:102DD000CDBFF28E406E402C01D019D0F250006E63
:102DE000F29E640EA96E010EA86EA69CA69EA684F5
:102DF0000F01550EA76EAA0EA76EA682A6B2FED729
:102E0000A6940050F21200018EEC06F001010001C0
:102E1000C4EF06F0F1EF06F05A6A5AC059F059C0F3
:102E200058F058C057F057C056F056C055F0A66B32
:102E3000A56BA6C0A4F0A5C0A3F0A4C0A2F0A3C037
:102E4000A1F0A06BA0C09FF09FC09EF0AA6BA96BE1
:102E5000958483A405D0010E456E1D0E226E03D00D
:102E6000456A0F0E226E32EC05F00101D26B090E9D
:102E7000D16F0001BAEC03F001C052F00101D26B36
:102E80000A0ED16F0001BAEC03F001C053F001014A
:102E9000D26B0B0ED16F0001BAEC03F001C054F0FD
:102EA00095860101CC6B83B6CC2B436A466A3D6A9A
:102EB0003C6A9D8AD1800001686B676B68C066F0D0
:102EC00067C065F066C064F065C063F064C062F01E
:102ED00063C061F062C060F061C05FF060C05EF02E
:102EE0005FC05DF0956B946B95C093F094C092F0C9
:102EF000236A2FEF07F0246A94988B98376A366A12
:102F000037C035F036C034F0AB6B96908D90010E23
:102F1000AE6FEC6BAD2D03D0C00EF212AD6B95868B
:102F2000000E83B6010E0101CC5D24E0320ED86F95
:102F3000000105EC02F09586000E83B6010E01013A
:102F4000CC5D18E09586CC6B83B6CC2B452C12D08B
:102F5000CC5310E1EA0EF66E000EF76E00011EEC87
:102F600007F08A0EF66E020EF76E22EC05F08EEC7C
:102F700006F00101968284A24FD00001AE2D01D04F
:102F800002D0010149D096908D80B06BAF6BAE6BD3
:102F9000949A8B8A000E82A0010E010805E1B053BD
:102FA00003E1AF51C70803E2010EAE6FF3D74BEF59
:102FB00007F001C08EF101018E513F082DE1949A76
:102FC0008B9A010E436E0001686B676B68C066F0F8
:102FD00067C065F066C064F065C063F064C062F00D
:102FE00063C061F062C060F061C05FF060C05EF01D
:102FF0005FC05DF0ED6FEA6E8E0EE96E000E6DEC57
:1030000000F00A000900F550EE6E0009FBE1969011
:103010008D90010EAE6F0101432CE0D0000187EFCF
:1030200007F0010E0101CE6F8E0ECD6F000119EF7A
:1030300008F001C0ECF0090E0101D86F010ED96F44
:10304000000137EC04F0ECC0CDF1180E0101CE6F99
:10305000000176EC08F0200E0101D76F000160EC52
:1030600004F0EC51010A10E0030A24E0010A25E013
:10307000070A42E0010A43E0030A55E0010A6BE057
:103080000F0AD8B47AD08BD08EEC06F0452C06D03F
:10309000960EF66E020EF76E1EEC07F0ED2D09D0BF
:1030A000452C07D0ED6BA20EF66E020EF76EFFEC0C
:1030B00008F083D00FEC09F080D0452C06D0AE0E7E
:1030C000F66E020EF76EFFEC08F0040E0101CD6FF4
:1030D000FA0ED86F000105EC02F00101CD2FF8D7F0
:1030E00000018EEC06F0452C06D0BA0EF66E020EEC
:1030F000F76E1EEC07F061D01BEC09F05ED0466A5B
:103100007AEF0BF0010E246E090E0101D86F040E48
:10311000D96F000137EC04F0C60EF66E020EF76EA2
:1031200022EC05F04AD0010EAB6FAC6B090E010129
:10313000D86F030ED96F000137EC04F0CC0EF66E99
:10314000020EF76E22EC05F0D20EF66E020EF76E4E
:103150001EEC07F032D0010EAB6FAC6B090E010113
:10316000D86F040ED96F000137EC04F0DE0EF66E56
:10317000020EF76E22EC05F020D0010EAB6FAC6BA7
:10318000090E0101D86F040ED96F000137EC04F06D
:10319000E40EF66E020EF76E22EC05F00ED0090E6C
:1031A0000101D86F020ED96F000137EC04F0EA0E6E
:1031B000F66E020EF76E22EC05F0EC6B010EEA6E75
:1031C0008E0EE96E006A026A200E016E46EC09F06E
:1031D0003F6A3E6A010E476E436A01010001AA532D
:1031E00003E1A951B30804E2455202E00FEC09F0F3
:1031F000AB532EE0AC5109082BE2AB6B090E010179
:10320000D86F010ED96F000137EC04F0EE0EF66EA8
:10321000020EF76E22EC05F0090E0101D86F030EC5
:10322000D96F000137EC04F0F40EF66E020EF76E63
:1032300022EC05F0090E0101D86F040ED96F0001D0
:1032400037EC04F0FA0EF66E020EF76E22EC05F083
:1032500046520CE04F50060809E2FF0A03E14E50C7
:10326000CF0804E24552D8A463EF0DF02452D8B43D
:1032700002D00EEF0EF09B5336E0A251000833E26D
:10328000FF0A03E1A151F3082EE29E532CE19B6B50
:103290009E5327E19F5325E1A05323E10A0E01012C
:1032A000D86F010ED96F000137EC04F0000EF66EF6
:1032B000030EF76E22EC05F0522A0101D26B090EC3
:1032C000D16F52C0D3F10001DAEC02F0452C05D0E9
:1032D000435203E10FEC09F004D04352D8B41BEC85
:1032E00009F0010E9E6F9C5336E0A451000833E2B2
:1032F000FF0A03E1A351F3082EE29F532CE19C6BDC
:103300009E5327E19F5325E1A05323E10A0E0101BB
:10331000D86F010ED96F000137EC04F0040EF66E81
:10332000030EF76E22EC05F0532A0101D26B0A0E50
:10333000D16F53C0D3F10001DAEC02F0452C05D077
:10334000435203E10FEC09F004D04352D8B41BEC14
:1033500009F0010E9F6F9D5336E0A651000833E23D
:10336000FF0A03E1A551F3082EE2A0532CE19D6B67
:103370009E5327E19F5325E1A05323E10A0E01014B
:10338000D86F010ED96F000137EC04F0080EF66E0D
:10339000030EF76E22EC05F0542A0101D26B0B0EDE
:1033A000D16F54C0D3F10001DAEC02F0452C05D006
:1033B000435203E10FEC09F004D04352D8B41BECA4
:1033C00009F0010EA06F9D5312E19C5310E19B5335
:1033D0000EE10A0E0101D86F010ED96F000137EC22
:1033E00004F00C0EF66E030EF76E22EC05F03F5063
:1033F00002080AE2FF0A03E13E50830805E2475251
:1034000003E032EC05F0476A2DEF14F0040082D59A
:023410000300B7
:020000040030CA
:0E00000000C21E180086910000800FE00F4025
:00000001FF
;PIC18F4580
;CRC=D282  CREATED="09-may.-22 11:27"
