:040000009CEF15F06C
:08000800046ED8CF05F0E0CF33
:1000100006F00001E9CF0CF0EACF07F0E1CF08F0DD
:10002000E2CF09F0D9CF0AF0DACF0BF0F3CF12F01C
:10003000F4CF13F0FACF14F0F5CF15F0F6CF16F099
:10004000F7CF17F000C00EF001C00FF002C010F0A3
:1000500003C011F09DAA30EF00F09EBAF0EF00F05F
:100060009DA036EF00F09EB067EF00F00EC000F0EC
:100070000FC001F010C002F011C003F00CC0E9FF86
:1000800007C0EAFF078E08C0E1FF09C0E2FF0AC00F
:10009000D9FF0BC0DAFF12C0F3FF13C0F4FF14C086
:1000A000FAFF15C0F5FF16C0F6FF17C0F7FF0450A2
:1000B00006C0E0FF05C0D8FF1000F76ACA0FF66E51
:1000C000000EF7220900F5501200280C01063E2A06
:1000D000D8B43F2AA72BD8B4A82BA85303E1A75123
:1000E000630806E2A86BA76BA92BD8B4AA2BAC2B8C
:1000F0009388556A81B8552A555203E15D2AD8B4D0
:100100005E2A9588566A83B8562A565203E15F2ABA
:10011000D8B4602B9384576A81B4572A575203E1AD
:10012000612BD8B4622B9386586A81B6582A5852EC
:1001300003E1632BD8B4642B9380596A81B0592AA8
:10014000595203E1652BD8B4662B93825A6A81B267
:100150005A2A5A5203E1672BD8B4682BA12BD8B482
:10016000A22BA32BD8B4A42BA52BD8B4A62B4E2AF4
:10017000D8B44F2AE70ECF6E960ECE6E9E9036EF15
:1001800000F0030E01019E5F0AE3010EEA6E9E0E6F
:10019000E96EEF5004E001D000D0EF2EFDD7000152
:1001A000DBEF00F0200E01019C6F020E9D6F9B0E95
:1001B0009E6F0001E6D701019D2FF9D79C2F03D038
:1001C0001F6A016A0AD09EAAF0D7AB501F6EAE50CC
:1001D000016E1FA202D0AB98AB88000104EF01F0C2
:1001E000F29CF29EF2BEFDD7416A41500F081FE318
:1001F000036A41504E0FE96E010E0320EA6EEACF0A
:100200009BF1E9CF9AF1CED79BC1EAFF9AC1E9FFF2
:1002100001C0EFFF412A036A41504E0FE96E010E03
:100220000320EA6EEF500D08D8B401D0DED7010EDE
:10023000436EAD6F9E9A36EF00F0424F52524152DC
:100240005F414C4C0D000C424F525241525F414CA9
:100250004C00424F525241525F414C4C0D005245AE
:100260005345545F4F4B0D0A0000424F52524152CA
:100270005F414C4C0D0043324F4B000043314F4B1C
:10028000000053455249414C5F544F4B0D004332DF
:100290004F4B0000537562320000202020200000E8
:1002A000202020200000202020200000424C0000C0
:1002B000424C0000424C000020200000534F4C49AB
:1002C00043495441444F0D00504153414A45524F18
:1002D000533A2530344C642F2530344C642F25306C
:1002E000334C642F2530344C752F0D004143432B84
:1002F00030313A2530344C752C2530344C752C2552
:1003000030344C752C2530334C752C2530334C75DE
:100310002C253032752C0D0A00004143432B30311F
:100320003A2530344C752C2530344C752C444553CB
:10033000432C2530334C752C3030302C2530327521
:100340002C0D0A004445534300000C0020002000FF
:10035000200020002000200020002000200020009D
:10036000200020006D656D6F72793A25730D0000D5
:1003700053313A254C64200042313A254C64200028
:1003800053323A254C64200042323A254C64200016
:1003900053313A202020200042313A2020202000F2
:1003A00053323A254C64200042323A254C642000F6
:1003B00053455249414C544553540D0A0000010E17
:1003C000EA6E900EE96EEF500DE0060E016E006AC7
:1003D000002EFED7012EFBD77B0E006E002EFED71F
:1003E000EF2EF3D71200010197B102D0899801D006
:1003F0008988929897B302D0899401D08984929485
:1004000097B502D0899201D08982929297B702D093
:10041000899001D089809290000092968986020E80
:10042000006E002EFED700D0000092968996000143
:10043000120096948D94630E006E002EFED700D0AD
:100440000101945303E096948D8402D096948D9488
:100450000000929689969539966F0F0E961796C161
:1004600097F10001C0DF010195510F0B966F976F57
:100470000001B9DF1200010E216E96948D949296C0
:100480008996230E0101906F000199DF0101866BAF
:10049000865102080CE3030E976F0001A4DF050EDE
:1004A0000101906F00018BDF0101862BF1D7020E55
:1004B000976F000198DF0101866B8651030812E3F4
:1004C000036A86510001F9DD0101876F946B956F16
:1004D0000001AFDF050E0101906F000170DF010127
:1004E000862BEBD7000179EF16F0958E958C7BEF7C
:1004F00016F0080E016E050E006E002EFED78C9EC3
:10050000959E060E006E002EFED7010190378C9C42
:10051000D8B0958CD8A0959C958E83AEFED7012E31
:1005200001D002D00001E7D7050E006E002EFED7E5
:100530008C9E959E0000958C060E006E002EFED7B8
:10054000060E006E002EFED7958E83AEFED7016A92
:10055000060E006E002EFED783BC01808C9E959EF9
:100560008C9C959C00011200958C050E006E002E4F
:10057000FED7958E060E006E002EFED78C9C959CA5
:10058000050E006E002EFED78C9E959EA00E0101DA
:10059000906F0001AEDF8BC18EF101018F6B8BC1BB
:1005A00090F10001A6DF8AC190F1A3DF8CC190F128
:1005B000A0DF959C0000958E83AEFED7050E006EE1
:1005C000002EFED700D00000958C050E006E002E88
:1005D000FED7958C050E006E002EFED7958E060E6A
:1005E000006E002EFED78C9C959C050E006E002E92
:1005F000FED78C9E959EA00E0101906F000179DFC1
:10060000015001018D9101B08D818DA11ED0958C7D
:10061000050E006E002EFED7958E060E006E002E83
:10062000FED783AEFED78C9C959C050E006E002EE7
:10063000FED78C9E959EA00E906F00015ADF015050
:1006400001018D9101B08D81E0D7959C0000958EC0
:1006500083AEFED7050E006E002EFED700D0000040
:10066000958C050E006E002EFED700011200F29C44
:10067000F29EF2BEFDD70101866B876B896B886B9A
:10068000896B886B876B866B3DC089F13CC088F1B4
:1006900088C187F189C186F18B6B140E8A6F86C180
:1006A0008CF1000161DF01018B6B150E8A6F87C130
:1006B0008CF1000159DFC00EF2121200080E010188
:1006C0008E6F00C08FF1958C060E006E002EFED747
:1006D000958E83AEFED783BCD88083ACD89001368C
:1006E000050E006E002EFED7959E8C9E8E2FEBD7AA
:1006F000958C060E006E002EFED78C9C8F51D8A4D0
:10070000959C0000958E83AEFED7050E006E002EE0
:10071000FED78C9E959E060E006E002EFED78C9CFA
:10072000959C0001D1EF03F0958C050E006E002E14
:10073000FED7958E060E006E002EFED78C9C959CE3
:10074000050E006E002EFED78C9E959EA00E010118
:10075000906F0001CEDE8BC18DF101018E6B8BC1DC
:1007600090F10001C6DE8AC190F1C3DE958C050EC2
:10077000006E002EFED7958E060E006E002EFED760
:1007800083AEFED78C9C959C050E006E002EFED786
:100790008C9E959EA10E0101906F0001AADE006A59
:1007A0008DD701C08CF1959C0000958E83AEFED74D
:1007B000050E006E002EFED700D00000958C050EB1
:1007C000006E002EFED701018CC101F00001120065
:1007D000F29CF29EF2BEFDD70101866B876B896B9E
:1007E000886B8B6B140E8A6F00019EDF01C086F14F
:1007F00001018B6B150E8A6F000196DF01C087F136
:100800000101896B86C188F188C189F1886B8751A4
:10081000881389C13DF088C13CF0C00EF21200017E
:10082000120001019151010A000107E0030A08E0EA
:10083000010A0AE0070A0CE010D00101926B0FD008
:10084000400E0101926F0BD0140E0101926F07D080
:10085000540E0101926F03D000010101926B010E51
:10086000905D922792518009936F946B956F000170
:10087000E0DD120001018F510C0A000105E0060ABB
:1008800011E0020A18E01ED00101946B010E956F71
:100890000001CFDD010E216E020E0101906F0001FB
:1008A0008EDD17D0212A010E0101906F21C091F138
:1008B0000001B7DF0ED00101946B100E956F00019F
:1008C000B8DD07D0010E0101946F8FC195F10001D1
:1008D000B0DD12000900F6CF87F1F7CF88F1F5CF30
:1008E0008FF1C8DF87C1F6FF88C1F7FF0101862FAE
:1008F00001D002D00001EED700011200EACF8EF144
:10090000E9CF8DF1010187AF08D08D8F8DA98D2B97
:10091000861F871F862BD8B4872B8739F009896FEC
:100920008927E20F8A6F320F8C6F87510F0B8A274E
:100930008A278C27E90F8B6F8B278B2786390F0B24
:100940008B278C278B378C378C1F8C3786510F0B5E
:100950008C278937070E886F0A0E8B078C27FDE3DB
:100960008A078B27FDE389078A27FDE38807892704
:10097000FDE3010EEA6E880EE96E070E8D158D9D62
:10098000ED528D1507E18DB9EE528DB903D0200ED1
:10099000006E20D0E926000EEA22E9508C0803E11F
:1009A000EA2C01D08D8DEF50006E08E18DBD06D090
:1009B0008DB91DD08DB702D0200E0BD08DAF06D0D3
:1009C0002D0E006EED508D9D8D9F04D08D878D99DD
:1009D000300E0026EACF87F1E9CF86F100C08FF113
:1009E000000148DF87C1EAFF86C1E9FF0101EE503F
:1009F0008DADD3D7000112000900F5520CE0F6CFFF
:100A000086F1F7CF87F1F5CF8FF134DF86C1F6FF9E
:100A100087C1F7FFF1D71200010E0101906F916FAE
:100A20000001FFDE4552D8B48FD0310E01018F6F27
:100A3000000120DF200E01018F6F00011BDF48C184
:100A40008FF118DF49C18FF115DF4AC18FF112DF35
:100A50004BC18FF10FDF4CC18FF10CDF200E010174
:100A60008F6F000107DF0E0E0101906F010E916F75
:100A70000001D7DE700EF66E030EF76E030E010155
:100A8000866F000127DF100EE96E8BC087F18AC0E8
:100A900086F134DF200E01018F6F0001EBDE0E0EB8
:100AA0000101906F020E916F0001BBDE780EF66EB1
:100AB000030EF76E030E0101866F00010BDF100EAF
:100AC000E96E8DC087F18CC086F118DF200E010120
:100AD0008F6F0001CFDE0E0E0101906F030E916F3C
:100AE00000019FDE800EF66E030EF76E030E01010D
:100AF000866F0001EFDE100EE96E35C087F134C05D
:100B000086F1FCDE200E01018F6F0001B3DE0E0EB8
:100B10000101906F040E916F000183DE880EF66E66
:100B2000030EF76E030E0101866F0001D3DE100E77
:100B3000E96E37C087F136C086F1E0DE200E010194
:100B40008F6F000197DE6ED0320E01018F6F0001B2
:100B500091DE200E01018F6F00018CDE48C18FF104
:100B600089DE49C18FF186DE4AC18FF183DE4BC138
:100B70008FF180DE4CC18FF17DDE200E01018F6F81
:100B8000000178DE0E0E0101906F010E916F0001E1
:100B900048DE900EF66E030EF76E2EDF0E0E01018C
:100BA000906F020E916F00013CDE980EF66E030E00
:100BB000F76E22DF0E0E0101906F030E916F0001A0
:100BC00030DEA00EF66E030EF76E030E0101866F87
:100BD000000180DE100EE96E8BC087F18AC086F1BD
:100BE0008DDE200E01018F6F000144DE0E0E01012B
:100BF000906F040E916F000114DEA80EF66E030EC6
:100C0000F76E030E0101866F000164DE100EE96EBF
:100C10008DC087F18CC086F171DE200E01018F6FCF
:100C2000000128DE12008C518A250101866F000127
:100C30008D518B210101876FD890873100018F6F13
:100C40000101863100018E6FE7DE5B6A5C6A2A6A09
:100C50002AC029F029C028F02D6A2DC02CF02CC004
:100C60002BF01200F29CF29EF2BEFDD701018B6BBD
:100C7000020E8A6F8AC08CF1000176DC8BC086F18F
:100C80000101876B8B6B010E8A6F8BC08CF10001A9
:100C90006BDCC00EF212C7DF1200F29CF29EF2BEB5
:100CA000FDD701018B6B040E8A6F8CC08CF10001A3
:100CB0005BDC8DC086F10101876B8B6B030E8A6F45
:100CC0008DC08CF1000150DCC00EF212ACDF1200BE
:100CD000936B926B956B946B3D6A3C6AC8DC78DDD4
:100CE0008F6B8E6B916B906B8D6B8C6B8B6B8A6B40
:100CF000B9DFD3DF4D6A4C6A526A536A546A010104
:100D00008B6B090E8A6F52C08CF100012DDC010142
:100D10008B6B0A0E8A6F53C08CF1000125DC010138
:100D20008B6B0B0E8A6F54C08CF100011DDC4A0ED8
:100D3000F66E030EF76E60DE6FDE1200F29CF29E1E
:100D4000F2BEFDD70101866B876B896B886B8B6B5D
:100D5000010E8A6F0001E8DC01C086F101018B6B96
:100D6000020E8A6F0001E0DC01C087F10101896B8E
:100D700086C188F188C18BF18A6B8A518711886F8F
:100D80008BC189F189C18BF088C18AF0C00EF21243
:100D90000001C2EF16F0F29CF29EF2BEFDD70101F7
:100DA000866B876B896B886B8B6B030E8A6F000178
:100DB000BBDC01C086F101018B6B040E8A6F000160
:100DC000B3DC01C087F10101896B86C188F188C15C
:100DD0008BF18A6B8A518711886F8BC189F189C128
:100DE0008DF088C18CF0C00EF2120001C4EF16F035
:100DF0000900F5520DE0F6CF86F1F7CF87F1F550F7
:100E00009EA8FED7AD6E86C1F6FF87C1F7FFF0D76B
:100E10001200D0500F0BD0A8000ED080D082D08806
:100E2000D886D888070A07E0080A06E0010A0AE01F
:100E3000020A09E008D007D0B00EF66E030EF76E76
:100E4000D7DF01D000D033EF17F0100E01018B6F08
:100E5000010E8A6F208C9482100E006E002EFED739
:100E600000008A2F05D08B2F03D0206A016A24D07E
:100E700082B2F2D7080E006E8C6BF2CF8DF1F29E2B
:100E8000008E0ED0009E0CD0D89082B2D8808C33C9
:100E9000008C06D0009C002EF7D78C51016E0CD030
:100EA000A70E00BE2D0E016E012EFED7000000BE63
:100EB000E9D700BCEFD7E8D78DBFF28E0001120052
:100EC000496A486A48C044F04B6A0A0E4A6E495261
:100ED0004AE14850090847E3445245E1416A482A3B
:100EE000D8B4492A4150090838E3036A4150760FC3
:100EF000E96E010E0320EA6E41504A240101886F19
:100F0000000E4B20896FF2CF8AF1F29E88C1A9FFB3
:100F1000A69CA69EA680A8508ABFF28EEF6E036A9A
:100F20004150760FE96E010E0320EA6EEFCF86F195
:100F3000036A41504E0FE96E010E0320EA6EEF5036
:100F4000865D03E0000109D00101412A41500A08F1
:100F500002E1010E446E0001C5D70A0E4A26000EBA
:100F60004B220400B4D7B4EF17F001018CC1E9FFA4
:100F70008DC1EAFFEFCF90F18FC103F08EC1E9FF81
:100F80008FC1EAFFEF50905D15E18DC103F08CC178
:100F9000E9FF03C0EAFFEF5203E1000E016E1FD02C
:100FA0008DC103F08C518C2BD8B48D2B8E2BD8B4E3
:100FB0008F2BDCD78DC103F08CC1E9FF8DC1EAFF17
:100FC000EFCF90F18FC103F08EC1E9FF8FC1EAFF2F
:100FD000EF50905D02E2FF0E01D0010E016E0001A4
:100FE00012EF08F00101886B88510A0823E3036AB5
:100FF00088C102F0D890023603360250AE0FE96E77
:10100000000E0320EA6EECCF8BF1ED52EFCF8AF1A8
:101010008BC18DF18AC18CF187C18FF186C18EF1B0
:101020000001A3D701C089F10101895301E102D078
:10103000882BDAD788C101F00001BCEF17F001015D
:101040008D51016A8C5D03E28CC100F00CD0006A06
:10105000080E8E6F8C3700368D51005CD8B0006E54
:1010600001368E2FF7D700011200200E010187A94B
:10107000300E886F86C100F086AF08D0001E002AAF
:1010800000C086F12D0E886F878F8781015086C141
:101090008CF1640E8D6F0001D2DF00C086F1300E3E
:1010A00001240101896F86C18CF10A0E8D6F000148
:1010B000C6DF300E002401018B6F300E01248A6FD1
:1010C00088C100F0300E895D04E0878387BF878583
:1010D00012D088C189F1200E886F300E8A5D04E03D
:1010E000878187BF878307D0D8A4878104E189C11E
:1010F0008AF1200E896F87B505D087B308D087B1F4
:101100000BD00FD088C18FF100013AEC04F089C1F7
:101110008FF100013AEC04F08AC18FF100013AEC42
:1011200004F08BC18FF100013AEC04F01200BC0E08
:10113000F66E020EF76E5CDEAA6BA96B010E466EB0
:101140004F6A4E6A1200F2CF03F0F29E94908B9099
:10115000080E016E00D00000018E10D0019E01012A
:101160008F330001D8B08B80D8A08B90018C06D033
:10117000019C012EF4D700D000008B80A70EE96EF1
:10118000E92EFED700D001BEE9D701BCF1D703BEDE
:10119000F28E12000900F5520CE0F6CF86F1F7CF7F
:1011A00087F1F5CF8FF1CFDF86C1F6FF87C1F7FF5B
:1011B000F1D7F8EF17F00900F6CF89F1F7CF8AF1F0
:1011C000F5509EA8FED7AD6E89C1F6FF8AC1F7FF24
:1011D0000101882F01D002D00001EDD70001EEEF10
:1011E00009F0EACF90F1E9CF8FF1010189AF08D082
:1011F0008F8F8FA98F2B881F891F882BD8B4892B9D
:101200008939F0098B6F8B27E20F8C6F320F8E6F4D
:1012100089510F0B8C278C278E27E90F8D6F8D2717
:101220008D2788390F0B8D278E278D378E378E1F90
:101230008E3788510F0B8E278B37070E8A6F0A0E59
:101240008D078E27FDE38C078D27FDE38B078C2709
:10125000FDE38A078B27FDE3010EEA6E8A0EE96E35
:10126000070E8F158F9DED528F1507E18FB9EE5246
:101270008FB903D0200E006E20D0E926000EEA229E
:10128000E9508E0803E1EA2C01D08F8DEF50006EFB
:1012900008E18FBD06D08FB914D08FB702D0200ED1
:1012A0000BD08FAF06D02D0E006EED508F9D8F9F0F
:1012B00004D08F878F99300E002600509EA8FED74D
:1012C000AD6EEE508FADDCD700011200EACF90F189
:1012D000E9CF8FF101018939F0098B6F8B27E20F7C
:1012E0008C6F320F8E6F89510F0B8C278C278E27B6
:1012F000E90F8D6F8D278D2788390F0B8D278E274E
:101300008D378E378E1F8E3788510F0B8E278B3778
:10131000070E8A6F0A0E8D078E27FDE38C078D2737
:10132000FDE38B078C27FDE38A078B27FDE3010E86
:10133000EA6E8A0EE96E070E8F158F9DE926000E64
:10134000EA22E9508E0803E1EA2C01D08F8DEF509C
:10135000006E08E18FBD06D08FB90CD08FB702D0D8
:10136000200E03D08F878F99300E002600509EA844
:10137000FED7AD6EEE508FADE4D7000116EF0AF048
:101380008C518A250101886F00018D518B2101014B
:10139000896FD8908931876F8831866F5350522476
:1013A00054244C6E4D6A010E0001AB6FAC6B090EFC
:1013B0000101906F030E916F000111EC04F0AB0E70
:1013C00001018F6F00013AEC04F0C80EF66E020EB8
:1013D000F76E0A0E0101886F0001EDD60A0EE96E64
:1013E0008BC089F18AC088F1FCDE2F0E9EA8FED743
:1013F000AD6E0A0EE96E8DC089F18CC088F1F1DE08
:101400002F0E9EA8FED7AD6E0B0EE96E4DC089F172
:101410004CC088F1E6DE2F0E9EA8FED7AD6E090EF9
:10142000E96E87C189F186C188F150D72F0E9EA839
:10143000FED7AD6E0D0E9EA8FED7AD6E12000166F2
:1014400003D0026602D007D0022A00C0EEFF012EB0
:10145000FCD7022EFAD712009D9A396A386A3B6A85
:101460003A6A2F6A2E6A316A306A976B966B336AD2
:10147000326A916B906B010EEA6E6B0EE96E006A38
:10148000026A040E016EDBDF010EEA6E6F0EE96E7A
:10149000006A026A040E016ED2DF010EEA6E730E5C
:1014A000E96E006A026A030E016EC9DF010EEA6E80
:1014B000730EE96E006A026A040E016EC0DF0A0E46
:1014C000416E426A426A425003081EE3036A425078
:1014D0006B0F016E010E032201C086F1010103C0F2
:1014E00087F10A0E4224036A4E0FE96E010E0320B3
:1014F000EA6EEFCF88F187C1EAFF01C0E9FF88C13A
:10150000EFFF422A0001DFD7426A425003081EE380
:10151000036A42506F0F016E010E032201C086F173
:10152000010103C087F10F0E4224036A4E0FE96EDA
:10153000010E0320EA6EEFCF88F187C1EAFF01C0F8
:10154000E9FF88C1EFFF422A0001DFD7426A42501B
:1015500002081EE3036A4250730F016E010E03225C
:1015600001C086F1010103C087F1140E4224036A11
:101570004E0FE96E010E0320EA6EEFCF88F187C1AE
:10158000EAFF01C0E9FF88C1EFFF422A0001DFD76F
:10159000426A425003081EE3036A4250800F016E04
:1015A000010E032201C086F1010103C087F1180E6C
:1015B0004224036A4E0FE96E010E0320EA6EEFCF5C
:1015C00088F187C1EAFF01C0E9FF88C1EFFF422A25
:1015D0000001DFD719EF18F00900F6CF87F1F7CF38
:1015E00088F1F5CF8FF1AFDD87C1F6FF88C1F7FF36
:1015F0000101862F01D002D00001EED700011200B8
:10160000EACF8EF1E9CF8DF101018739F009896FB9
:101610008927E20F8A6F320F8C6F87510F0B8A2751
:101620008A278C27E90F8B6F8B278B2786390F0B27
:101630008B278C278B378C378C1F8C3786510F0B61
:101640008C278937070E886F0A0E8B078C27FDE3DE
:101650008A078B27FDE389078A27FDE38807892707
:10166000FDE3010EEA6E880EE96E070E8D158D9D65
:10167000E926000EEA22E9508C0803E1EA2C01D0A9
:101680008D8DEF50006E08E18DBD06D08DB915D05F
:101690008DB702D0200E03D08D878D99300E002695
:1016A000EACF87F1E9CF86F100C08FF100014BDD71
:1016B00087C1EAFF86C1E9FF0101EE508DADDBD79E
:1016C00000011200015086C18CF1640E01018D6F82
:1016D0000001B5DC00C086F10150300E08E10101C7
:1016E00087A30FD087B70DD087B9200E04D0010192
:1016F000879787998781012601C08FF1000123DD3B
:10170000010186C18CF10A0E8D6F000198DC00C0CA
:1017100086F10150300E08E1010187B70AD087A198
:1017200008D087B9200E0001012601C08FF10BDD22
:101730000101300E862786C18FF1000104DD120001
:101740009D9A5350522454244C6E4D6A010EEA6EF9
:101750006B0EE96E006A026A040E016E70DE010E05
:10176000EA6E6F0EE96E006A026A040E016E67DEB1
:10177000010EEA6E730EE96E006A026A030E016ED4
:101780005EDE0A0E416E426A8C518A250101866F27
:1017900000018D518B210101876FD8908731396EFF
:1017A0008631386E0001E8EC03F03C503824906F2D
:1017B0003D503920916F010E236E1A0EF66E030E06
:1017C000F76E070E0101866F000106DF090EE96E54
:1017D00091C087F190C086F113DF2C0E01018F6F4D
:1017E0000001B1DC090EE96E39C087F138C086F11D
:1017F00007DF2C0EF66E030EF76E060E0101866FE4
:101800000001EADE0A0EE96E4DC087F14CC086F198
:10181000F7DE370EF66E030EF76E050E0101866FCA
:101820000001DADE23C086F1010E0101876F00019D
:1018300049DF400EF66E030EF76E030E0101866F50
:101840000001CADE090E0101906F030E916F0001C5
:1018500011EC04F0AB0E01018F6F00013AEC04F0C3
:10186000090E0101906F040E916F000111EC04F05C
:10187000440EF66E030EF76EFCEC04F0010EAB6F37
:10188000AC6BAA6BA96B466A9D8AC8EF18F0010180
:10189000886B8651300804E1875302E1886B47D09A
:1018A0008651310805E1875303E1010E886F3FD06F
:1018B0008651320805E1875303E1020E886F37D065
:1018C0008651330805E1875303E1030E886F2FD05B
:1018D0008651340805E1875303E1040E886F27D051
:1018E0008651350805E1875303E1050E886F1FD047
:1018F0008651360805E1875303E1060E886F17D03D
:101900008651370805E1875303E1070E886F0FD032
:101910008651380805E1875303E1080E886F07D028
:101920008651390804E1875302E1090E886F88C1A6
:1019300001F0000112000101876B80C186F10001F6
:10194000A6DF015210E0416A0101876B80C186F178
:1019500000019DDF0150415C06E2E80E3226030ED5
:101960003322412AF1D70101876B81C186F1000141
:101970008EDF015210E0416A0101876B81C186F15F
:10198000000185DF0150415C06E2640E3226000E44
:101990003322412AF1D70101876B82C186F1000110
:1019A00076DF015210E0416A0101876B82C186F146
:1019B00000016DDF0150415C06E20A0E3226000E86
:1019C0003322412AF1D70101876B83C186F10001DF
:1019D0005EDF01503226000E33220101876B6BC19E
:1019E00086F1000154DF015210E0416A0101876B6A
:1019F0006BC186F100014BDF0150415C06E2E80E4D
:101A00002E26030E2F22412AF1D70101876B6CC1CC
:101A100086F100013CDF015210E0416A0101876B51
:101A20006CC186F1000133DF0150415C06E2640EB7
:101A30002E26000E2F22412AF1D70101876B6DC19E
:101A400086F1000124DF015210E0416A0101876B39
:101A50006DC186F100011BDF0150415C06E20A0EF8
:101A60002E26000E2F22412AF1D70101876B6EC16D
:101A700086F100010CDF01502E26000E2F222FC010
:101A800035F02EC034F00101876B6FC186F1000183
:101A9000FEDE015210E0416A0101876B6FC186F1E1
:101AA0000001F5DE0150415C06E2E80E3026030E2F
:101AB0003122412AF1D70101876B70C186F1000103
:101AC000E6DE015210E0416A0101876B70C186F1C8
:101AD0000001DDDE0150415C06E2640E3026000E9E
:101AE0003122412AF1D70101876B71C186F10001D2
:101AF000CEDE015210E0416A0101876B71C186F1AF
:101B00000001C5DE0150415C06E20A0E3026000EDF
:101B10003122412AF1D70101876B72C186F10001A0
:101B2000B6DE01503026000E312231C037F030C011
:101B300036F00101876B73C186F10001A8DE015206
:101B400010E0416A0101876B73C186F100019FDEDD
:101B50000150415C06E2640E9627000E9723412A4D
:101B6000F1D70101876B74C186F1000190DE01524B
:101B700010E0416A0101876B74C186F1000187DEC4
:101B80000150415C06E20A0E9627000E9723412A77
:101B9000F1D70101876B75C186F1000178DE015034
:101BA0009627000E97238C518A250101866F00012C
:101BB0008D518B210101876FD8908731396E863125
:101BC000386E30502E24866F31502F20876FD8907A
:101BD0008731516E8631506E0001E8EC03F03250CF
:101BE000505C0FE13350515C0CE151C03BF050C0F0
:101BF0003AF03BC03DF03AC03CF037EC03F0236ACA
:101C000002D0020E236E3A503824906F3B50392098
:101C1000916F5350522454244C6E4D6AEC0EF66E64
:101C2000020EF76E070E0101866F0001D5DC090E6A
:101C3000E96E91C087F190C086F1E2DC2C0E0101C3
:101C40008F6F0001A3EC08F0090EE96E39C087F12F
:101C500038C086F1D5DC2C0E01018F6F0001A3EC9A
:101C600008F0090EE96E3BC087F13AC086F1C8DC86
:101C70002C0E01018F6F0001A3EC08F00A0EE96E33
:101C80004DC087F14CC086F1BBDC2C0E01018F6F7B
:101C90000001A3EC08F00A0EE96E97C087F196C028
:101CA00086F1AEDC2C0E01018F6F0001A3EC08F071
:101CB00023C086F1010E0101876F000103DD150EBF
:101CC000F66E030EF76E030E0101866F000184DCD1
:101CD0000CEC05F0090E0101906F030E916F0001ED
:101CE00011EC04F0AB0E01018F6F00013AEC04F02F
:101CF000010EAB6FAC6BAA6BA96B246A9D8ACDEF0A
:101D000018F05B5222E15C5220E1692D03D06B2D6B
:101D100001D009D0692D03D06D2D01D004D06B2DD9
:101D200004D06D2D02D0010E5B6E6A2D03D06C2D98
:101D300001D009D06A2D03D06E2D01D004D06C2DB6
:101D400004D06E2D02D0010E5C6E1200755322E19C
:101D5000692D20D06A531EE177531CE178531AE1B4
:101D60005B5203E15C52D8B4CCDF080E0101906FE6
:101D7000020E916F000111EC04F07F0E01018F6FD4
:101D800000013AEC04F0010E986F766F776F796F6F
:101D9000756F1ED175530EE1692D0CD06A2D0AD0D6
:101DA000772D08D0785306E1030E766F796B010E1C
:101DB000756F0ED175530DE169530BE16A2D09D092
:101DC000772D07D0785305E1040E766F010E756FFD
:101DD000FFD075532AE1695328E16A5326E179530C
:101DE00024E1772D22D0785320E1080E0101906F75
:101DF000020E916F000111EC04F04C0EF66E030E12
:101E0000F76EFCEC04F0986B7B51040806E1050EBC
:101E1000766F776B010E756F07D0986B060E766F35
:101E2000776B796B010E756FD3D0755320E16953D1
:101E30001EE16A531CE1792D1AD0772D18D0785302
:101E400016E1080E0101906F020E916F000111EC76
:101E500004F04E0EF66E030EF76EFCEC04F0986B79
:101E6000060E766F776B796B010E756FB1D0755377
:101E70000EE1692D0CD06A530AE1772D08D0785312
:101E800006E1020E766F010E796F756FA1D0755362
:101E900023E1695321E16A2D1FD077531DE1785367
:101EA0001BE15B5203E15C52D8B42BDF080E010149
:101EB000906F020E916F000111EC04F07E0E010193
:101EC0008F6F00013AEC04F0010E986F070E766FE9
:101ED000010E786F756F7CD075530EE169530CE17C
:101EE0006A2D0AD0775308E1782D06D0080E766F58
:101EF000010E796F756F6CD075530EE1692D0CD0A2
:101F00006A2D0AD0775308E1782D06D0090E766F36
:101F1000796B010E756F5CD075530DE1692D0BD097
:101F20006A5309E1775307E1782D05D00A0E766FE1
:101F3000010E756F4DD075532AE1695328E16A533C
:101F400026E1795324E1775322E1782D20D0080E41
:101F50000101906F020E916F000111EC04F0500E20
:101F6000F66E030EF76EFCEC04F07B510A0807E1F5
:101F7000986B0B0E766F786B010E756F07D0986BB0
:101F80000C0E766F786B796B010E756F21D07553DF
:101F90001FE169531DE16A531BE1792D19D0775375
:101FA00017E1782D15D0080E0101906F020E916F88
:101FB000000111EC04F0520EF66E030EF76EFCEC0D
:101FC00004F0986B0C0E766F786B796B010E756F61
:101FD0001200695335E16A5333E16B5331E16C53BD
:101FE0002FE16D532DE16E532BE1295028242A2433
:101FF000256E2C502B242D24266E2550010803E33A
:10200000265001080EE22550265C06E28A2BD8B441
:102010008B2B32EC06F005D08C2BD8B48D2B4DECED
:1020200006F02A6A2AC029F029C028F028C025F025
:102030002D6A2DC02CF02CC02BF02BC026F07FD0A9
:102040009E5305E19F5303E1A053D8B478D09F512C
:102050009E25A025276E272C48D09E5316E06B5353
:1020600013E16C5311E16D530FE16E530DE15B2CE5
:1020700006D08A2BD8B48B2B32EC06F005D08C2BF3
:10208000D8B48D2B4DEC06F02FD09F5316E069533A
:1020900013E16A5311E16D530FE16E530DE15B5291
:1020A00006E08A2BD8B48B2B32EC06F005D08C2BB3
:1020B000D8B48D2B4DEC06F017D0A05315E06B5320
:1020C00013E16C5311E169530FE16A530DE15B5267
:1020D00006E08A2BD8B48B2B32EC06F005D08C2B83
:1020E000D8B48D2B4DEC06F01CD0295028242A247E
:1020F000256E2C502B242D24266E2550000803E33A
:10210000265000080EE22550265C06E28A2BD8B441
:102110008B2B32EC06F005D08C2BD8B48D2B4DECEC
:1021200006F02A6A2AC029F029C028F028C025F024
:102130002D6A2DC02CF02CC02BF02BC026F01200E5
:1021400076517B5D04E076C07BF0010E7A6F7A2DCC
:102150001ED0010E765DF40F18E20C0FC8EF10F0E0
:1021600014D02B5203E1010E286E01D02B6A31DF0F
:102170000CD02FDF0AD009D0285203E1010E2B6EBC
:1021800001D0286A26DF01D024DF7A6B756B12003C
:10219000E824F76AF736AB0FF66E210EF7220A0035
:1021A000F550FA6E0800F550F96E60218A218A21F7
:1021B0008A216221722176218A218A218A2178212D
:1021C00088217C5322E16B2D20D06C531EE17E537D
:1021D0001CE17F531AE15B5203E15C52D8B491DDFC
:1021E000080E0101906F030E916F000111EC04F0D5
:1021F0007F0E01018F6F00013AEC04F0010E996F20
:102200007D6F7E6F806F7C6F1ED17C530EE16B2DD6
:102210000CD06C2D0AD07E2D08D07F5306E1030E22
:102220007D6F806B010E7C6F0ED17C530DE16B5383
:102230000BE16C2D09D07E2D07D07F5305E1040EF4
:102240007D6F010E7C6FFFD07C532AE16B5328E138
:102250006C5326E1805324E17E2D22D07F5320E170
:10226000080E0101906F030E916F000111EC04F054
:10227000540EF66E030EF76EFCEC04F08251040867
:1022800007E1996B050E7D6F7E6B010E7C6F07D0A9
:10229000996B060E7D6F7E6B806B010E7C6FD3D0C9
:1022A0007C5320E16B531EE16C531CE1802D1AD04E
:1022B0007E2D18D07F5316E1080E0101906F030E9A
:1022C000916F000111EC04F0560EF66E030EF76EDE
:1022D000FCEC04F0996B060E7D6F7E6B806B010E3B
:1022E0007C6FB1D07C530EE16B2D0CD06C530AE1A6
:1022F0007E2D08D07F5306E1020E7D6F010E806FA8
:102300007C6FA1D07C5323E16B5321E16C2D1FD056
:102310007E531DE17F531BE15B5203E15C52D8B455
:10232000F0DC080E0101906F030E916F000111ECBB
:1023300004F07E0E01018F6F00013AEC04F0010EF3
:10234000996F070E7D6F010E7F6F7C6F7CD07C5381
:102350000EE16B530CE16C2D0AD07E5308E17F2D0A
:1023600006D0080E7D6F010E806F7C6F6CD07C53A1
:102370000EE16B2D0CD06C2D0AD07E5308E17F2D21
:1023800006D0090E7D6F806B010E7C6F5CD07C5394
:102390000DE16B2D0BD06C5309E17E5307E17F2DCE
:1023A00005D00A0E7D6F010E7C6F4DD07C532AE163
:1023B0006B5328E16C5326E1805324E17E5322E1E4
:1023C0007F2D20D0080E0101906F030E916F000148
:1023D00011EC04F0580EF66E030EF76EFCEC04F0F0
:1023E00082510A0807E1996B0B0E7D6F7F6B010E1E
:1023F0007C6F07D0996B0C0E7D6F7F6B806B010E2D
:102400007C6F21D07C531FE16B531DE16C531BE1AA
:10241000802D19D07E5317E17F2D15D0080E0101B4
:10242000906F030E916F000111EC04F05A0EF66EDE
:10243000030EF76EFCEC04F0996B0C0E7D6F7F6B56
:10244000806B010E7C6F12007D51825D04E07DC0C7
:1024500082F0010E816F812D1ED0010E7D5DF40F83
:1024600018E20C0F4CEF12F014D02C5203E1010EC5
:10247000296E01D02C6AADDD0CD0ABDD0AD009D0BD
:10248000295203E1010E2C6E01D0296AA2DD01D090
:10249000A0DD816B7C6B1200E824F76AF736B30F7E
:1024A000F66E240EF7220A00F550FA6E0800F55079
:1024B000F96E68249224922492246A247A247E2439
:1024C00092249224922480249024835322E16D2D1F
:1024D00020D06E531EE185531CE186531AE15B52F6
:1024E00003E15C52D8B40DDC080E0101906F040EBC
:1024F000916F000111EC04F07F0E01018F6F00015C
:102500003AEC04F0010E9A6F846F856F876F836FCA
:102510001FD183530EE16D2D0CD06E2D0AD0852D69
:1025200008D0865306E1030E846F876B010E836F1C
:102530000FD183530DE16D530BE16E2D09D0852D25
:1025400007D0865305E1040E846F010E836F00D11E
:1025500083532AE16D5328E16E5326E1875324E12A
:10256000852D22D0865320E1080E0101906F040EC4
:10257000916F000111EC04F05C0EF66E030EF76E25
:10258000FCEC04F08951040807E19A6B050E846F96
:10259000856B010E836F07D09A6B060E846F856B77
:1025A000876B010E836FD4D0835320E16D531EE1FE
:1025B0006E531CE1872D1AD0852D18D0865316E155
:1025C000080E0101906F040E916F000111EC04F0F0
:1025D0005E0EF66E030EF76EFCEC04F09A6B060EC0
:1025E000846F856B876B010E836FB2D083530EE1CE
:1025F0006D2D0CD06E530AE1852D08D0865306E16F
:10260000020E846F010E876F836FA2D0835324E183
:102610006D5322E16E2D20D085531EE186531CE1BF
:102620005B5204E15C52D8B481EC0EF0080E01015B
:10263000906F040E916F000111EC04F07E0E010109
:102640008F6F00013AEC04F0010E9A6F070E846F51
:10265000010E866F836F7CD083530EE16D530CE1C6
:102660006E2D0AD0855308E1862D06D0080E846FA2
:10267000010E876F836F6CD083530EE16D2D0CD0EC
:102680006E2D0AD0855308E1862D06D0090E846F81
:10269000876B010E836F5CD083530DE16D2D0BD0E2
:1026A0006E5309E1855307E1862D05D00A0E846F2C
:1026B000010E836F4DD083532AE16D5328E16E5391
:1026C00026E1875324E1855322E1862D20D0080E90
:1026D0000101906F040E916F000111EC04F0600E87
:1026E000F66E030EF76EFCEC04F089510A0807E160
:1026F0009A6B0B0E846F866B010E836F07D09A6BFB
:102700000C0E846F866B876B010E836F21D0835311
:102710001FE16D531DE16E531BE1872D19D08553C9
:1027200017E1862D15D0080E0101906F040E916FF0
:10273000000111EC04F0620EF66E030EF76EFCEC75
:1027400004F09A6B0C0E846F866B876B010E836F9F
:1027500012008451895D04E084C089F0010E886F05
:10276000882D1ED0010E845DF40F18E20C0FD1EFFE
:1027700013F014D02D5203E1010E2A6E01D02D6A00
:1027800028DC0CD026DC0AD009D02A5203E1010E45
:102790002D6E01D02A6A1DDC01D01BDC886B836B97
:1027A0001200E824F76AF736BD0FF66E270EF722FF
:1027B0000A00F550FA6E0800F550F96E72279C2752
:1027C0009C279C277427842788279C279C279C2745
:1027D0008A279A279388556A81B8552A552C0CD098
:1027E0005E6A5D6A696B9B6BA26BA16B9E5303E093
:1027F00094968B969E6B2DD05E5203E15D5004083B
:1028000002E2010E696F69516F5D23E069C06FF0EC
:10281000010E7A6F050E0101906F020E916F00019B
:1028200011EC04F0310E01018F6F00013AEC04F05D
:102830003A0E01018F6F00013AEC04F06FC086F18F
:10284000180E0101876F000135EC08F0A6EC0EF0C0
:1028500077DC9588566A83B8562A562C0ED0949801
:102860008B88606B5F6A6A6B9B6BA26BA16B9E53DC
:1028700003E094968B969E6B34D094988B9860531B
:1028800003E15F50040802E2010E6A6F6A51705D55
:1028900028E06AC070F0010E7A6F0101906F020E9D
:1028A000916F000111EC04F0320E01018F6F0001F5
:1028B0003AEC04F03A0E01018F6F00013AEC04F09B
:1028C00070C086F1180E0101876F000135EC08F029
:1028D000200E01018F6F00013AEC04F0A6EC0EF01F
:1028E0002FDC9384576A81B4572A572C0CD0626B23
:1028F000616B6B6B9C6BA46BA36B9F5303E0949613
:102900008B969F6B2CD0625303E16151040802E265
:10291000010E6B6F6B51715D22E06BC071F0010EA7
:10292000816F050E0101906F030E916F000111EC94
:1029300004F0330E01018F6F00013AEC04F03A0EFF
:1029400001018F6F00013AEC04F071C086F1180E9E
:102950000101876F000135EC08F033DC75DD9386EB
:10296000586A81B6582A582C0ED094988B88646B7C
:10297000636B6C6B9C6BA46BA36B9F5303E094968F
:102980008B969F6B34D094988B98645303E163517A
:10299000040802E2010E6C6F6C51725D28E06CC09D
:1029A00072F0010E816F0101906F030E916F0001B3
:1029B00011EC04F0340E01018F6F00013AEC04F0C9
:1029C0003A0E01018F6F00013AEC04F072C086F1FB
:1029D000180E0101876F000135EC08F0200E01018F
:1029E0008F6F00013AEC04F0E1EC10F02DDD9380E4
:1029F000596A81B0592A592C0CD0666B656B6D6B86
:102A00009D6BA66BA56BA05303E094968B96A06B71
:102A10002CD0665303E16551040802E2010E6D6F8C
:102A20006D51735D22E06DC073F0010E886F050E6D
:102A30000101906F040E916F000111EC04F0350E4E
:102A400001018F6F00013AEC04F03A0E01018F6F23
:102A500000013AEC04F073C086F1180E0101876F93
:102A6000000135EC08F031DD74DE93825A6A81B2E0
:102A70005A2A5A2C0ED094988B88686B676B6E6BB1
:102A80009D6BA66BA56BA05303E094968B96A06BF1
:102A900033D094988B98685303E16751040802E29D
:102AA000010E6E6F6E51745D27E06EC074F0010E02
:102AB000886F0101906F040E916F000111EC04F01A
:102AC000360E01018F6F00013AEC04F03A0E01015D
:102AD0008F6F00013AEC04F074C086F1180E01010A
:102AE000876F000135EC08F0200E01018F6F0001A7
:102AF0003AEC04F0EADC2DDE692D08D06A2D06D010
:102B00009B5304E1010E9B6FA26BA16B6B2D08D050
:102B10006C2D06D09C5304E1010E9C6FA46BA36B3B
:102B20006D2D08D06E2D06D09D5304E1010E9D6FD2
:102B3000A66BA56B98EF19F0F86AD09E078EFE0E73
:102B4000006E060E016E020EE96E000EEA6EEE6A6F
:102B5000002EFDD7012EFBD71F6AB886080EAF6E78
:102B6000020EB06EA60EAC6E900EAB6E206A949004
:102B70008B80436A456A526A536A546A556A566A38
:102B8000576A586A596A5A6A5B6A5C6A5E6A5D6A21
:102B9000606B5F6A626B616B646B636B666B656BCA
:102BA000686B676B756B766B776B786B796B7A6B31
:102BB0007B6B7C6B7D6B7E6B7F6B806B816B826BC9
:102BC000836B846B856B866B876B886B896B8B6B78
:102BD0008A6B8D6B8C6B8F6B8E6B916B906B936B29
:102BE000926B956B946B986B996B9A6BAD6BC150B4
:102BF000C00B0F09C16E070EB46E55D0020019004C
:102C0000000500C456352E303105C0206E800D0001
:102C10004C4545524355454E54410D0047524142A3
:102C200041525F4441540D00424F525241525F4164
:102C30004C4C0D00534F4C4943495441444F0D00F7
:102C4000504153414A45524F533A0D005345524962
:102C5000414C544553540D0053455249414C5F5427
:102C60004F4B0D0053554249454E444F43320D00E2
:102C700053494E46554E43494F4E0D000AC020025F
:102C8000800D001600AEC400D000DC00E800F400A7
:102C900000010C011801240130013C0106014856D5
:102CA000352E30320000000EF86E2B0EF76EFC0E43
:102CB000F66E0900F550006E000A13E00900F550A9
:102CC000016EE8BE05D00F0BEA6E0900F5CFE9FFF3
:102CD00001BC090001AC0900F5CFEEFF004EE9D7B9
:102CE000F9D7F86AC150C00B0F09C16EC2903BEF13
:102CF00002F075EF02F0B50ECD6E9D80E70ECF6E3F
:102D0000960ECE6EF298C00EF21294948B94949418
:102D10008B940C0EBD6E000E0409CA6E830ECB6E32
:102D2000450EBE6EBD50CF0B3009BD6EF2CF86F1A1
:102D3000F29E640EA96EA69CA69EA680A8500101D4
:102D400086BFF28E406E402C01D019D0F250006E3A
:102D5000F29E640EA96E010EA86EA69CA69EA68485
:102D60000F01550EA76EAA0EA76EA682A6B2FED7B9
:102D7000A6940050F212000168EC06F00101000177
:102D80009EEF06F0CBEF06F05A6A5AC059F059C0D0
:102D900058F058C057F057C056F056C055F0A66BC3
:102DA000A56BA6C0A4F0A5C0A3F0A4C0A2F0A3C0C8
:102DB000A1F0A06BA0C09FF09FC09EF0AA6BA96B72
:102DC000958483A405D0010E456E1D0E226E03D09E
:102DD000456A0F0E226E0CEC05F001018B6B090E9B
:102DE0008A6F000194EC03F001C052F001018B6B7B
:102DF0000A0E8A6F000194EC03F001C053F0010148
:102E00008B6B0B0E8A6F000194EC03F001C054F041
:102E100095860101846B83B6842B436A466A3D6ABA
:102E20003C6A9D8AD1800001686B676B68C066F060
:102E300067C065F066C064F065C063F064C062F0AE
:102E400063C061F062C060F061C05FF060C05EF0BE
:102E50005FC05DF0956B946B95C093F094C092F059
:102E6000236A09EF07F0246A94988B98376A366AC8
:102E700037C035F036C034F0AB6BAD2D03D0C00E8B
:102E8000F212AD6B9586000E83B6010E0101845DD2
:102E900024E0320E906F0001DFEC01F09586000E09
:102EA00083B6010E0101845D18E09586846B83B6BC
:102EB000842B452C12D0845310E13A0EF66E020E8C
:102EC000F76E0001F8EC06F0460EF66E020EF76E95
:102ED000FCEC04F068EC06F0010182B240D04552EF
:102EE0003EE0416A036A41504E0FE96E010E032035
:102EF000EA6EEACF89F1E9CF88F1000125EC07F00D
:102F000089C1EAFF88C1E9FF01C0EFFF412A010141
:102F10004E51400824E24E515A0821E341500A081C
:102F200017E3036A41504E0FE96E010E0320EA6E6B
:102F3000EACF89F1E9CF88F1000125EC07F089C1DA
:102F4000EAFF88C1E9FF01C0EFFF412A0101E6D78E
:102F50004F51520802E1470E4E6F010E436E432C53
:102F6000CFD0000160EF07F0010E0101876F4E0E18
:102F7000866F0001F2EF07F001C085F1090E010133
:102F8000906F010E916F000111EC04F085C186F184
:102F9000180E0101876F000135EC08F0200E0101C9
:102FA0008F6F00013AEC04F0010E0101855DF80F0E
:102FB000D8B095D0080F00019BEF19F068EC06F02F
:102FC000452C06D0520EF66E020EF76EF8EC06F0A7
:102FD000010185D0000197EC08F0010180D00001CB
:102FE000452C06D05E0EF66E020EF76ECAEF08F0A4
:102FF000040E0101866FFA0E906F0001DFEC01F004
:103000000101862FF8D7000168EC06F0452C06D0A8
:103010006A0EF66E020EF76EF8EC06F001015FD054
:103020000001C0EC09F001015AD00001466A2CEF02
:103030000AF0010E246E090E0101906F040E916FCB
:10304000000111EC04F0760EF66E020EF76EFCEC49
:1030500004F0010144D00001010EAB6FAC6B090E0E
:103060000101906F030E916F000111EC04F07C0ED2
:10307000F66E020EF76EFCEC04F0820EF66E020E97
:10308000F76EF8EC06F001012AD00001010EAB6FDB
:10309000AC6B090E0101906F040E916F000111ECF1
:1030A00004F08E0EF66E020EF76EFCEC04F00101D9
:1030B00016D00001010EAB6FAC6B090E0101906FD1
:1030C000040E916F000111EC04F0940EF66E020EE6
:1030D000F76EFCEC04F0010102D000010101010EC9
:1030E000EA6E4E0EE96E006A026A1D0E016E000164
:1030F0001FEC0AF03F6A3E6A010E476E436A010107
:103100000001AA5303E1A951090804E2455202E073
:1031100097EC08F0AB532EE0AC5109082BE2AB6BF7
:10312000090E0101906F010E916F000111EC04F086
:103130009A0EF66E020EF76EFCEC04F0090E010119
:10314000906F030E916F000111EC04F0A00EF66E6B
:10315000020EF76EFCEC04F0090E0101906F040EF4
:10316000916F000111EC04F0A60EF66E020EF76EE0
:10317000FCEC04F046520CE04F50060809E2FF0A4E
:1031800003E14E50CF0804E24552D8A4A0EF0BF063
:103190002452D8B402D09BEF0CF09B5336E0A251DE
:1031A000000833E2FF0A03E1A151F3082EE29E5327
:1031B0002CE19B6B9E5327E19F5325E1A05323E114
:1031C0000A0E0101906F010E916F000111EC04F0E5
:1031D000AC0EF66E020EF76EFCEC04F0522A010102
:1031E0008B6B090E8A6F52C08CF10001B4EC02F0B7
:1031F000452C05D0435203E197EC08F004D043522C
:10320000D8B4C0EC09F0010E9E6F9C5336E0A45177
:10321000000833E2FF0A03E1A351F3082EE29F53B3
:103220002CE19C6B9E5327E19F5325E1A05323E1A2
:103230000A0E0101906F010E916F000111EC04F074
:10324000B00EF66E020EF76EFCEC04F0532A01018C
:103250008B6B0A0E8A6F53C08CF10001B4EC02F044
:10326000452C05D0435203E197EC08F004D04352BB
:10327000D8B4C0EC09F0010E9F6F9D5336E0A65103
:10328000000833E2FF0A03E1A551F3082EE2A05340
:103290002CE19D6B9E5327E19F5325E1A05323E131
:1032A0000A0E0101906F010E916F000111EC04F004
:1032B000B40EF66E020EF76EFCEC04F0542A010117
:1032C0008B6B0B0E8A6F54C08CF10001B4EC02F0D2
:1032D000452C05D0435203E197EC08F004D043524B
:1032E000D8B4C0EC09F0010EA06F9D5312E19C53BD
:1032F00010E19B530EE10A0E0101906F010E916FD8
:10330000000111EC04F0B80EF66E020EF76EFCEC44
:1033100004F03F5002080AE2FF0A03E13E5083082E
:1033200005E2475203E00CEC05F0476AEAEF13F0C0
:103330000400A3D50300E824F76AF736510FF66EB0
:10334000330EF7220A00F550FA6E0800F550F96EB8
:10335000BC2FD62FE02F22302C3058308C30B43098
:020000040030CA
:0E00000000C21E180086910000800FE00F4025
:00000001FF
;PIC18F4580
;CRC=3D30  CREATED="09-may.-22 11:28"
